{
  "contractName": "Collateralize",
  "abi": [
    {
      "inputs": [],
      "stateMutability": "nonpayable",
      "type": "constructor"
    },
    {
      "anonymous": false,
      "inputs": [
        {
          "indexed": false,
          "internalType": "address",
          "name": "from",
          "type": "address"
        },
        {
          "indexed": false,
          "internalType": "uint256",
          "name": "id",
          "type": "uint256"
        }
      ],
      "name": "Created",
      "type": "event"
    },
    {
      "anonymous": false,
      "inputs": [
        {
          "indexed": false,
          "internalType": "address",
          "name": "by",
          "type": "address"
        },
        {
          "indexed": false,
          "internalType": "uint256",
          "name": "id",
          "type": "uint256"
        }
      ],
      "name": "Liquidated",
      "type": "event"
    },
    {
      "anonymous": false,
      "inputs": [
        {
          "indexed": false,
          "internalType": "address",
          "name": "from",
          "type": "address"
        },
        {
          "indexed": false,
          "internalType": "address",
          "name": "to",
          "type": "address"
        },
        {
          "indexed": false,
          "internalType": "uint256",
          "name": "id",
          "type": "uint256"
        }
      ],
      "name": "Transfer",
      "type": "event"
    },
    {
      "inputs": [
        {
          "internalType": "uint256",
          "name": "",
          "type": "uint256"
        },
        {
          "internalType": "uint256",
          "name": "",
          "type": "uint256"
        }
      ],
      "name": "collateralApprovals",
      "outputs": [
        {
          "internalType": "address",
          "name": "",
          "type": "address"
        }
      ],
      "stateMutability": "view",
      "type": "function"
    },
    {
      "inputs": [
        {
          "internalType": "uint256",
          "name": "",
          "type": "uint256"
        }
      ],
      "name": "collaterals",
      "outputs": [
        {
          "internalType": "address",
          "name": "token",
          "type": "address"
        },
        {
          "internalType": "uint256",
          "name": "amount",
          "type": "uint256"
        },
        {
          "internalType": "contract ILiquidationCheck",
          "name": "liquidation",
          "type": "address"
        },
        {
          "internalType": "bytes",
          "name": "args",
          "type": "bytes"
        }
      ],
      "stateMutability": "view",
      "type": "function"
    },
    {
      "inputs": [
        {
          "internalType": "address",
          "name": "",
          "type": "address"
        }
      ],
      "name": "ownedBalance",
      "outputs": [
        {
          "internalType": "uint256",
          "name": "",
          "type": "uint256"
        }
      ],
      "stateMutability": "view",
      "type": "function"
    },
    {
      "inputs": [
        {
          "internalType": "address",
          "name": "token",
          "type": "address"
        },
        {
          "internalType": "uint256",
          "name": "amount",
          "type": "uint256"
        },
        {
          "internalType": "uint256",
          "name": "accounts",
          "type": "uint256"
        },
        {
          "internalType": "address",
          "name": "liquidation",
          "type": "address"
        },
        {
          "internalType": "bytes",
          "name": "args",
          "type": "bytes"
        }
      ],
      "name": "createCollateralERC20",
      "outputs": [],
      "stateMutability": "nonpayable",
      "type": "function"
    },
    {
      "inputs": [
        {
          "internalType": "uint256",
          "name": "accounts",
          "type": "uint256"
        },
        {
          "internalType": "address",
          "name": "liquidation",
          "type": "address"
        },
        {
          "internalType": "bytes",
          "name": "args",
          "type": "bytes"
        }
      ],
      "name": "createCollateralETH",
      "outputs": [],
      "stateMutability": "payable",
      "type": "function"
    },
    {
      "inputs": [
        {
          "internalType": "address",
          "name": "account",
          "type": "address"
        }
      ],
      "name": "getOwnedCollaterals",
      "outputs": [
        {
          "internalType": "uint256[]",
          "name": "",
          "type": "uint256[]"
        }
      ],
      "stateMutability": "view",
      "type": "function"
    },
    {
      "inputs": [
        {
          "internalType": "address",
          "name": "to",
          "type": "address"
        },
        {
          "internalType": "uint256",
          "name": "id",
          "type": "uint256"
        },
        {
          "internalType": "uint256",
          "name": "index",
          "type": "uint256"
        }
      ],
      "name": "transfer",
      "outputs": [],
      "stateMutability": "nonpayable",
      "type": "function"
    },
    {
      "inputs": [
        {
          "internalType": "address",
          "name": "to",
          "type": "address"
        },
        {
          "internalType": "uint256",
          "name": "id",
          "type": "uint256"
        },
        {
          "internalType": "uint256",
          "name": "index",
          "type": "uint256"
        }
      ],
      "name": "approve",
      "outputs": [],
      "stateMutability": "nonpayable",
      "type": "function"
    },
    {
      "inputs": [
        {
          "internalType": "address",
          "name": "to",
          "type": "address"
        },
        {
          "internalType": "uint256",
          "name": "id",
          "type": "uint256"
        },
        {
          "internalType": "uint256",
          "name": "index",
          "type": "uint256"
        }
      ],
      "name": "transferFrom",
      "outputs": [],
      "stateMutability": "nonpayable",
      "type": "function"
    },
    {
      "inputs": [
        {
          "internalType": "uint256",
          "name": "id",
          "type": "uint256"
        },
        {
          "internalType": "uint256",
          "name": "index",
          "type": "uint256"
        }
      ],
      "name": "liquidate",
      "outputs": [],
      "stateMutability": "nonpayable",
      "type": "function"
    }
  ],
  "bytecode": "0x608060405234801561001057600080fd5b506124bf806100206000396000f3fe6080604052600436106100915760003560e01c8063426a849311610059578063426a8493146101b657806377dbbd76146101df578063acca7b6214610208578063d296d1f114610231578063d4f46a4c1461025a57610091565b806303547e5314610096578063095bcdb6146100d357806324c1173b146100fc578063287421401461013c57806330e0331514610179575b600080fd5b3480156100a257600080fd5b506100bd60048036038101906100b891906119b3565b610276565b6040516100ca9190611f9d565b60405180910390f35b3480156100df57600080fd5b506100fa60048036038101906100f591906119dc565b61028e565b005b34801561010857600080fd5b50610123600480360381019061011e9190611ae3565b61038b565b6040516101339493929190611e8a565b60405180910390f35b34801561014857600080fd5b50610163600480360381019061015e91906119b3565b610483565b6040516101709190611f1b565b60405180910390f35b34801561018557600080fd5b506101a0600480360381019061019b9190611b73565b61069d565b6040516101ad9190611e0f565b60405180910390f35b3480156101c257600080fd5b506101dd60048036038101906101d891906119dc565b6106df565b005b3480156101eb57600080fd5b50610206600480360381019061020191906119dc565b610833565b005b34801561021457600080fd5b5061022f600480360381019061022a9190611a2b565b610974565b005b34801561023d57600080fd5b5061025860048036038101906102539190611b73565b610a19565b005b610274600480360381019061026f9190611b0c565b610dee565b005b60006020528060005260406000206000915090505481565b3382828273ffffffffffffffffffffffffffffffffffffffff166002600084815260200190815260200160002060020182815481106102f6577f4e487b7100000000000000000000000000000000000000000000000000000000600052603260045260246000fd5b9060005260206000200160009054906101000a900473ffffffffffffffffffffffffffffffffffffffff1673ffffffffffffffffffffffffffffffffffffffff1614610377576040517f08c379a000000000000000000000000000000000000000000000000000000000815260040161036e90611f3d565b60405180910390fd5b61038333878787610e02565b505050505050565b60026020528060005260406000206000915090508060000160009054906101000a900473ffffffffffffffffffffffffffffffffffffffff16908060010154908060030160009054906101000a900473ffffffffffffffffffffffffffffffffffffffff16908060040180546104009061221f565b80601f016020809104026020016040519081016040528092919081815260200182805461042c9061221f565b80156104795780601f1061044e57610100808354040283529160200191610479565b820191906000526020600020905b81548152906001019060200180831161045c57829003601f168201915b5050505050905084565b606060008060008473ffffffffffffffffffffffffffffffffffffffff1673ffffffffffffffffffffffffffffffffffffffff1681526020019081526020016000205467ffffffffffffffff811115610505577f4e487b7100000000000000000000000000000000000000000000000000000000600052604160045260246000fd5b6040519080825280602002602001820160405280156105335781602001602082028036833780820191505090505b5090506000805b6003548110156106925760005b600260008381526020019081526020016000206002018054905081101561067e578573ffffffffffffffffffffffffffffffffffffffff166002600084815260200190815260200160002060020182815481106105cd577f4e487b7100000000000000000000000000000000000000000000000000000000600052603260045260246000fd5b9060005260206000200160009054906101000a900473ffffffffffffffffffffffffffffffffffffffff1673ffffffffffffffffffffffffffffffffffffffff16141561066b57818484806106219061229c565b95508151811061065a577f4e487b7100000000000000000000000000000000000000000000000000000000600052603260045260246000fd5b60200260200101818152505061067e565b80806106769061229c565b915050610547565b50808061068a9061229c565b91505061053a565b508192505050919050565b60016020528160005260406000206020528060005260406000206000915091509054906101000a900473ffffffffffffffffffffffffffffffffffffffff1681565b3382828273ffffffffffffffffffffffffffffffffffffffff16600260008481526020019081526020016000206002018281548110610747577f4e487b7100000000000000000000000000000000000000000000000000000000600052603260045260246000fd5b9060005260206000200160009054906101000a900473ffffffffffffffffffffffffffffffffffffffff1673ffffffffffffffffffffffffffffffffffffffff16146107c8576040517f08c379a00000000000000000000000000000000000000000000000000000000081526004016107bf90611f3d565b60405180910390fd5b8560016000878152602001908152602001600020600086815260200190815260200160002060006101000a81548173ffffffffffffffffffffffffffffffffffffffff021916908373ffffffffffffffffffffffffffffffffffffffff160217905550505050505050565b3373ffffffffffffffffffffffffffffffffffffffff1660016000848152602001908152602001600020600083815260200190815260200160002060009054906101000a900473ffffffffffffffffffffffffffffffffffffffff1673ffffffffffffffffffffffffffffffffffffffff16146108e5576040517f08c379a00000000000000000000000000000000000000000000000000000000081526004016108dc90611f5d565b60405180910390fd5b6000600260008481526020019081526020016000206002018281548110610935577f4e487b7100000000000000000000000000000000000000000000000000000000600052603260045260246000fd5b9060005260206000200160009054906101000a900473ffffffffffffffffffffffffffffffffffffffff16905061096e81858585610e02565b50505050565b8473ffffffffffffffffffffffffffffffffffffffff166323b872dd3330876040518463ffffffff1660e01b81526004016109b193929190611e2a565b602060405180830381600087803b1580156109cb57600080fd5b505af11580156109df573d6000803e3d6000fd5b505050506040513d601f19601f82011682018060405250810190610a039190611aba565b50610a12338686868686611139565b5050505050565b3382828273ffffffffffffffffffffffffffffffffffffffff16600260008481526020019081526020016000206002018281548110610a81577f4e487b7100000000000000000000000000000000000000000000000000000000600052603260045260246000fd5b9060005260206000200160009054906101000a900473ffffffffffffffffffffffffffffffffffffffff1673ffffffffffffffffffffffffffffffffffffffff1614610b02576040517f08c379a0000000000000000000000000000000000000000000000000000000008152600401610af990611f3d565b60405180910390fd5b6002600086815260200190815260200160002060030160009054906101000a900473ffffffffffffffffffffffffffffffffffffffff1673ffffffffffffffffffffffffffffffffffffffff16630ff648f86002600088815260200190815260200160002060020186600260008a81526020019081526020016000206004016040518463ffffffff1660e01b8152600401610b9f93929190611ed6565b602060405180830381600087803b158015610bb957600080fd5b505af1158015610bcd573d6000803e3d6000fd5b505050506040513d601f19601f82011682018060405250810190610bf19190611aba565b610c30576040517f08c379a0000000000000000000000000000000000000000000000000000000008152600401610c2790611f7d565b60405180910390fd5b600073ffffffffffffffffffffffffffffffffffffffff166002600087815260200190815260200160002060000160009054906101000a900473ffffffffffffffffffffffffffffffffffffffff1673ffffffffffffffffffffffffffffffffffffffff161415610d035760003390508073ffffffffffffffffffffffffffffffffffffffff166108fc60026000898152602001908152602001600020600101549081150290604051600060405180830381858888f19350505050158015610cfc573d6000803e3d6000fd5b5050610dde565b6002600086815260200190815260200160002060000160009054906101000a900473ffffffffffffffffffffffffffffffffffffffff1673ffffffffffffffffffffffffffffffffffffffff1663a9059cbb3360026000898152602001908152602001600020600101546040518363ffffffff1660e01b8152600401610d8a929190611e61565b602060405180830381600087803b158015610da457600080fd5b505af1158015610db8573d6000803e3d6000fd5b505050506040513d601f19601f82011682018060405250810190610ddc9190611aba565b505b610de78561142e565b5050505050565b610dfd33600034868686611139565b505050565b60006001905060005b6002600085815260200190815260200160002060020180549050811015610ef0578473ffffffffffffffffffffffffffffffffffffffff16600260008681526020019081526020016000206002018281548110610e91577f4e487b7100000000000000000000000000000000000000000000000000000000600052603260045260246000fd5b9060005260206000200160009054906101000a900473ffffffffffffffffffffffffffffffffffffffff1673ffffffffffffffffffffffffffffffffffffffff161415610edd57600091505b8080610ee89061229c565b915050610e0b565b5083600260008581526020019081526020016000206002018381548110610f40577f4e487b7100000000000000000000000000000000000000000000000000000000600052603260045260246000fd5b9060005260206000200160006101000a81548173ffffffffffffffffffffffffffffffffffffffff021916908373ffffffffffffffffffffffffffffffffffffffff16021790555060006001905060005b6002600086815260200190815260200160002060020180549050811015611076578573ffffffffffffffffffffffffffffffffffffffff16600260008781526020019081526020016000206002018281548110611017577f4e487b7100000000000000000000000000000000000000000000000000000000600052603260045260246000fd5b9060005260206000200160009054906101000a900473ffffffffffffffffffffffffffffffffffffffff1673ffffffffffffffffffffffffffffffffffffffff16141561106357600091505b808061106e9061229c565b915050610f91565b5081156110d45760016000808773ffffffffffffffffffffffffffffffffffffffff1673ffffffffffffffffffffffffffffffffffffffff16815260200190815260200160002060008282546110cc91906120c7565b925050819055505b80156111315760016000808873ffffffffffffffffffffffffffffffffffffffff1673ffffffffffffffffffffffffffffffffffffffff1681526020019081526020016000206000828254611129919061211d565b925050819055505b505050505050565b60008367ffffffffffffffff81111561117b577f4e487b7100000000000000000000000000000000000000000000000000000000600052604160045260246000fd5b6040519080825280602002602001820160405280156111a95781602001602082028036833780820191505090505b50905060005b8481101561123e57878282815181106111f1577f4e487b7100000000000000000000000000000000000000000000000000000000600052603260045260246000fd5b602002602001019073ffffffffffffffffffffffffffffffffffffffff16908173ffffffffffffffffffffffffffffffffffffffff168152505080806112369061229c565b9150506111af565b506040518060a001604052808773ffffffffffffffffffffffffffffffffffffffff1681526020018681526020018281526020018473ffffffffffffffffffffffffffffffffffffffff1681526020018381525060026000600354815260200190815260200160002060008201518160000160006101000a81548173ffffffffffffffffffffffffffffffffffffffff021916908373ffffffffffffffffffffffffffffffffffffffff16021790555060208201518160010155604082015181600201908051906020019061131492919061177e565b5060608201518160030160006101000a81548173ffffffffffffffffffffffffffffffffffffffff021916908373ffffffffffffffffffffffffffffffffffffffff1602179055506080820151816004019080519060200190611378929190611808565b5090505060016000808973ffffffffffffffffffffffffffffffffffffffff1673ffffffffffffffffffffffffffffffffffffffff16815260200190815260200160002060008282546113cb91906120c7565b925050819055507f0ce3610e89a4bb9ec9359763f99110ed52a4abaea0b62028a1637e242ca2768b87600354604051611405929190611e61565b60405180910390a1600360008154809291906114209061229c565b919050555050505050505050565b60005b60026000838152602001908152602001600020600201805490508110156116ee5760006002600084815260200190815260200160002060020182815481106114a2577f4e487b7100000000000000000000000000000000000000000000000000000000600052603260045260246000fd5b9060005260206000200160009054906101000a900473ffffffffffffffffffffffffffffffffffffffff16905060008290505b600260008581526020019081526020016000206002018054905081101561164e578173ffffffffffffffffffffffffffffffffffffffff1660026000868152602001908152602001600020600201828154811061155b577f4e487b7100000000000000000000000000000000000000000000000000000000600052603260045260246000fd5b9060005260206000200160009054906101000a900473ffffffffffffffffffffffffffffffffffffffff1673ffffffffffffffffffffffffffffffffffffffff16141561163b5760006002600086815260200190815260200160002060020182815481106115f2577f4e487b7100000000000000000000000000000000000000000000000000000000600052603260045260246000fd5b9060005260206000200160006101000a81548173ffffffffffffffffffffffffffffffffffffffff021916908373ffffffffffffffffffffffffffffffffffffffff1602179055505b80806116469061229c565b9150506114d5565b50600073ffffffffffffffffffffffffffffffffffffffff168173ffffffffffffffffffffffffffffffffffffffff16146116da5760016000808373ffffffffffffffffffffffffffffffffffffffff1673ffffffffffffffffffffffffffffffffffffffff16815260200190815260200160002060008282546116d2919061211d565b925050819055505b5080806116e69061229c565b915050611431565b5060026000828152602001908152602001600020600080820160006101000a81549073ffffffffffffffffffffffffffffffffffffffff02191690556001820160009055600282016000611742919061188e565b6003820160006101000a81549073ffffffffffffffffffffffffffffffffffffffff021916905560048201600061177991906118af565b505050565b8280548282559060005260206000209081019282156117f7579160200282015b828111156117f65782518260006101000a81548173ffffffffffffffffffffffffffffffffffffffff021916908373ffffffffffffffffffffffffffffffffffffffff1602179055509160200191906001019061179e565b5b50905061180491906118ef565b5090565b8280546118149061221f565b90600052602060002090601f016020900481019282611836576000855561187d565b82601f1061184f57805160ff191683800117855561187d565b8280016001018555821561187d579182015b8281111561187c578251825591602001919060010190611861565b5b50905061188a91906118ef565b5090565b50805460008255906000526020600020908101906118ac91906118ef565b50565b5080546118bb9061221f565b6000825580601f106118cd57506118ec565b601f0160209004906000526020600020908101906118eb91906118ef565b5b50565b5b808211156119085760008160009055506001016118f0565b5090565b600061191f61191a84611fdd565b611fb8565b90508281526020810184848401111561193757600080fd5b6119428482856121dd565b509392505050565b60008135905061195981612444565b92915050565b60008151905061196e8161245b565b92915050565b600082601f83011261198557600080fd5b813561199584826020860161190c565b91505092915050565b6000813590506119ad81612472565b92915050565b6000602082840312156119c557600080fd5b60006119d38482850161194a565b91505092915050565b6000806000606084860312156119f157600080fd5b60006119ff8682870161194a565b9350506020611a108682870161199e565b9250506040611a218682870161199e565b9150509250925092565b600080600080600060a08688031215611a4357600080fd5b6000611a518882890161194a565b9550506020611a628882890161199e565b9450506040611a738882890161199e565b9350506060611a848882890161194a565b925050608086013567ffffffffffffffff811115611aa157600080fd5b611aad88828901611974565b9150509295509295909350565b600060208284031215611acc57600080fd5b6000611ada8482850161195f565b91505092915050565b600060208284031215611af557600080fd5b6000611b038482850161199e565b91505092915050565b600080600060608486031215611b2157600080fd5b6000611b2f8682870161199e565b9350506020611b408682870161194a565b925050604084013567ffffffffffffffff811115611b5d57600080fd5b611b6986828701611974565b9150509250925092565b60008060408385031215611b8657600080fd5b6000611b948582860161199e565b9250506020611ba58582860161199e565b9150509250929050565b6000611bbb8383611bdf565b60208301905092915050565b6000611bd38383611df1565b60208301905092915050565b611be881612171565b82525050565b611bf781612171565b82525050565b6000611c0882612048565b611c128185612083565b9350611c1d8361200e565b8060005b83811015611c5557611c3282612372565b611c3c8882611baf565b9750611c4783612069565b925050600181019050611c21565b5085935050505092915050565b6000611c6d82612053565b611c778185612094565b9350611c8283612023565b8060005b83811015611cb3578151611c9a8882611bc7565b9750611ca583612076565b925050600181019050611c86565b5085935050505092915050565b6000611ccb8261205e565b611cd581856120a5565b9350611ce58185602086016121ec565b611cee81612385565b840191505092915050565b60008154611d068161221f565b611d1081866120a5565b94506001821660008114611d2b5760018114611d3d57611d70565b60ff1983168652602086019350611d70565b611d4685612033565b60005b83811015611d6857815481890152600182019150602081019050611d49565b808801955050505b50505092915050565b611d82816121b9565b82525050565b6000611d956020836120b6565b9150611da0826123a3565b602082019050919050565b6000611db86027836120b6565b9150611dc3826123cc565b604082019050919050565b6000611ddb601d836120b6565b9150611de68261241b565b602082019050919050565b611dfa816121af565b82525050565b611e09816121af565b82525050565b6000602082019050611e246000830184611bee565b92915050565b6000606082019050611e3f6000830186611bee565b611e4c6020830185611bee565b611e596040830184611e00565b949350505050565b6000604082019050611e766000830185611bee565b611e836020830184611e00565b9392505050565b6000608082019050611e9f6000830187611bee565b611eac6020830186611e00565b611eb96040830185611d79565b8181036060830152611ecb8184611cc0565b905095945050505050565b60006060820190508181036000830152611ef08186611bfd565b9050611eff6020830185611e00565b8181036040830152611f118184611cf9565b9050949350505050565b60006020820190508181036000830152611f358184611c62565b905092915050565b60006020820190508181036000830152611f5681611d88565b9050919050565b60006020820190508181036000830152611f7681611dab565b9050919050565b60006020820190508181036000830152611f9681611dce565b9050919050565b6000602082019050611fb26000830184611e00565b92915050565b6000611fc2611fd3565b9050611fce828261226b565b919050565b6000604051905090565b600067ffffffffffffffff821115611ff857611ff7612343565b5b61200182612385565b9050602081019050919050565b60008190508160005260206000209050919050565b6000819050602082019050919050565b60008190508160005260206000209050919050565b600081549050919050565b600081519050919050565b600081519050919050565b6000600182019050919050565b6000602082019050919050565b600082825260208201905092915050565b600082825260208201905092915050565b600082825260208201905092915050565b600082825260208201905092915050565b60006120d2826121af565b91506120dd836121af565b9250827fffffffffffffffffffffffffffffffffffffffffffffffffffffffffffffffff03821115612112576121116122e5565b5b828201905092915050565b6000612128826121af565b9150612133836121af565b925082821015612146576121456122e5565b5b828203905092915050565b600073ffffffffffffffffffffffffffffffffffffffff82169050919050565b600061217c8261218f565b9050919050565b60008115159050919050565b600073ffffffffffffffffffffffffffffffffffffffff82169050919050565b6000819050919050565b60006121c4826121cb565b9050919050565b60006121d68261218f565b9050919050565b82818337600083830152505050565b60005b8381101561220a5780820151818401526020810190506121ef565b83811115612219576000848401525b50505050565b6000600282049050600182168061223757607f821691505b6020821081141561224b5761224a612314565b5b50919050565b600061226461225f83612396565b612151565b9050919050565b61227482612385565b810181811067ffffffffffffffff8211171561229357612292612343565b5b80604052505050565b60006122a7826121af565b91507fffffffffffffffffffffffffffffffffffffffffffffffffffffffffffffffff8214156122da576122d96122e5565b5b600182019050919050565b7f4e487b7100000000000000000000000000000000000000000000000000000000600052601160045260246000fd5b7f4e487b7100000000000000000000000000000000000000000000000000000000600052602260045260246000fd5b7f4e487b7100000000000000000000000000000000000000000000000000000000600052604160045260246000fd5b600061237e8254612251565b9050919050565b6000601f19601f8301169050919050565b60008160001c9050919050565b7f4f776e657273686970206372697465726961206e6f742066756c66696c6c6564600082015250565b7f596f752068617665206e6f74206265656e20617070726f76656420746f20747260008201527f616e736665722e00000000000000000000000000000000000000000000000000602082015250565b7f4c69717569646174696f6e206372697465726961206e6f74206d65742e000000600082015250565b61244d81612171565b811461245857600080fd5b50565b61246481612183565b811461246f57600080fd5b50565b61247b816121af565b811461248657600080fd5b5056fea26469706673582212204cac0bb711ed3db9e602707eab63b241791b5974684144a77dbec91001cbca7864736f6c63430008030033",
  "immutableReferences": {},
  "source": "pragma solidity ^0.8.3;\r\n\r\nimport \"@openzeppelin/contracts/token/ERC20/IERC20.sol\"; \r\nimport \"./ILiquidationCheck.sol\"; \r\n\r\ncontract Collateralize {\r\n\r\n    event Created(address from, uint256 id);\r\n    event Transfer(address from, address to, uint256 id);\r\n    event Liquidated(address by, uint256 id);\r\n\r\n    struct Collateral {\r\n        address token; \r\n        uint256 amount;\r\n        address[] accounts;\r\n        ILiquidationCheck liquidation;\r\n        bytes args;\r\n    }\r\n\r\n    mapping(address => uint256) public ownedBalance; \r\n    mapping(uint256 => mapping(uint256=>address)) public collateralApprovals; \r\n    mapping(uint256 => Collateral) public collaterals;\r\n\r\n    uint256 _counter;\r\n\r\n    constructor() {\r\n    }\r\n\r\n    modifier isOwner(address caller, uint256 id, uint256 index) {\r\n        require(collaterals[id].accounts[index] == caller, \"Ownership criteria not fulfilled\");\r\n        _;\r\n    }\r\n\r\n\r\n    function createCollateralERC20(address token, uint256 amount, uint256 accounts, address liquidation, bytes memory args) external {\r\n        IERC20(token).transferFrom(msg.sender, address(this), amount); \r\n        _create(msg.sender, token, amount, accounts, liquidation, args);\r\n    }\r\n\r\n    function createCollateralETH(uint256 accounts, address liquidation, bytes memory args) external payable {\r\n        _create(msg.sender, address(0), msg.value, accounts, liquidation, args);\r\n    }\r\n\r\n    function getOwnedCollaterals(address account) external view returns(uint256[] memory) {\r\n        uint256[] memory idList = new uint256[](ownedBalance[account]); \r\n        uint256 counter = 0;\r\n        for (uint i = 0; i<_counter; i++) {\r\n            for (uint j = 0; j < collaterals[i].accounts.length; j++) {\r\n                if (collaterals[i].accounts[j] == account) {\r\n                    idList[counter++] = i;\r\n                    break;\r\n                } \r\n            }\r\n        }\r\n        return idList;\r\n    }\r\n\r\n    function transfer(address to, uint256 id, uint256 index) isOwner(msg.sender, id, index) public {\r\n        _transfer(msg.sender, to, id, index);\r\n    }\r\n\r\n    function approve(address to, uint256 id, uint256 index) isOwner(msg.sender, id, index) public {\r\n        collateralApprovals[id][index] = to;\r\n    }\r\n\r\n    function transferFrom(address to, uint256 id, uint256 index) public {\r\n        require(collateralApprovals[id][index] == msg.sender, \"You have not been approved to transfer.\"); \r\n        address previousOwner = collaterals[id].accounts[index];\r\n        _transfer(previousOwner, to, id, index);\r\n    }\r\n\r\n    function liquidate(uint256 id, uint256 index) isOwner(msg.sender, id, index) public {\r\n        require(ILiquidationCheck(collaterals[id].liquidation)\r\n        .liquidationCheck(\r\n            collaterals[id].accounts, \r\n            index, \r\n            collaterals[id].args), \"Liquidation criteria not met.\");\r\n        if (collaterals[id].token == address(0)) {\r\n            address payable recepient = payable(msg.sender);\r\n            recepient.transfer(collaterals[id].amount);\r\n        } else {\r\n            IERC20(collaterals[id].token).transfer(msg.sender, collaterals[id].amount);\r\n        }\r\n        _remove(id);\r\n    }\r\n\r\n    function _transfer(address from, address to, uint256 id, uint256 index) internal {\r\n        bool gainedOwnership = true;\r\n        for (uint i = 0; i < collaterals[id].accounts.length; i++) {\r\n            if (collaterals[id].accounts[i] == to) {\r\n                gainedOwnership = false;\r\n            }\r\n        }\r\n        collaterals[id].accounts[index] = to;\r\n        bool lostOwnership = true;\r\n        for (uint i = 0; i < collaterals[id].accounts.length; i++) {\r\n            if (collaterals[id].accounts[i] == to) {\r\n                lostOwnership = false;\r\n            }\r\n        }\r\n        if (gainedOwnership) ownedBalance[to] += 1;\r\n        if (lostOwnership) ownedBalance[from] -= 1;\r\n    }\r\n\r\n    function _create(address from, address token, uint256 amount, uint256 accounts, address liquidation, bytes memory args) internal {\r\n        address[] memory holders = new address[](accounts);\r\n        for (uint i = 0; i < accounts; i++) holders[i] = from; \r\n        collaterals[_counter] = Collateral(\r\n            token, amount, holders, ILiquidationCheck(liquidation), args\r\n        );\r\n        ownedBalance[from] += 1;\r\n        emit Created(from, _counter);\r\n        _counter++;\r\n    }\r\n\r\n    function _remove(uint256 id) internal {\r\n        for (uint i = 0; i < collaterals[id].accounts.length; i++) {\r\n            address owner = collaterals[id].accounts[i];\r\n            for (uint j = i; j < collaterals[id].accounts.length; j++) {\r\n                if (collaterals[id].accounts[j] == owner) collaterals[id].accounts[j] = address(0); \r\n            }\r\n            if (owner != address(0)) ownedBalance[owner] -= 1;\r\n        }\r\n        delete collaterals[id]; \r\n    }\r\n\r\n\r\n}",
  "sourcePath": "C:/Users/Kuan/Documents/GitHub/collaterize/contracts/Collaterize.sol",
  "compiler": {
    "name": "solc",
    "version": "0.8.3+commit.8d00100c.Emscripten.clang"
  },
  "schemaVersion": "3.3.4",
  "updatedAt": "2021-06-22T04:46:56.928Z",
  "devdoc": {
    "kind": "dev",
    "methods": {},
    "version": 1
  },
  "userdoc": {
    "kind": "user",
    "methods": {},
    "version": 1
  }
}