{
  "contractName": "Collaterize",
  "abi": [
    {
      "inputs": [],
      "stateMutability": "nonpayable",
      "type": "constructor"
    },
    {
      "anonymous": false,
      "inputs": [
        {
          "indexed": false,
          "internalType": "address",
          "name": "from",
          "type": "address"
        },
        {
          "indexed": false,
          "internalType": "uint256",
          "name": "id",
          "type": "uint256"
        }
      ],
      "name": "Created",
      "type": "event"
    },
    {
      "anonymous": false,
      "inputs": [
        {
          "indexed": false,
          "internalType": "address",
          "name": "by",
          "type": "address"
        },
        {
          "indexed": false,
          "internalType": "uint256",
          "name": "id",
          "type": "uint256"
        }
      ],
      "name": "Liquidated",
      "type": "event"
    },
    {
      "anonymous": false,
      "inputs": [
        {
          "indexed": false,
          "internalType": "address",
          "name": "from",
          "type": "address"
        },
        {
          "indexed": false,
          "internalType": "address",
          "name": "to",
          "type": "address"
        },
        {
          "indexed": false,
          "internalType": "uint256",
          "name": "id",
          "type": "uint256"
        }
      ],
      "name": "Transfer",
      "type": "event"
    },
    {
      "inputs": [
        {
          "internalType": "uint256",
          "name": "",
          "type": "uint256"
        }
      ],
      "name": "collateralApprovals",
      "outputs": [
        {
          "internalType": "address",
          "name": "",
          "type": "address"
        }
      ],
      "stateMutability": "view",
      "type": "function",
      "constant": true
    },
    {
      "inputs": [
        {
          "internalType": "uint256",
          "name": "",
          "type": "uint256"
        }
      ],
      "name": "collateralCreators",
      "outputs": [
        {
          "internalType": "address",
          "name": "",
          "type": "address"
        }
      ],
      "stateMutability": "view",
      "type": "function",
      "constant": true
    },
    {
      "inputs": [
        {
          "internalType": "uint256",
          "name": "",
          "type": "uint256"
        }
      ],
      "name": "collateralOwners",
      "outputs": [
        {
          "internalType": "address",
          "name": "",
          "type": "address"
        }
      ],
      "stateMutability": "view",
      "type": "function",
      "constant": true
    },
    {
      "inputs": [
        {
          "internalType": "uint256",
          "name": "",
          "type": "uint256"
        }
      ],
      "name": "collaterals",
      "outputs": [
        {
          "internalType": "address",
          "name": "token",
          "type": "address"
        },
        {
          "internalType": "uint256",
          "name": "amount",
          "type": "uint256"
        },
        {
          "internalType": "contract ILiquidationCheck",
          "name": "liquidation",
          "type": "address"
        },
        {
          "internalType": "bytes",
          "name": "args",
          "type": "bytes"
        }
      ],
      "stateMutability": "view",
      "type": "function",
      "constant": true
    },
    {
      "inputs": [
        {
          "internalType": "address",
          "name": "",
          "type": "address"
        }
      ],
      "name": "createdBalance",
      "outputs": [
        {
          "internalType": "uint256",
          "name": "",
          "type": "uint256"
        }
      ],
      "stateMutability": "view",
      "type": "function",
      "constant": true
    },
    {
      "inputs": [
        {
          "internalType": "address",
          "name": "",
          "type": "address"
        }
      ],
      "name": "ownedBalance",
      "outputs": [
        {
          "internalType": "uint256",
          "name": "",
          "type": "uint256"
        }
      ],
      "stateMutability": "view",
      "type": "function",
      "constant": true
    },
    {
      "inputs": [
        {
          "internalType": "address",
          "name": "to",
          "type": "address"
        },
        {
          "internalType": "address",
          "name": "token",
          "type": "address"
        },
        {
          "internalType": "uint256",
          "name": "amount",
          "type": "uint256"
        },
        {
          "internalType": "address",
          "name": "liquidationCheck",
          "type": "address"
        },
        {
          "internalType": "bytes",
          "name": "args",
          "type": "bytes"
        }
      ],
      "name": "createCollateralERC20",
      "outputs": [],
      "stateMutability": "nonpayable",
      "type": "function"
    },
    {
      "inputs": [
        {
          "internalType": "address",
          "name": "to",
          "type": "address"
        },
        {
          "internalType": "address",
          "name": "liquidationCheck",
          "type": "address"
        },
        {
          "internalType": "bytes",
          "name": "args",
          "type": "bytes"
        }
      ],
      "name": "createCollateralETH",
      "outputs": [],
      "stateMutability": "payable",
      "type": "function",
      "payable": true
    },
    {
      "inputs": [
        {
          "internalType": "address",
          "name": "account",
          "type": "address"
        }
      ],
      "name": "getCreatedCollaterals",
      "outputs": [
        {
          "internalType": "uint256[]",
          "name": "",
          "type": "uint256[]"
        }
      ],
      "stateMutability": "view",
      "type": "function",
      "constant": true
    },
    {
      "inputs": [
        {
          "internalType": "address",
          "name": "account",
          "type": "address"
        }
      ],
      "name": "getOwnedCollaterals",
      "outputs": [
        {
          "internalType": "uint256[]",
          "name": "",
          "type": "uint256[]"
        }
      ],
      "stateMutability": "view",
      "type": "function",
      "constant": true
    },
    {
      "inputs": [
        {
          "internalType": "address",
          "name": "to",
          "type": "address"
        },
        {
          "internalType": "uint256",
          "name": "id",
          "type": "uint256"
        }
      ],
      "name": "transfer",
      "outputs": [],
      "stateMutability": "nonpayable",
      "type": "function"
    },
    {
      "inputs": [
        {
          "internalType": "address",
          "name": "to",
          "type": "address"
        },
        {
          "internalType": "uint256",
          "name": "id",
          "type": "uint256"
        }
      ],
      "name": "approve",
      "outputs": [],
      "stateMutability": "nonpayable",
      "type": "function"
    },
    {
      "inputs": [
        {
          "internalType": "address",
          "name": "to",
          "type": "address"
        },
        {
          "internalType": "uint256",
          "name": "id",
          "type": "uint256"
        }
      ],
      "name": "transferFrom",
      "outputs": [],
      "stateMutability": "nonpayable",
      "type": "function"
    },
    {
      "inputs": [
        {
          "internalType": "uint256",
          "name": "id",
          "type": "uint256"
        }
      ],
      "name": "liquidate",
      "outputs": [],
      "stateMutability": "nonpayable",
      "type": "function"
    }
  ],
  "bytecode": "0x608060405234801561001057600080fd5b50611fd5806100206000396000f3fe6080604052600436106100dd5760003560e01c8063415f12401161007f578063a9059cbb11610059578063a9059cbb146102ea578063cf2f8e3214610313578063d8739da414610350578063dd8afec514610379576100dd565b8063415f1240146102685780639f54fc0a14610291578063a2bb82d6146102ce576100dd565b8063095ea7b3116100bb578063095ea7b3146101855780630ca5c275146101ae57806324c1173b146101eb578063287421401461022b576100dd565b806301c6adc3146100e2578063034076971461010b57806303547e5314610148575b600080fd5b3480156100ee57600080fd5b50610109600480360381019061010491906118dd565b6103b6565b005b34801561011757600080fd5b50610132600480360381019061012d9190611942565b6105af565b60405161013f9190611ad6565b60405180910390f35b34801561015457600080fd5b5061016f600480360381019061016a91906117be565b6105e2565b60405161017c9190611bfd565b60405180910390f35b34801561019157600080fd5b506101ac60048036038101906101a791906118dd565b6105fa565b005b3480156101ba57600080fd5b506101d560048036038101906101d091906117be565b6106bb565b6040516101e29190611bdb565b60405180910390f35b3480156101f757600080fd5b50610212600480360381019061020d9190611942565b610854565b6040516102229493929190611b8f565b60405180910390f35b34801561023757600080fd5b50610252600480360381019061024d91906117be565b61094c565b60405161025f9190611bdb565b60405180910390f35b34801561027457600080fd5b5061028f600480360381019061028a9190611942565b610ae6565b005b34801561029d57600080fd5b506102b860048036038101906102b39190611942565b610ef3565b6040516102c59190611ad6565b60405180910390f35b6102e860048036038101906102e391906117e7565b610f26565b005b3480156102f657600080fd5b50610311600480360381019061030c91906118dd565b610f96565b005b34801561031f57600080fd5b5061033a600480360381019061033591906117be565b611103565b6040516103479190611bfd565b60405180910390f35b34801561035c57600080fd5b506103776004803603810190610372919061184e565b61111b565b005b34801561038557600080fd5b506103a0600480360381019061039b9190611942565b61121c565b6040516103ad9190611ad6565b60405180910390f35b3373ffffffffffffffffffffffffffffffffffffffff166004600083815260200190815260200160002060009054906101000a900473ffffffffffffffffffffffffffffffffffffffff1673ffffffffffffffffffffffffffffffffffffffff161461042157600080fd5b60006002600083815260200190815260200160002060009054906101000a900473ffffffffffffffffffffffffffffffffffffffff169050826002600084815260200190815260200160002060006101000a81548173ffffffffffffffffffffffffffffffffffffffff021916908373ffffffffffffffffffffffffffffffffffffffff16021790555060006004600084815260200190815260200160002060006101000a81548173ffffffffffffffffffffffffffffffffffffffff021916908373ffffffffffffffffffffffffffffffffffffffff16021790555060018060008373ffffffffffffffffffffffffffffffffffffffff1673ffffffffffffffffffffffffffffffffffffffff168152602001908152602001600020600082825461054d9190611d2e565b9250508190555060018060008573ffffffffffffffffffffffffffffffffffffffff1673ffffffffffffffffffffffffffffffffffffffff16815260200190815260200160002060008282546105a39190611cd8565b92505081905550505050565b60046020528060005260406000206000915054906101000a900473ffffffffffffffffffffffffffffffffffffffff1681565b60016020528060005260406000206000915090505481565b3373ffffffffffffffffffffffffffffffffffffffff166002600083815260200190815260200160002060009054906101000a900473ffffffffffffffffffffffffffffffffffffffff1673ffffffffffffffffffffffffffffffffffffffff161461066557600080fd5b816004600083815260200190815260200160002060006101000a81548173ffffffffffffffffffffffffffffffffffffffff021916908373ffffffffffffffffffffffffffffffffffffffff1602179055505050565b606060008060008473ffffffffffffffffffffffffffffffffffffffff1673ffffffffffffffffffffffffffffffffffffffff1681526020019081526020016000205467ffffffffffffffff81111561073d577f4e487b7100000000000000000000000000000000000000000000000000000000600052604160045260246000fd5b60405190808252806020026020018201604052801561076b5781602001602082028036833780820191505090505b5090506000805b600654811015610849578473ffffffffffffffffffffffffffffffffffffffff166003600083815260200190815260200160002060009054906101000a900473ffffffffffffffffffffffffffffffffffffffff1673ffffffffffffffffffffffffffffffffffffffff16141561083657808383806107f090611e73565b945081518110610829577f4e487b7100000000000000000000000000000000000000000000000000000000600052603260045260246000fd5b6020026020010181815250505b808061084190611e73565b915050610772565b508192505050919050565b60056020528060005260406000206000915090508060000160009054906101000a900473ffffffffffffffffffffffffffffffffffffffff16908060010154908060020160009054906101000a900473ffffffffffffffffffffffffffffffffffffffff16908060030180546108c990611e10565b80601f01602080910402602001604051908101604052809291908181526020018280546108f590611e10565b80156109425780601f1061091757610100808354040283529160200191610942565b820191906000526020600020905b81548152906001019060200180831161092557829003601f168201915b5050505050905084565b60606000600160008473ffffffffffffffffffffffffffffffffffffffff1673ffffffffffffffffffffffffffffffffffffffff1681526020019081526020016000205467ffffffffffffffff8111156109cf577f4e487b7100000000000000000000000000000000000000000000000000000000600052604160045260246000fd5b6040519080825280602002602001820160405280156109fd5781602001602082028036833780820191505090505b5090506000805b600654811015610adb578473ffffffffffffffffffffffffffffffffffffffff166002600083815260200190815260200160002060009054906101000a900473ffffffffffffffffffffffffffffffffffffffff1673ffffffffffffffffffffffffffffffffffffffff161415610ac85780838380610a8290611e73565b945081518110610abb577f4e487b7100000000000000000000000000000000000000000000000000000000600052603260045260246000fd5b6020026020010181815250505b8080610ad390611e73565b915050610a04565b508192505050919050565b3373ffffffffffffffffffffffffffffffffffffffff166002600083815260200190815260200160002060009054906101000a900473ffffffffffffffffffffffffffffffffffffffff1673ffffffffffffffffffffffffffffffffffffffff1614610b5157600080fd5b3373ffffffffffffffffffffffffffffffffffffffff166003600083815260200190815260200160002060009054906101000a900473ffffffffffffffffffffffffffffffffffffffff1673ffffffffffffffffffffffffffffffffffffffff161480610cfa57506005600082815260200190815260200160002060020160009054906101000a900473ffffffffffffffffffffffffffffffffffffffff1673ffffffffffffffffffffffffffffffffffffffff1663c1637f856003600084815260200190815260200160002060009054906101000a900473ffffffffffffffffffffffffffffffffffffffff166002600085815260200190815260200160002060009054906101000a900473ffffffffffffffffffffffffffffffffffffffff16600560008681526020019081526020016000206003016040518463ffffffff1660e01b8152600401610ca793929190611af1565b602060405180830381600087803b158015610cc157600080fd5b505af1158015610cd5573d6000803e3d6000fd5b505050506040513d601f19601f82011682018060405250810190610cf99190611919565b5b15610ef057600073ffffffffffffffffffffffffffffffffffffffff166005600083815260200190815260200160002060000160009054906101000a900473ffffffffffffffffffffffffffffffffffffffff1673ffffffffffffffffffffffffffffffffffffffff161415610dd25760003390508073ffffffffffffffffffffffffffffffffffffffff166108fc60056000858152602001908152602001600020600101549081150290604051600060405180830381858888f19350505050158015610dcb573d6000803e3d6000fd5b5050610ead565b6005600082815260200190815260200160002060000160009054906101000a900473ffffffffffffffffffffffffffffffffffffffff1673ffffffffffffffffffffffffffffffffffffffff1663a9059cbb3360056000858152602001908152602001600020600101546040518363ffffffff1660e01b8152600401610e59929190611b66565b602060405180830381600087803b158015610e7357600080fd5b505af1158015610e87573d6000803e3d6000fd5b505050506040513d601f19601f82011682018060405250810190610eab9190611919565b505b610eb68161124f565b7fa5ee7a2b0254fce91deed604506790ed7fa072d0b14cba4859c3bc8955b9caac3382604051610ee7929190611b66565b60405180910390a15b50565b60026020528060005260406000206000915054906101000a900473ffffffffffffffffffffffffffffffffffffffff1681565b60006040518060800160405280600073ffffffffffffffffffffffffffffffffffffffff1681526020013481526020018473ffffffffffffffffffffffffffffffffffffffff1681526020018381525090506000610f83826113f7565b9050610f8f8582610f96565b5050505050565b3373ffffffffffffffffffffffffffffffffffffffff166002600083815260200190815260200160002060009054906101000a900473ffffffffffffffffffffffffffffffffffffffff1673ffffffffffffffffffffffffffffffffffffffff161461100157600080fd5b816002600083815260200190815260200160002060006101000a81548173ffffffffffffffffffffffffffffffffffffffff021916908373ffffffffffffffffffffffffffffffffffffffff16021790555060018060003373ffffffffffffffffffffffffffffffffffffffff1673ffffffffffffffffffffffffffffffffffffffff16815260200190815260200160002060008282546110a29190611d2e565b9250508190555060018060008473ffffffffffffffffffffffffffffffffffffffff1673ffffffffffffffffffffffffffffffffffffffff16815260200190815260200160002060008282546110f89190611cd8565b925050819055505050565b60006020528060005260406000206000915090505481565b8373ffffffffffffffffffffffffffffffffffffffff166323b872dd3330866040518463ffffffff1660e01b815260040161115893929190611b2f565b602060405180830381600087803b15801561117257600080fd5b505af1158015611186573d6000803e3d6000fd5b505050506040513d601f19601f820116820180604052508101906111aa9190611919565b50600060405180608001604052808673ffffffffffffffffffffffffffffffffffffffff1681526020018581526020018473ffffffffffffffffffffffffffffffffffffffff1681526020018381525090506000611207826113f7565b90506112138782610f96565b50505050505050565b60036020528060005260406000206000915054906101000a900473ffffffffffffffffffffffffffffffffffffffff1681565b60016000803373ffffffffffffffffffffffffffffffffffffffff1673ffffffffffffffffffffffffffffffffffffffff168152602001908152602001600020600082825461129e9190611d2e565b9250508190555060018060003373ffffffffffffffffffffffffffffffffffffffff1673ffffffffffffffffffffffffffffffffffffffff16815260200190815260200160002060008282546112f49190611d2e565b9250508190555060006003600083815260200190815260200160002060006101000a81548173ffffffffffffffffffffffffffffffffffffffff021916908373ffffffffffffffffffffffffffffffffffffffff16021790555060006002600083815260200190815260200160002060006101000a81548173ffffffffffffffffffffffffffffffffffffffff021916908373ffffffffffffffffffffffffffffffffffffffff16021790555060006004600083815260200190815260200160002060006101000a81548173ffffffffffffffffffffffffffffffffffffffff021916908373ffffffffffffffffffffffffffffffffffffffff16021790555050565b60008160056000600654815260200190815260200160002060008201518160000160006101000a81548173ffffffffffffffffffffffffffffffffffffffff021916908373ffffffffffffffffffffffffffffffffffffffff1602179055506020820151816001015560408201518160020160006101000a81548173ffffffffffffffffffffffffffffffffffffffff021916908373ffffffffffffffffffffffffffffffffffffffff16021790555060608201518160030190805190602001906114c3929190611674565b509050503360026000600654815260200190815260200160002060006101000a81548173ffffffffffffffffffffffffffffffffffffffff021916908373ffffffffffffffffffffffffffffffffffffffff1602179055503360036000600654815260200190815260200160002060006101000a81548173ffffffffffffffffffffffffffffffffffffffff021916908373ffffffffffffffffffffffffffffffffffffffff16021790555060016000803373ffffffffffffffffffffffffffffffffffffffff1673ffffffffffffffffffffffffffffffffffffffff16815260200190815260200160002060008282546115be9190611cd8565b9250508190555060018060003373ffffffffffffffffffffffffffffffffffffffff1673ffffffffffffffffffffffffffffffffffffffff16815260200190815260200160002060008282546116149190611cd8565b925050819055507f0ce3610e89a4bb9ec9359763f99110ed52a4abaea0b62028a1637e242ca2768b3360065460405161164e929190611b66565b60405180910390a16006600081548092919061166990611e73565b919050559050919050565b82805461168090611e10565b90600052602060002090601f0160209004810192826116a257600085556116e9565b82601f106116bb57805160ff19168380011785556116e9565b828001600101855582156116e9579182015b828111156116e85782518255916020019190600101906116cd565b5b5090506116f691906116fa565b5090565b5b808211156117135760008160009055506001016116fb565b5090565b600061172a61172584611c3d565b611c18565b90508281526020810184848401111561174257600080fd5b61174d848285611dce565b509392505050565b60008135905061176481611f5a565b92915050565b60008151905061177981611f71565b92915050565b600082601f83011261179057600080fd5b81356117a0848260208601611717565b91505092915050565b6000813590506117b881611f88565b92915050565b6000602082840312156117d057600080fd5b60006117de84828501611755565b91505092915050565b6000806000606084860312156117fc57600080fd5b600061180a86828701611755565b935050602061181b86828701611755565b925050604084013567ffffffffffffffff81111561183857600080fd5b6118448682870161177f565b9150509250925092565b600080600080600060a0868803121561186657600080fd5b600061187488828901611755565b955050602061188588828901611755565b9450506040611896888289016117a9565b93505060606118a788828901611755565b925050608086013567ffffffffffffffff8111156118c457600080fd5b6118d08882890161177f565b9150509295509295909350565b600080604083850312156118f057600080fd5b60006118fe85828601611755565b925050602061190f858286016117a9565b9150509250929050565b60006020828403121561192b57600080fd5b60006119398482850161176a565b91505092915050565b60006020828403121561195457600080fd5b6000611962848285016117a9565b91505092915050565b60006119778383611ab8565b60208301905092915050565b61198c81611d62565b82525050565b600061199d82611c93565b6119a78185611cb6565b93506119b283611c6e565b8060005b838110156119e35781516119ca888261196b565b97506119d583611ca9565b9250506001810190506119b6565b5085935050505092915050565b60006119fb82611c9e565b611a058185611cc7565b9350611a15818560208601611ddd565b611a1e81611f49565b840191505092915050565b60008154611a3681611e10565b611a408186611cc7565b94506001821660008114611a5b5760018114611a6d57611aa0565b60ff1983168652602086019350611aa0565b611a7685611c7e565b60005b83811015611a9857815481890152600182019150602081019050611a79565b808801955050505b50505092915050565b611ab281611daa565b82525050565b611ac181611da0565b82525050565b611ad081611da0565b82525050565b6000602082019050611aeb6000830184611983565b92915050565b6000606082019050611b066000830186611983565b611b136020830185611983565b8181036040830152611b258184611a29565b9050949350505050565b6000606082019050611b446000830186611983565b611b516020830185611983565b611b5e6040830184611ac7565b949350505050565b6000604082019050611b7b6000830185611983565b611b886020830184611ac7565b9392505050565b6000608082019050611ba46000830187611983565b611bb16020830186611ac7565b611bbe6040830185611aa9565b8181036060830152611bd081846119f0565b905095945050505050565b60006020820190508181036000830152611bf58184611992565b905092915050565b6000602082019050611c126000830184611ac7565b92915050565b6000611c22611c33565b9050611c2e8282611e42565b919050565b6000604051905090565b600067ffffffffffffffff821115611c5857611c57611f1a565b5b611c6182611f49565b9050602081019050919050565b6000819050602082019050919050565b60008190508160005260206000209050919050565b600081519050919050565b600081519050919050565b6000602082019050919050565b600082825260208201905092915050565b600082825260208201905092915050565b6000611ce382611da0565b9150611cee83611da0565b9250827fffffffffffffffffffffffffffffffffffffffffffffffffffffffffffffffff03821115611d2357611d22611ebc565b5b828201905092915050565b6000611d3982611da0565b9150611d4483611da0565b925082821015611d5757611d56611ebc565b5b828203905092915050565b6000611d6d82611d80565b9050919050565b60008115159050919050565b600073ffffffffffffffffffffffffffffffffffffffff82169050919050565b6000819050919050565b6000611db582611dbc565b9050919050565b6000611dc782611d80565b9050919050565b82818337600083830152505050565b60005b83811015611dfb578082015181840152602081019050611de0565b83811115611e0a576000848401525b50505050565b60006002820490506001821680611e2857607f821691505b60208210811415611e3c57611e3b611eeb565b5b50919050565b611e4b82611f49565b810181811067ffffffffffffffff82111715611e6a57611e69611f1a565b5b80604052505050565b6000611e7e82611da0565b91507fffffffffffffffffffffffffffffffffffffffffffffffffffffffffffffffff821415611eb157611eb0611ebc565b5b600182019050919050565b7f4e487b7100000000000000000000000000000000000000000000000000000000600052601160045260246000fd5b7f4e487b7100000000000000000000000000000000000000000000000000000000600052602260045260246000fd5b7f4e487b7100000000000000000000000000000000000000000000000000000000600052604160045260246000fd5b6000601f19601f8301169050919050565b611f6381611d62565b8114611f6e57600080fd5b50565b611f7a81611d74565b8114611f8557600080fd5b50565b611f9181611da0565b8114611f9c57600080fd5b5056fea26469706673582212207c97a042197b3f4b1dd20984408f99a535de9708e06d5b1ed3a17e37a7767dbc64736f6c63430008030033",
  "immutableReferences": {},
  "source": "pragma solidity ^0.8.3;\r\n\r\nimport \"@openzeppelin/contracts/token/ERC20/IERC20.sol\"; \r\nimport \"./ILiquidationCheck.sol\"; \r\n\r\ncontract Collaterize {\r\n\r\n    event Created(address from, uint256 id);\r\n    event Transfer(address from, address to, uint256 id);\r\n    event Liquidated(address by, uint256 id);\r\n\r\n    struct Collateral {\r\n        address token; \r\n        uint256 amount;\r\n        ILiquidationCheck liquidation;\r\n        bytes args;\r\n    }\r\n\r\n    mapping(address => uint256) public createdBalance; \r\n    mapping(address => uint256) public ownedBalance; \r\n    mapping(uint256 => address) public collateralOwners; \r\n    mapping(uint256 => address) public collateralCreators; \r\n    mapping(uint256 => address) public collateralApprovals; \r\n    mapping(uint256 => Collateral) public collaterals;\r\n\r\n    uint256 _counter;\r\n\r\n    constructor() {\r\n    }\r\n\r\n\r\n    function createCollateralERC20(address to, address token, uint256 amount, address liquidationCheck, bytes memory args) external {\r\n        IERC20(token).transferFrom(msg.sender, address(this), amount); \r\n        Collateral memory newCollateral = Collateral(\r\n            token, \r\n            amount, \r\n            ILiquidationCheck(liquidationCheck), \r\n            args);\r\n        uint256 id = _create(newCollateral);\r\n        transfer(to, id);\r\n    }\r\n\r\n    function createCollateralETH(address to, address liquidationCheck, bytes memory args) external payable {\r\n        Collateral memory newCollateral = Collateral(\r\n            address(0), \r\n            msg.value, \r\n            ILiquidationCheck(liquidationCheck), \r\n            args);\r\n        uint256 id = _create(newCollateral);\r\n        transfer(to, id);\r\n    }\r\n\r\n    function getCreatedCollaterals(address account) external view returns(uint256[] memory) {\r\n        uint256[] memory idList = new uint256[](createdBalance[account]); \r\n        uint256 counter = 0;\r\n        for (uint i = 0; i<_counter; i++) {\r\n            if (collateralCreators[i] == account) idList[counter++] = i;\r\n        }\r\n        return idList;\r\n    }\r\n\r\n    function getOwnedCollaterals(address account) external view returns(uint256[] memory) {\r\n        uint256[] memory idList = new uint256[](ownedBalance[account]); \r\n        uint256 counter = 0;\r\n        for (uint i = 0; i<_counter; i++) {\r\n            if (collateralOwners[i] == account) idList[counter++] = i;\r\n        }\r\n        return idList;\r\n    }\r\n\r\n    function transfer(address to, uint256 id) public {\r\n        require(collateralOwners[id] == msg.sender); \r\n        collateralOwners[id] = to;\r\n        ownedBalance[msg.sender] -= 1;\r\n        ownedBalance[to] += 1;\r\n    }\r\n\r\n    function approve(address to, uint256 id) public {\r\n        require(collateralOwners[id] == msg.sender); \r\n        collateralApprovals[id] = to;\r\n    }\r\n\r\n    function transferFrom(address to, uint256 id) public {\r\n        require(collateralApprovals[id] == msg.sender); \r\n        address previousOwner = collateralOwners[id];\r\n        collateralOwners[id] = to;\r\n        collateralApprovals[id] = address(0);\r\n        ownedBalance[previousOwner] -= 1;\r\n        ownedBalance[to] += 1;\r\n    }\r\n\r\n    function liquidate(uint256 id) public {\r\n        require(collateralOwners[id] == msg.sender);\r\n        if (collateralCreators[id] == msg.sender || \r\n        collaterals[id].liquidation.liquidationCheck(collateralCreators[id], collateralOwners[id], collaterals[id].args)) {\r\n            if (collaterals[id].token == address(0)) {\r\n                address payable recepient = payable(msg.sender);\r\n                recepient.transfer(collaterals[id].amount);\r\n            } else {\r\n                IERC20(collaterals[id].token).transfer(msg.sender, collaterals[id].amount);\r\n            }\r\n            _remove(id);\r\n            emit Liquidated(msg.sender, id);\r\n        }\r\n    }\r\n\r\n    function _create(Collateral memory newCollateral) internal returns(uint256) {\r\n        collaterals[_counter] = newCollateral;\r\n        collateralOwners[_counter] = msg.sender; \r\n        collateralCreators[_counter] = msg.sender;\r\n        createdBalance[msg.sender] += 1;\r\n        ownedBalance[msg.sender] += 1;\r\n        emit Created(msg.sender, _counter);\r\n        return _counter++;\r\n    }\r\n\r\n    function _remove(uint256 id) internal {\r\n        createdBalance[msg.sender] -= 1;\r\n        ownedBalance[msg.sender] -= 1;\r\n        collateralCreators[id] = address(0);\r\n        collateralOwners[id] = address(0);\r\n        collateralApprovals[id] = address(0);\r\n    }\r\n\r\n\r\n}",
  "sourcePath": "C:/Users/Kuan/Documents/GitHub/collaterize/contracts/Collaterize.sol",
  "compiler": {
    "name": "solc",
    "version": "0.8.3+commit.8d00100c.Emscripten.clang"
  },
  "schemaVersion": "3.3.4",
  "updatedAt": "2021-06-20T07:54:30.222Z",
  "networkType": "ethereum",
  "devdoc": {
    "kind": "dev",
    "methods": {},
    "version": 1
  },
  "userdoc": {
    "kind": "user",
    "methods": {},
    "version": 1
  }
}