{
  "contractName": "Collaterize",
  "abi": [
    {
      "inputs": [],
      "stateMutability": "nonpayable",
      "type": "constructor"
    },
    {
      "anonymous": false,
      "inputs": [
        {
          "indexed": false,
          "internalType": "address",
          "name": "from",
          "type": "address"
        },
        {
          "indexed": false,
          "internalType": "uint256",
          "name": "id",
          "type": "uint256"
        }
      ],
      "name": "Created",
      "type": "event"
    },
    {
      "anonymous": false,
      "inputs": [
        {
          "indexed": false,
          "internalType": "address",
          "name": "by",
          "type": "address"
        },
        {
          "indexed": false,
          "internalType": "uint256",
          "name": "id",
          "type": "uint256"
        }
      ],
      "name": "Liquidated",
      "type": "event"
    },
    {
      "anonymous": false,
      "inputs": [
        {
          "indexed": false,
          "internalType": "address",
          "name": "from",
          "type": "address"
        },
        {
          "indexed": false,
          "internalType": "address",
          "name": "to",
          "type": "address"
        },
        {
          "indexed": false,
          "internalType": "uint256",
          "name": "id",
          "type": "uint256"
        }
      ],
      "name": "Transfer",
      "type": "event"
    },
    {
      "inputs": [
        {
          "internalType": "uint256",
          "name": "",
          "type": "uint256"
        },
        {
          "internalType": "uint256",
          "name": "",
          "type": "uint256"
        }
      ],
      "name": "collateralApprovals",
      "outputs": [
        {
          "internalType": "address",
          "name": "",
          "type": "address"
        }
      ],
      "stateMutability": "view",
      "type": "function",
      "constant": true
    },
    {
      "inputs": [
        {
          "internalType": "address",
          "name": "",
          "type": "address"
        }
      ],
      "name": "ownedBalance",
      "outputs": [
        {
          "internalType": "uint256",
          "name": "",
          "type": "uint256"
        }
      ],
      "stateMutability": "view",
      "type": "function",
      "constant": true
    },
    {
      "inputs": [
        {
          "internalType": "address",
          "name": "token",
          "type": "address"
        },
        {
          "internalType": "uint256",
          "name": "amount",
          "type": "uint256"
        },
        {
          "internalType": "uint256",
          "name": "accounts",
          "type": "uint256"
        },
        {
          "internalType": "string",
          "name": "uri",
          "type": "string"
        },
        {
          "internalType": "address",
          "name": "liquidation",
          "type": "address"
        },
        {
          "internalType": "bytes",
          "name": "args",
          "type": "bytes"
        }
      ],
      "name": "createCollateralERC20",
      "outputs": [],
      "stateMutability": "nonpayable",
      "type": "function"
    },
    {
      "inputs": [
        {
          "internalType": "uint256",
          "name": "accounts",
          "type": "uint256"
        },
        {
          "internalType": "string",
          "name": "uri",
          "type": "string"
        },
        {
          "internalType": "address",
          "name": "liquidation",
          "type": "address"
        },
        {
          "internalType": "bytes",
          "name": "args",
          "type": "bytes"
        }
      ],
      "name": "createCollateralETH",
      "outputs": [],
      "stateMutability": "payable",
      "type": "function",
      "payable": true
    },
    {
      "inputs": [
        {
          "internalType": "address",
          "name": "account",
          "type": "address"
        }
      ],
      "name": "getOwnedCollaterals",
      "outputs": [
        {
          "internalType": "uint256[]",
          "name": "",
          "type": "uint256[]"
        }
      ],
      "stateMutability": "view",
      "type": "function",
      "constant": true
    },
    {
      "inputs": [
        {
          "internalType": "uint256",
          "name": "id",
          "type": "uint256"
        }
      ],
      "name": "getCollateral",
      "outputs": [
        {
          "components": [
            {
              "internalType": "address",
              "name": "token",
              "type": "address"
            },
            {
              "internalType": "uint256",
              "name": "amount",
              "type": "uint256"
            },
            {
              "internalType": "address[]",
              "name": "accounts",
              "type": "address[]"
            },
            {
              "internalType": "string",
              "name": "uri",
              "type": "string"
            },
            {
              "internalType": "contract ILiquidationCheck",
              "name": "liquidation",
              "type": "address"
            },
            {
              "internalType": "bytes",
              "name": "args",
              "type": "bytes"
            }
          ],
          "internalType": "struct Collaterize.Collateral",
          "name": "",
          "type": "tuple"
        }
      ],
      "stateMutability": "view",
      "type": "function",
      "constant": true
    },
    {
      "inputs": [
        {
          "internalType": "address",
          "name": "to",
          "type": "address"
        },
        {
          "internalType": "uint256",
          "name": "id",
          "type": "uint256"
        },
        {
          "internalType": "uint256",
          "name": "index",
          "type": "uint256"
        }
      ],
      "name": "transfer",
      "outputs": [],
      "stateMutability": "nonpayable",
      "type": "function"
    },
    {
      "inputs": [
        {
          "internalType": "address",
          "name": "to",
          "type": "address"
        },
        {
          "internalType": "uint256",
          "name": "id",
          "type": "uint256"
        },
        {
          "internalType": "uint256",
          "name": "index",
          "type": "uint256"
        }
      ],
      "name": "approve",
      "outputs": [],
      "stateMutability": "nonpayable",
      "type": "function"
    },
    {
      "inputs": [
        {
          "internalType": "address",
          "name": "to",
          "type": "address"
        },
        {
          "internalType": "uint256",
          "name": "id",
          "type": "uint256"
        },
        {
          "internalType": "uint256",
          "name": "index",
          "type": "uint256"
        }
      ],
      "name": "transferFrom",
      "outputs": [],
      "stateMutability": "nonpayable",
      "type": "function"
    },
    {
      "inputs": [
        {
          "internalType": "uint256",
          "name": "id",
          "type": "uint256"
        },
        {
          "internalType": "uint256",
          "name": "index",
          "type": "uint256"
        }
      ],
      "name": "liquidate",
      "outputs": [],
      "stateMutability": "nonpayable",
      "type": "function"
    }
  ],
  "bytecode": "0x608060405234801561001057600080fd5b50612690806100206000396000f3fe6080604052600436106100915760003560e01c806330e033151161005957806330e033151461019f578063426a8493146101dc5780636bd64ee41461020557806377dbbd7614610221578063d296d1f11461024a57610091565b806303547e5314610096578063095bcdb6146100d35780630eed2f13146100fc57806328742140146101255780632a62a49014610162575b600080fd5b3480156100a257600080fd5b506100bd60048036038101906100b89190611be7565b610273565b6040516100ca91906121be565b60405180910390f35b3480156100df57600080fd5b506100fa60048036038101906100f59190611c10565b61028b565b005b34801561010857600080fd5b50610123600480360381019061011e9190611c5f565b610388565b005b34801561013157600080fd5b5061014c60048036038101906101479190611be7565b61042f565b604051610159919061213a565b60405180910390f35b34801561016e57600080fd5b5061018960048036038101906101849190611d41565b610649565b604051610196919061219c565b60405180910390f35b3480156101ab57600080fd5b506101c660048036038101906101c19190611dfd565b6108de565b6040516101d391906120bf565b60405180910390f35b3480156101e857600080fd5b5061020360048036038101906101fe9190611c10565b610920565b005b61021f600480360381019061021a9190611d6a565b610a74565b005b34801561022d57600080fd5b5061024860048036038101906102439190611c10565b610a8a565b005b34801561025657600080fd5b50610271600480360381019061026c9190611dfd565b610bcb565b005b60006020528060005260406000206000915090505481565b3382828273ffffffffffffffffffffffffffffffffffffffff166002600084815260200190815260200160002060020182815481106102f3577f4e487b7100000000000000000000000000000000000000000000000000000000600052603260045260246000fd5b9060005260206000200160009054906101000a900473ffffffffffffffffffffffffffffffffffffffff1673ffffffffffffffffffffffffffffffffffffffff1614610374576040517f08c379a000000000000000000000000000000000000000000000000000000000815260040161036b9061215c565b60405180910390fd5b61038033878787610e72565b505050505050565b8573ffffffffffffffffffffffffffffffffffffffff166323b872dd3330886040518463ffffffff1660e01b81526004016103c5939291906120da565b602060405180830381600087803b1580156103df57600080fd5b505af11580156103f3573d6000803e3d6000fd5b505050506040513d601f19601f820116820180604052508101906104179190611d18565b50610427338787878787876111a9565b505050505050565b606060008060008473ffffffffffffffffffffffffffffffffffffffff1673ffffffffffffffffffffffffffffffffffffffff1681526020019081526020016000205467ffffffffffffffff8111156104b1577f4e487b7100000000000000000000000000000000000000000000000000000000600052604160045260246000fd5b6040519080825280602002602001820160405280156104df5781602001602082028036833780820191505090505b5090506000805b60035481101561063e5760005b600260008381526020019081526020016000206002018054905081101561062a578573ffffffffffffffffffffffffffffffffffffffff16600260008481526020019081526020016000206002018281548110610579577f4e487b7100000000000000000000000000000000000000000000000000000000600052603260045260246000fd5b9060005260206000200160009054906101000a900473ffffffffffffffffffffffffffffffffffffffff1673ffffffffffffffffffffffffffffffffffffffff16141561061757818484806105cd906124b6565b955081518110610606577f4e487b7100000000000000000000000000000000000000000000000000000000600052603260045260246000fd5b60200260200101818152505061062a565b8080610622906124b6565b9150506104f3565b508080610636906124b6565b9150506104e6565b508192505050919050565b610651611822565b600260008381526020019081526020016000206040518060c00160405290816000820160009054906101000a900473ffffffffffffffffffffffffffffffffffffffff1673ffffffffffffffffffffffffffffffffffffffff1673ffffffffffffffffffffffffffffffffffffffff168152602001600182015481526020016002820180548060200260200160405190810160405280929190818152602001828054801561075457602002820191906000526020600020905b8160009054906101000a900473ffffffffffffffffffffffffffffffffffffffff1673ffffffffffffffffffffffffffffffffffffffff168152602001906001019080831161070a575b5050505050815260200160038201805461076d90612453565b80601f016020809104026020016040519081016040528092919081815260200182805461079990612453565b80156107e65780601f106107bb576101008083540402835291602001916107e6565b820191906000526020600020905b8154815290600101906020018083116107c957829003601f168201915b505050505081526020016004820160009054906101000a900473ffffffffffffffffffffffffffffffffffffffff1673ffffffffffffffffffffffffffffffffffffffff1673ffffffffffffffffffffffffffffffffffffffff16815260200160058201805461085590612453565b80601f016020809104026020016040519081016040528092919081815260200182805461088190612453565b80156108ce5780601f106108a3576101008083540402835291602001916108ce565b820191906000526020600020905b8154815290600101906020018083116108b157829003601f168201915b5050505050815250509050919050565b60016020528160005260406000206020528060005260406000206000915091509054906101000a900473ffffffffffffffffffffffffffffffffffffffff1681565b3382828273ffffffffffffffffffffffffffffffffffffffff16600260008481526020019081526020016000206002018281548110610988577f4e487b7100000000000000000000000000000000000000000000000000000000600052603260045260246000fd5b9060005260206000200160009054906101000a900473ffffffffffffffffffffffffffffffffffffffff1673ffffffffffffffffffffffffffffffffffffffff1614610a09576040517f08c379a0000000000000000000000000000000000000000000000000000000008152600401610a009061215c565b60405180910390fd5b8560016000878152602001908152602001600020600086815260200190815260200160002060006101000a81548173ffffffffffffffffffffffffffffffffffffffff021916908373ffffffffffffffffffffffffffffffffffffffff160217905550505050505050565b610a8433600034878787876111a9565b50505050565b3373ffffffffffffffffffffffffffffffffffffffff1660016000848152602001908152602001600020600083815260200190815260200160002060009054906101000a900473ffffffffffffffffffffffffffffffffffffffff1673ffffffffffffffffffffffffffffffffffffffff1614610b3c576040517f08c379a0000000000000000000000000000000000000000000000000000000008152600401610b339061217c565b60405180910390fd5b6000600260008481526020019081526020016000206002018281548110610b8c577f4e487b7100000000000000000000000000000000000000000000000000000000600052603260045260246000fd5b9060005260206000200160009054906101000a900473ffffffffffffffffffffffffffffffffffffffff169050610bc581858585610e72565b50505050565b3382828273ffffffffffffffffffffffffffffffffffffffff16600260008481526020019081526020016000206002018281548110610c33577f4e487b7100000000000000000000000000000000000000000000000000000000600052603260045260246000fd5b9060005260206000200160009054906101000a900473ffffffffffffffffffffffffffffffffffffffff1673ffffffffffffffffffffffffffffffffffffffff1614610cb4576040517f08c379a0000000000000000000000000000000000000000000000000000000008152600401610cab9061215c565b60405180910390fd5b600073ffffffffffffffffffffffffffffffffffffffff166002600087815260200190815260200160002060000160009054906101000a900473ffffffffffffffffffffffffffffffffffffffff1673ffffffffffffffffffffffffffffffffffffffff161415610d875760003390508073ffffffffffffffffffffffffffffffffffffffff166108fc60026000898152602001908152602001600020600101549081150290604051600060405180830381858888f19350505050158015610d80573d6000803e3d6000fd5b5050610e62565b6002600086815260200190815260200160002060000160009054906101000a900473ffffffffffffffffffffffffffffffffffffffff1673ffffffffffffffffffffffffffffffffffffffff1663a9059cbb3360026000898152602001908152602001600020600101546040518363ffffffff1660e01b8152600401610e0e929190612111565b602060405180830381600087803b158015610e2857600080fd5b505af1158015610e3c573d6000803e3d6000fd5b505050506040513d601f19601f82011682018060405250810190610e609190611d18565b505b610e6b856114c2565b5050505050565b60006001905060005b6002600085815260200190815260200160002060020180549050811015610f60578473ffffffffffffffffffffffffffffffffffffffff16600260008681526020019081526020016000206002018281548110610f01577f4e487b7100000000000000000000000000000000000000000000000000000000600052603260045260246000fd5b9060005260206000200160009054906101000a900473ffffffffffffffffffffffffffffffffffffffff1673ffffffffffffffffffffffffffffffffffffffff161415610f4d57600091505b8080610f58906124b6565b915050610e7b565b5083600260008581526020019081526020016000206002018381548110610fb0577f4e487b7100000000000000000000000000000000000000000000000000000000600052603260045260246000fd5b9060005260206000200160006101000a81548173ffffffffffffffffffffffffffffffffffffffff021916908373ffffffffffffffffffffffffffffffffffffffff16021790555060006001905060005b60026000868152602001908152602001600020600201805490508110156110e6578573ffffffffffffffffffffffffffffffffffffffff16600260008781526020019081526020016000206002018281548110611087577f4e487b7100000000000000000000000000000000000000000000000000000000600052603260045260246000fd5b9060005260206000200160009054906101000a900473ffffffffffffffffffffffffffffffffffffffff1673ffffffffffffffffffffffffffffffffffffffff1614156110d357600091505b80806110de906124b6565b915050611001565b5081156111445760016000808773ffffffffffffffffffffffffffffffffffffffff1673ffffffffffffffffffffffffffffffffffffffff168152602001908152602001600020600082825461113c919061231b565b925050819055505b80156111a15760016000808873ffffffffffffffffffffffffffffffffffffffff1673ffffffffffffffffffffffffffffffffffffffff16815260200190815260200160002060008282546111999190612371565b925050819055505b505050505050565b60008467ffffffffffffffff8111156111eb577f4e487b7100000000000000000000000000000000000000000000000000000000600052604160045260246000fd5b6040519080825280602002602001820160405280156112195781602001602082028036833780820191505090505b50905060005b858110156112ae5788828281518110611261577f4e487b7100000000000000000000000000000000000000000000000000000000600052603260045260246000fd5b602002602001019073ffffffffffffffffffffffffffffffffffffffff16908173ffffffffffffffffffffffffffffffffffffffff168152505080806112a6906124b6565b91505061121f565b506040518060c001604052808873ffffffffffffffffffffffffffffffffffffffff1681526020018781526020018281526020018581526020018473ffffffffffffffffffffffffffffffffffffffff1681526020018381525060026000600354815260200190815260200160002060008201518160000160006101000a81548173ffffffffffffffffffffffffffffffffffffffff021916908373ffffffffffffffffffffffffffffffffffffffff16021790555060208201518160010155604082015181600201908051906020019061138a929190611884565b5060608201518160030190805190602001906113a792919061190e565b5060808201518160040160006101000a81548173ffffffffffffffffffffffffffffffffffffffff021916908373ffffffffffffffffffffffffffffffffffffffff16021790555060a082015181600501908051906020019061140b929190611994565b5090505060016000808a73ffffffffffffffffffffffffffffffffffffffff1673ffffffffffffffffffffffffffffffffffffffff168152602001908152602001600020600082825461145e919061231b565b925050819055507f0ce3610e89a4bb9ec9359763f99110ed52a4abaea0b62028a1637e242ca2768b88600354604051611498929190612111565b60405180910390a1600360008154809291906114b3906124b6565b91905055505050505050505050565b60005b6002600083815260200190815260200160002060020180549050811015611782576000600260008481526020019081526020016000206002018281548110611536577f4e487b7100000000000000000000000000000000000000000000000000000000600052603260045260246000fd5b9060005260206000200160009054906101000a900473ffffffffffffffffffffffffffffffffffffffff16905060008290505b60026000858152602001908152602001600020600201805490508110156116e2578173ffffffffffffffffffffffffffffffffffffffff166002600086815260200190815260200160002060020182815481106115ef577f4e487b7100000000000000000000000000000000000000000000000000000000600052603260045260246000fd5b9060005260206000200160009054906101000a900473ffffffffffffffffffffffffffffffffffffffff1673ffffffffffffffffffffffffffffffffffffffff1614156116cf576000600260008681526020019081526020016000206002018281548110611686577f4e487b7100000000000000000000000000000000000000000000000000000000600052603260045260246000fd5b9060005260206000200160006101000a81548173ffffffffffffffffffffffffffffffffffffffff021916908373ffffffffffffffffffffffffffffffffffffffff1602179055505b80806116da906124b6565b915050611569565b50600073ffffffffffffffffffffffffffffffffffffffff168173ffffffffffffffffffffffffffffffffffffffff161461176e5760016000808373ffffffffffffffffffffffffffffffffffffffff1673ffffffffffffffffffffffffffffffffffffffff16815260200190815260200160002060008282546117669190612371565b925050819055505b50808061177a906124b6565b9150506114c5565b5060026000828152602001908152602001600020600080820160006101000a81549073ffffffffffffffffffffffffffffffffffffffff021916905560018201600090556002820160006117d69190611a1a565b6003820160006117e69190611a3b565b6004820160006101000a81549073ffffffffffffffffffffffffffffffffffffffff021916905560058201600061181d9190611a7b565b505050565b6040518060c00160405280600073ffffffffffffffffffffffffffffffffffffffff168152602001600081526020016060815260200160608152602001600073ffffffffffffffffffffffffffffffffffffffff168152602001606081525090565b8280548282559060005260206000209081019282156118fd579160200282015b828111156118fc5782518260006101000a81548173ffffffffffffffffffffffffffffffffffffffff021916908373ffffffffffffffffffffffffffffffffffffffff160217905550916020019190600101906118a4565b5b50905061190a9190611abb565b5090565b82805461191a90612453565b90600052602060002090601f01602090048101928261193c5760008555611983565b82601f1061195557805160ff1916838001178555611983565b82800160010185558215611983579182015b82811115611982578251825591602001919060010190611967565b5b5090506119909190611abb565b5090565b8280546119a090612453565b90600052602060002090601f0160209004810192826119c25760008555611a09565b82601f106119db57805160ff1916838001178555611a09565b82800160010185558215611a09579182015b82811115611a085782518255916020019190600101906119ed565b5b509050611a169190611abb565b5090565b5080546000825590600052602060002090810190611a389190611abb565b50565b508054611a4790612453565b6000825580601f10611a595750611a78565b601f016020900490600052602060002090810190611a779190611abb565b5b50565b508054611a8790612453565b6000825580601f10611a995750611ab8565b601f016020900490600052602060002090810190611ab79190611abb565b5b50565b5b80821115611ad4576000816000905550600101611abc565b5090565b6000611aeb611ae6846121fe565b6121d9565b905082815260208101848484011115611b0357600080fd5b611b0e848285612411565b509392505050565b6000611b29611b248461222f565b6121d9565b905082815260208101848484011115611b4157600080fd5b611b4c848285612411565b509392505050565b600081359050611b6381612615565b92915050565b600081519050611b788161262c565b92915050565b600082601f830112611b8f57600080fd5b8135611b9f848260208601611ad8565b91505092915050565b600082601f830112611bb957600080fd5b8135611bc9848260208601611b16565b91505092915050565b600081359050611be181612643565b92915050565b600060208284031215611bf957600080fd5b6000611c0784828501611b54565b91505092915050565b600080600060608486031215611c2557600080fd5b6000611c3386828701611b54565b9350506020611c4486828701611bd2565b9250506040611c5586828701611bd2565b9150509250925092565b60008060008060008060c08789031215611c7857600080fd5b6000611c8689828a01611b54565b9650506020611c9789828a01611bd2565b9550506040611ca889828a01611bd2565b945050606087013567ffffffffffffffff811115611cc557600080fd5b611cd189828a01611ba8565b9350506080611ce289828a01611b54565b92505060a087013567ffffffffffffffff811115611cff57600080fd5b611d0b89828a01611b7e565b9150509295509295509295565b600060208284031215611d2a57600080fd5b6000611d3884828501611b69565b91505092915050565b600060208284031215611d5357600080fd5b6000611d6184828501611bd2565b91505092915050565b60008060008060808587031215611d8057600080fd5b6000611d8e87828801611bd2565b945050602085013567ffffffffffffffff811115611dab57600080fd5b611db787828801611ba8565b9350506040611dc887828801611b54565b925050606085013567ffffffffffffffff811115611de557600080fd5b611df187828801611b7e565b91505092959194509250565b60008060408385031215611e1057600080fd5b6000611e1e85828601611bd2565b9250506020611e2f85828601611bd2565b9150509250929050565b6000611e458383611e69565b60208301905092915050565b6000611e5d83836120a1565b60208301905092915050565b611e72816123a5565b82525050565b611e81816123a5565b82525050565b6000611e9282612280565b611e9c81856122c6565b9350611ea783612260565b8060005b83811015611ed8578151611ebf8882611e39565b9750611eca836122ac565b925050600181019050611eab565b5085935050505092915050565b6000611ef08261228b565b611efa81856122d7565b9350611f0583612270565b8060005b83811015611f36578151611f1d8882611e51565b9750611f28836122b9565b925050600181019050611f09565b5085935050505092915050565b6000611f4e82612296565b611f5881856122e8565b9350611f68818560208601612420565b611f718161258c565b840191505092915050565b611f85816123ed565b82525050565b6000611f96826122a1565b611fa081856122f9565b9350611fb0818560208601612420565b611fb98161258c565b840191505092915050565b6000611fd160208361230a565b9150611fdc8261259d565b602082019050919050565b6000611ff460278361230a565b9150611fff826125c6565b604082019050919050565b600060c0830160008301516120226000860182611e69565b50602083015161203560208601826120a1565b506040830151848203604086015261204d8282611e87565b915050606083015184820360608601526120678282611f8b565b915050608083015161207c6080860182611f7c565b5060a083015184820360a08601526120948282611f43565b9150508091505092915050565b6120aa816123e3565b82525050565b6120b9816123e3565b82525050565b60006020820190506120d46000830184611e78565b92915050565b60006060820190506120ef6000830186611e78565b6120fc6020830185611e78565b61210960408301846120b0565b949350505050565b60006040820190506121266000830185611e78565b61213360208301846120b0565b9392505050565b600060208201905081810360008301526121548184611ee5565b905092915050565b6000602082019050818103600083015261217581611fc4565b9050919050565b6000602082019050818103600083015261219581611fe7565b9050919050565b600060208201905081810360008301526121b6818461200a565b905092915050565b60006020820190506121d360008301846120b0565b92915050565b60006121e36121f4565b90506121ef8282612485565b919050565b6000604051905090565b600067ffffffffffffffff8211156122195761221861255d565b5b6122228261258c565b9050602081019050919050565b600067ffffffffffffffff82111561224a5761224961255d565b5b6122538261258c565b9050602081019050919050565b6000819050602082019050919050565b6000819050602082019050919050565b600081519050919050565b600081519050919050565b600081519050919050565b600081519050919050565b6000602082019050919050565b6000602082019050919050565b600082825260208201905092915050565b600082825260208201905092915050565b600082825260208201905092915050565b600082825260208201905092915050565b600082825260208201905092915050565b6000612326826123e3565b9150612331836123e3565b9250827fffffffffffffffffffffffffffffffffffffffffffffffffffffffffffffffff03821115612366576123656124ff565b5b828201905092915050565b600061237c826123e3565b9150612387836123e3565b92508282101561239a576123996124ff565b5b828203905092915050565b60006123b0826123c3565b9050919050565b60008115159050919050565b600073ffffffffffffffffffffffffffffffffffffffff82169050919050565b6000819050919050565b60006123f8826123ff565b9050919050565b600061240a826123c3565b9050919050565b82818337600083830152505050565b60005b8381101561243e578082015181840152602081019050612423565b8381111561244d576000848401525b50505050565b6000600282049050600182168061246b57607f821691505b6020821081141561247f5761247e61252e565b5b50919050565b61248e8261258c565b810181811067ffffffffffffffff821117156124ad576124ac61255d565b5b80604052505050565b60006124c1826123e3565b91507fffffffffffffffffffffffffffffffffffffffffffffffffffffffffffffffff8214156124f4576124f36124ff565b5b600182019050919050565b7f4e487b7100000000000000000000000000000000000000000000000000000000600052601160045260246000fd5b7f4e487b7100000000000000000000000000000000000000000000000000000000600052602260045260246000fd5b7f4e487b7100000000000000000000000000000000000000000000000000000000600052604160045260246000fd5b6000601f19601f8301169050919050565b7f4f776e657273686970206372697465726961206e6f742066756c66696c6c6564600082015250565b7f596f752068617665206e6f74206265656e20617070726f76656420746f20747260008201527f616e736665722e00000000000000000000000000000000000000000000000000602082015250565b61261e816123a5565b811461262957600080fd5b50565b612635816123b7565b811461264057600080fd5b50565b61264c816123e3565b811461265757600080fd5b5056fea2646970667358221220444699ed33ba4448a101e2cee5958abdfa27014adb7ac6cd42fcc62bc76cd21e64736f6c63430008030033",
  "immutableReferences": {},
  "source": "// SPDX-License-Identifier: UNLICENSED\r\npragma solidity ^0.8.3;\r\n\r\nimport \"@openzeppelin/contracts/token/ERC20/extensions/IERC20Metadata.sol\"; \r\nimport \"@openzeppelin/contracts/token/ERC20/IERC20.sol\"; \r\n\r\nimport \"./ILiquidationCheck.sol\"; \r\n\r\ncontract Collaterize {\r\n\r\n    event Created(address from, uint256 id);\r\n    event Transfer(address from, address to, uint256 id);\r\n    event Liquidated(address by, uint256 id);\r\n\r\n    struct Collateral {\r\n        address token; \r\n        uint256 amount;\r\n        address[] accounts;\r\n        string uri;\r\n        ILiquidationCheck liquidation;\r\n        bytes args;\r\n    }\r\n\r\n    mapping(address => uint256) public ownedBalance; \r\n    mapping(uint256 => mapping(uint256=>address)) public collateralApprovals; \r\n    mapping(uint256 => Collateral) private _collaterals;\r\n\r\n    uint256 _counter;\r\n\r\n    constructor() {\r\n    }\r\n\r\n    modifier isOwner(address caller, uint256 id, uint256 index) {\r\n        require(_collaterals[id].accounts[index] == caller, \"Ownership criteria not fulfilled\");\r\n        _;\r\n    }\r\n\r\n\r\n    function createCollateralERC20(address token, uint256 amount, uint256 accounts, string memory uri, address liquidation, bytes memory args) external {\r\n        IERC20(token).transferFrom(msg.sender, address(this), amount); \r\n        _create(msg.sender, token, amount, accounts, uri, liquidation, args);\r\n    }\r\n\r\n    function createCollateralETH(uint256 accounts, string memory uri, address liquidation, bytes memory args) external payable {\r\n        _create(msg.sender, address(0), msg.value, accounts, uri, liquidation, args);\r\n    }\r\n\r\n    function getOwnedCollaterals(address account) external view returns(uint256[] memory) {\r\n        uint256[] memory idList = new uint256[](ownedBalance[account]); \r\n        uint256 counter = 0;\r\n        for (uint i = 0; i<_counter; i++) {\r\n            for (uint j = 0; j < _collaterals[i].accounts.length; j++) {\r\n                if (_collaterals[i].accounts[j] == account) {\r\n                    idList[counter++] = i;\r\n                    break;\r\n                } \r\n            }\r\n        }\r\n        return idList;\r\n    }\r\n\r\n    function getCollateral(uint256 id) external view returns (Collateral memory) {\r\n        return _collaterals[id];\r\n    }\r\n\r\n    function transfer(address to, uint256 id, uint256 index) isOwner(msg.sender, id, index) public {\r\n        _transfer(msg.sender, to, id, index);\r\n    }\r\n\r\n    function approve(address to, uint256 id, uint256 index) isOwner(msg.sender, id, index) public {\r\n        collateralApprovals[id][index] = to;\r\n    }\r\n\r\n    function transferFrom(address to, uint256 id, uint256 index) public {\r\n        require(collateralApprovals[id][index] == msg.sender, \"You have not been approved to transfer.\"); \r\n        address previousOwner = _collaterals[id].accounts[index];\r\n        _transfer(previousOwner, to, id, index);\r\n    }\r\n\r\n    function liquidate(uint256 id, uint256 index) isOwner(msg.sender, id, index) public {\r\n        // require(ILiquidationCheck(_collaterals[id].liquidation)\r\n        // .liquidationCheck(\r\n        //     _collaterals[id].accounts, \r\n        //     index, \r\n        //     _collaterals[id].args), \"Liquidation criteria not met.\");\r\n        if (_collaterals[id].token == address(0)) {\r\n            address payable recepient = payable(msg.sender);\r\n            recepient.transfer(_collaterals[id].amount);\r\n        } else {\r\n            IERC20(_collaterals[id].token).transfer(msg.sender, _collaterals[id].amount);\r\n        }\r\n        _remove(id);\r\n    }\r\n\r\n    function _transfer(address from, address to, uint256 id, uint256 index) internal {\r\n        bool gainedOwnership = true;\r\n        for (uint i = 0; i < _collaterals[id].accounts.length; i++) {\r\n            if (_collaterals[id].accounts[i] == to) {\r\n                gainedOwnership = false;\r\n            }\r\n        }\r\n        _collaterals[id].accounts[index] = to;\r\n        bool lostOwnership = true;\r\n        for (uint i = 0; i < _collaterals[id].accounts.length; i++) {\r\n            if (_collaterals[id].accounts[i] == to) {\r\n                lostOwnership = false;\r\n            }\r\n        }\r\n        if (gainedOwnership) ownedBalance[to] += 1;\r\n        if (lostOwnership) ownedBalance[from] -= 1;\r\n    }\r\n\r\n    function _create(address from, address token, uint256 amount, uint256 accounts, string memory uri, address liquidation, bytes memory args) internal {\r\n        address[] memory holders = new address[](accounts);\r\n        for (uint i = 0; i < accounts; i++) holders[i] = from; \r\n        _collaterals[_counter] = Collateral(\r\n            token, amount, holders, uri, ILiquidationCheck(liquidation), args\r\n        );\r\n        ownedBalance[from] += 1;\r\n        emit Created(from, _counter);\r\n        _counter++;\r\n    }\r\n\r\n    function _remove(uint256 id) internal {\r\n        for (uint i = 0; i < _collaterals[id].accounts.length; i++) {\r\n            address owner = _collaterals[id].accounts[i];\r\n            for (uint j = i; j < _collaterals[id].accounts.length; j++) {\r\n                if (_collaterals[id].accounts[j] == owner) _collaterals[id].accounts[j] = address(0); \r\n            }\r\n            if (owner != address(0)) ownedBalance[owner] -= 1;\r\n        }\r\n        delete _collaterals[id]; \r\n    }\r\n\r\n\r\n}",
  "sourcePath": "C:/Users/Kuan/Documents/GitHub/collaterize/contracts/Collaterize.sol",
  "compiler": {
    "name": "solc",
    "version": "0.8.3+commit.8d00100c.Emscripten.clang"
  },
  "schemaVersion": "3.3.4",
  "updatedAt": "2021-06-24T03:35:20.522Z",
  "networkType": "ethereum",
  "devdoc": {
    "kind": "dev",
    "methods": {},
    "version": 1
  },
  "userdoc": {
    "kind": "user",
    "methods": {},
    "version": 1
  }
}