{
  "contractName": "Collaterize",
  "abi": [
    {
      "inputs": [],
      "stateMutability": "nonpayable",
      "type": "constructor"
    },
    {
      "anonymous": false,
      "inputs": [
        {
          "indexed": false,
          "internalType": "address",
          "name": "from",
          "type": "address"
        },
        {
          "indexed": false,
          "internalType": "uint256",
          "name": "id",
          "type": "uint256"
        }
      ],
      "name": "Created",
      "type": "event"
    },
    {
      "anonymous": false,
      "inputs": [
        {
          "indexed": false,
          "internalType": "address",
          "name": "by",
          "type": "address"
        },
        {
          "indexed": false,
          "internalType": "uint256",
          "name": "id",
          "type": "uint256"
        }
      ],
      "name": "Liquidated",
      "type": "event"
    },
    {
      "anonymous": false,
      "inputs": [
        {
          "indexed": false,
          "internalType": "address",
          "name": "from",
          "type": "address"
        },
        {
          "indexed": false,
          "internalType": "address",
          "name": "to",
          "type": "address"
        },
        {
          "indexed": false,
          "internalType": "uint256",
          "name": "id",
          "type": "uint256"
        }
      ],
      "name": "TransferKey",
      "type": "event"
    },
    {
      "inputs": [
        {
          "internalType": "uint256",
          "name": "",
          "type": "uint256"
        }
      ],
      "name": "_collaterals",
      "outputs": [
        {
          "internalType": "address",
          "name": "token",
          "type": "address"
        },
        {
          "internalType": "uint256",
          "name": "amount",
          "type": "uint256"
        },
        {
          "internalType": "string",
          "name": "uri",
          "type": "string"
        },
        {
          "internalType": "contract ILiquidationCheck",
          "name": "liquidation",
          "type": "address"
        },
        {
          "internalType": "bytes",
          "name": "args",
          "type": "bytes"
        }
      ],
      "stateMutability": "view",
      "type": "function",
      "constant": true
    },
    {
      "inputs": [
        {
          "internalType": "address",
          "name": "token",
          "type": "address"
        },
        {
          "internalType": "uint256",
          "name": "amount",
          "type": "uint256"
        },
        {
          "internalType": "uint256",
          "name": "accounts",
          "type": "uint256"
        },
        {
          "internalType": "string",
          "name": "uri",
          "type": "string"
        },
        {
          "internalType": "address",
          "name": "liquidation",
          "type": "address"
        },
        {
          "internalType": "bytes",
          "name": "args",
          "type": "bytes"
        }
      ],
      "name": "createCollateralERC20",
      "outputs": [],
      "stateMutability": "nonpayable",
      "type": "function"
    },
    {
      "inputs": [
        {
          "internalType": "uint256",
          "name": "accounts",
          "type": "uint256"
        },
        {
          "internalType": "string",
          "name": "uri",
          "type": "string"
        },
        {
          "internalType": "address",
          "name": "liquidation",
          "type": "address"
        },
        {
          "internalType": "bytes",
          "name": "args",
          "type": "bytes"
        }
      ],
      "name": "createCollateralETH",
      "outputs": [],
      "stateMutability": "payable",
      "type": "function",
      "payable": true
    },
    {
      "inputs": [
        {
          "internalType": "address",
          "name": "account",
          "type": "address"
        }
      ],
      "name": "getOwnedCollaterals",
      "outputs": [
        {
          "internalType": "uint256[]",
          "name": "",
          "type": "uint256[]"
        }
      ],
      "stateMutability": "view",
      "type": "function",
      "constant": true
    },
    {
      "inputs": [
        {
          "internalType": "address",
          "name": "account",
          "type": "address"
        }
      ],
      "name": "getShadowedCollaterals",
      "outputs": [
        {
          "internalType": "uint256[]",
          "name": "",
          "type": "uint256[]"
        }
      ],
      "stateMutability": "view",
      "type": "function",
      "constant": true
    },
    {
      "inputs": [
        {
          "internalType": "uint256",
          "name": "id",
          "type": "uint256"
        }
      ],
      "name": "getCollateral",
      "outputs": [
        {
          "components": [
            {
              "internalType": "address",
              "name": "token",
              "type": "address"
            },
            {
              "internalType": "uint256",
              "name": "amount",
              "type": "uint256"
            },
            {
              "internalType": "address[]",
              "name": "accounts",
              "type": "address[]"
            },
            {
              "internalType": "string",
              "name": "uri",
              "type": "string"
            },
            {
              "internalType": "contract ILiquidationCheck",
              "name": "liquidation",
              "type": "address"
            },
            {
              "internalType": "bytes",
              "name": "args",
              "type": "bytes"
            }
          ],
          "internalType": "struct Collaterize.Collateral",
          "name": "",
          "type": "tuple"
        }
      ],
      "stateMutability": "view",
      "type": "function",
      "constant": true
    },
    {
      "inputs": [
        {
          "internalType": "uint256",
          "name": "id",
          "type": "uint256"
        }
      ],
      "name": "getEffectiveOwners",
      "outputs": [
        {
          "internalType": "address[]",
          "name": "",
          "type": "address[]"
        }
      ],
      "stateMutability": "view",
      "type": "function",
      "constant": true
    },
    {
      "inputs": [
        {
          "internalType": "address",
          "name": "to",
          "type": "address"
        },
        {
          "internalType": "uint256",
          "name": "id",
          "type": "uint256"
        },
        {
          "internalType": "uint256",
          "name": "index",
          "type": "uint256"
        }
      ],
      "name": "transfer",
      "outputs": [],
      "stateMutability": "nonpayable",
      "type": "function"
    },
    {
      "inputs": [
        {
          "internalType": "address",
          "name": "to",
          "type": "address"
        },
        {
          "internalType": "uint256",
          "name": "id",
          "type": "uint256"
        },
        {
          "internalType": "uint256",
          "name": "index",
          "type": "uint256"
        }
      ],
      "name": "approve",
      "outputs": [],
      "stateMutability": "nonpayable",
      "type": "function"
    },
    {
      "inputs": [
        {
          "internalType": "address",
          "name": "to",
          "type": "address"
        },
        {
          "internalType": "uint256",
          "name": "id",
          "type": "uint256"
        },
        {
          "internalType": "uint256",
          "name": "index",
          "type": "uint256"
        }
      ],
      "name": "delegate",
      "outputs": [],
      "stateMutability": "nonpayable",
      "type": "function"
    },
    {
      "inputs": [
        {
          "internalType": "address",
          "name": "to",
          "type": "address"
        },
        {
          "internalType": "uint256",
          "name": "id",
          "type": "uint256"
        },
        {
          "internalType": "uint256",
          "name": "index",
          "type": "uint256"
        }
      ],
      "name": "transferFrom",
      "outputs": [],
      "stateMutability": "nonpayable",
      "type": "function"
    },
    {
      "inputs": [
        {
          "internalType": "uint256",
          "name": "id",
          "type": "uint256"
        },
        {
          "internalType": "uint256",
          "name": "index",
          "type": "uint256"
        }
      ],
      "name": "liquidate",
      "outputs": [],
      "stateMutability": "nonpayable",
      "type": "function"
    }
  ],
  "bytecode": "0x608060405234801561001057600080fd5b50613737806100206000396000f3fe6080604052600436106100a75760003560e01c8063426a849311610064578063426a8493146101de57806354676816146102075780636bd64ee41461024457806377dbbd761461026057806388ed33b114610289578063d296d1f1146102ca576100a7565b80630185921e146100ac578063095bcdb6146100d55780630eed2f13146100fe57806328742140146101275780632a62a490146101645780632f4d84eb146101a1575b600080fd5b3480156100b857600080fd5b506100d360048036038101906100ce91906128d3565b6102f3565b005b3480156100e157600080fd5b506100fc60048036038101906100f791906128d3565b610447565b005b34801561010a57600080fd5b5061012560048036038101906101209190612922565b610544565b005b34801561013357600080fd5b5061014e600480360381019061014991906128aa565b6106be565b60405161015b91906130c4565b60405180910390f35b34801561017057600080fd5b5061018b60048036038101906101869190612a04565b6108d8565b6040516101989190613186565b60405180910390f35b3480156101ad57600080fd5b506101c860048036038101906101c391906128aa565b610b6d565b6040516101d591906130c4565b60405180910390f35b3480156101ea57600080fd5b50610205600480360381019061020091906128d3565b610d54565b005b34801561021357600080fd5b5061022e60048036038101906102299190612a04565b610ea8565b60405161023b919061305d565b60405180910390f35b61025e60048036038101906102599190612a56565b61119a565b005b34801561026c57600080fd5b50610287600480360381019061028291906128d3565b6111b0565b005b34801561029557600080fd5b506102b060048036038101906102ab9190612a04565b6112f1565b6040516102c1959493929190612ffc565b60405180910390f35b3480156102d657600080fd5b506102f160048036038101906102ec9190612ae9565b611477565b005b3382828273ffffffffffffffffffffffffffffffffffffffff1660046000848152602001908152602001600020600201828154811061035b577f4e487b7100000000000000000000000000000000000000000000000000000000600052603260045260246000fd5b9060005260206000200160009054906101000a900473ffffffffffffffffffffffffffffffffffffffff1673ffffffffffffffffffffffffffffffffffffffff16146103dc576040517f08c379a00000000000000000000000000000000000000000000000000000000081526004016103d3906130e6565b60405180910390fd5b8560036000878152602001908152602001600020600086815260200190815260200160002060006101000a81548173ffffffffffffffffffffffffffffffffffffffff021916908373ffffffffffffffffffffffffffffffffffffffff160217905550505050505050565b3382828273ffffffffffffffffffffffffffffffffffffffff166004600084815260200190815260200160002060020182815481106104af577f4e487b7100000000000000000000000000000000000000000000000000000000600052603260045260246000fd5b9060005260206000200160009054906101000a900473ffffffffffffffffffffffffffffffffffffffff1673ffffffffffffffffffffffffffffffffffffffff1614610530576040517f08c379a0000000000000000000000000000000000000000000000000000000008152600401610527906130e6565b60405180910390fd5b61053c33878787611933565b505050505050565b6000869050858173ffffffffffffffffffffffffffffffffffffffff1663dd62ed3e33306040518363ffffffff1660e01b8152600401610585929190612f73565b60206040518083038186803b15801561059d57600080fd5b505afa1580156105b1573d6000803e3d6000fd5b505050506040513d601f19601f820116820180604052508101906105d59190612a2d565b1015610616576040517f08c379a000000000000000000000000000000000000000000000000000000000815260040161060d90613106565b60405180910390fd5b8073ffffffffffffffffffffffffffffffffffffffff166323b872dd3330896040518463ffffffff1660e01b815260040161065393929190612f9c565b602060405180830381600087803b15801561066d57600080fd5b505af1158015610681573d6000803e3d6000fd5b505050506040513d601f19601f820116820180604052508101906106a591906129db565b506106b533888888888888611c6a565b50505050505050565b606060008060008473ffffffffffffffffffffffffffffffffffffffff1673ffffffffffffffffffffffffffffffffffffffff1681526020019081526020016000205467ffffffffffffffff811115610740577f4e487b7100000000000000000000000000000000000000000000000000000000600052604160045260246000fd5b60405190808252806020026020018201604052801561076e5781602001602082028036833780820191505090505b5090506000805b6005548110156108cd5760005b60046000838152602001908152602001600020600201805490508110156108b9578573ffffffffffffffffffffffffffffffffffffffff16600460008481526020019081526020016000206002018281548110610808577f4e487b7100000000000000000000000000000000000000000000000000000000600052603260045260246000fd5b9060005260206000200160009054906101000a900473ffffffffffffffffffffffffffffffffffffffff1673ffffffffffffffffffffffffffffffffffffffff1614156108a6578184848061085c906134bc565b955081518110610895577f4e487b7100000000000000000000000000000000000000000000000000000000600052603260045260246000fd5b6020026020010181815250506108b9565b80806108b1906134bc565b915050610782565b5080806108c5906134bc565b915050610775565b508192505050919050565b6108e06124d0565b600460008381526020019081526020016000206040518060c00160405290816000820160009054906101000a900473ffffffffffffffffffffffffffffffffffffffff1673ffffffffffffffffffffffffffffffffffffffff1673ffffffffffffffffffffffffffffffffffffffff16815260200160018201548152602001600282018054806020026020016040519081016040528092919081815260200182805480156109e357602002820191906000526020600020905b8160009054906101000a900473ffffffffffffffffffffffffffffffffffffffff1673ffffffffffffffffffffffffffffffffffffffff1681526020019060010190808311610999575b505050505081526020016003820180546109fc90613459565b80601f0160208091040260200160405190810160405280929190818152602001828054610a2890613459565b8015610a755780601f10610a4a57610100808354040283529160200191610a75565b820191906000526020600020905b815481529060010190602001808311610a5857829003601f168201915b505050505081526020016004820160009054906101000a900473ffffffffffffffffffffffffffffffffffffffff1673ffffffffffffffffffffffffffffffffffffffff1673ffffffffffffffffffffffffffffffffffffffff168152602001600582018054610ae490613459565b80601f0160208091040260200160405190810160405280929190818152602001828054610b1090613459565b8015610b5d5780601f10610b3257610100808354040283529160200191610b5d565b820191906000526020600020905b815481529060010190602001808311610b4057829003601f168201915b5050505050815250509050919050565b60606000600160008473ffffffffffffffffffffffffffffffffffffffff1673ffffffffffffffffffffffffffffffffffffffff1681526020019081526020016000205467ffffffffffffffff811115610bf0577f4e487b7100000000000000000000000000000000000000000000000000000000600052604160045260246000fd5b604051908082528060200260200182016040528015610c1e5781602001602082028036833780820191505090505b5090506000805b600554811015610d495760005b6004600083815260200190815260200160002060020180549050811015610d35578573ffffffffffffffffffffffffffffffffffffffff1660036000848152602001908152602001600020600083815260200190815260200160002060009054906101000a900473ffffffffffffffffffffffffffffffffffffffff1673ffffffffffffffffffffffffffffffffffffffff161415610d225781848480610cd8906134bc565b955081518110610d11577f4e487b7100000000000000000000000000000000000000000000000000000000600052603260045260246000fd5b602002602001018181525050610d35565b8080610d2d906134bc565b915050610c32565b508080610d41906134bc565b915050610c25565b508192505050919050565b3382828273ffffffffffffffffffffffffffffffffffffffff16600460008481526020019081526020016000206002018281548110610dbc577f4e487b7100000000000000000000000000000000000000000000000000000000600052603260045260246000fd5b9060005260206000200160009054906101000a900473ffffffffffffffffffffffffffffffffffffffff1673ffffffffffffffffffffffffffffffffffffffff1614610e3d576040517f08c379a0000000000000000000000000000000000000000000000000000000008152600401610e34906130e6565b60405180910390fd5b8560026000878152602001908152602001600020600086815260200190815260200160002060006101000a81548173ffffffffffffffffffffffffffffffffffffffff021916908373ffffffffffffffffffffffffffffffffffffffff160217905550505050505050565b60606000600460008481526020019081526020016000206002018054905067ffffffffffffffff811115610f05577f4e487b7100000000000000000000000000000000000000000000000000000000600052604160045260246000fd5b604051908082528060200260200182016040528015610f335781602001602082028036833780820191505090505b50905060005b600460008581526020019081526020016000206002018054905081101561119057600073ffffffffffffffffffffffffffffffffffffffff1660036000868152602001908152602001600020600083815260200190815260200160002060009054906101000a900473ffffffffffffffffffffffffffffffffffffffff1673ffffffffffffffffffffffffffffffffffffffff1614156110c457600460008581526020019081526020016000206002018181548110611021577f4e487b7100000000000000000000000000000000000000000000000000000000600052603260045260246000fd5b9060005260206000200160009054906101000a900473ffffffffffffffffffffffffffffffffffffffff16828281518110611085577f4e487b7100000000000000000000000000000000000000000000000000000000600052603260045260246000fd5b602002602001019073ffffffffffffffffffffffffffffffffffffffff16908173ffffffffffffffffffffffffffffffffffffffff168152505061117d565b60036000858152602001908152602001600020600082815260200190815260200160002060009054906101000a900473ffffffffffffffffffffffffffffffffffffffff16828281518110611142577f4e487b7100000000000000000000000000000000000000000000000000000000600052603260045260246000fd5b602002602001019073ffffffffffffffffffffffffffffffffffffffff16908173ffffffffffffffffffffffffffffffffffffffff16815250505b8080611188906134bc565b915050610f39565b5080915050919050565b6111aa3360003487878787611c6a565b50505050565b3373ffffffffffffffffffffffffffffffffffffffff1660026000848152602001908152602001600020600083815260200190815260200160002060009054906101000a900473ffffffffffffffffffffffffffffffffffffffff1673ffffffffffffffffffffffffffffffffffffffff1614611262576040517f08c379a000000000000000000000000000000000000000000000000000000000815260040161125990613126565b60405180910390fd5b60006004600084815260200190815260200160002060020182815481106112b2577f4e487b7100000000000000000000000000000000000000000000000000000000600052603260045260246000fd5b9060005260206000200160009054906101000a900473ffffffffffffffffffffffffffffffffffffffff1690506112eb81858585611933565b50505050565b60046020528060005260406000206000915090508060000160009054906101000a900473ffffffffffffffffffffffffffffffffffffffff169080600101549080600301805461134090613459565b80601f016020809104026020016040519081016040528092919081815260200182805461136c90613459565b80156113b95780601f1061138e576101008083540402835291602001916113b9565b820191906000526020600020905b81548152906001019060200180831161139c57829003601f168201915b5050505050908060040160009054906101000a900473ffffffffffffffffffffffffffffffffffffffff16908060050180546113f490613459565b80601f016020809104026020016040519081016040528092919081815260200182805461142090613459565b801561146d5780601f106114425761010080835404028352916020019161146d565b820191906000526020600020905b81548152906001019060200180831161145057829003601f168201915b5050505050905085565b338282600073ffffffffffffffffffffffffffffffffffffffff1660036000848152602001908152602001600020600083815260200190815260200160002060009054906101000a900473ffffffffffffffffffffffffffffffffffffffff1673ffffffffffffffffffffffffffffffffffffffff1614801561159d57508273ffffffffffffffffffffffffffffffffffffffff1660046000848152602001908152602001600020600201828154811061155a577f4e487b7100000000000000000000000000000000000000000000000000000000600052603260045260246000fd5b9060005260206000200160009054906101000a900473ffffffffffffffffffffffffffffffffffffffff1673ffffffffffffffffffffffffffffffffffffffff16145b8061161757508273ffffffffffffffffffffffffffffffffffffffff1660036000848152602001908152602001600020600083815260200190815260200160002060009054906101000a900473ffffffffffffffffffffffffffffffffffffffff1673ffffffffffffffffffffffffffffffffffffffff16145b611656576040517f08c379a000000000000000000000000000000000000000000000000000000000815260040161164d90613146565b60405180910390fd5b6004600086815260200190815260200160002060040160009054906101000a900473ffffffffffffffffffffffffffffffffffffffff1673ffffffffffffffffffffffffffffffffffffffff16630ff648f86116b187610ea8565b86600460008a81526020019081526020016000206005016040518463ffffffff1660e01b81526004016116e69392919061307f565b60206040518083038186803b1580156116fe57600080fd5b505afa158015611712573d6000803e3d6000fd5b505050506040513d601f19601f8201168201806040525081019061173691906129db565b611775576040517f08c379a000000000000000000000000000000000000000000000000000000000815260040161176c90613166565b60405180910390fd5b600073ffffffffffffffffffffffffffffffffffffffff166004600087815260200190815260200160002060000160009054906101000a900473ffffffffffffffffffffffffffffffffffffffff1673ffffffffffffffffffffffffffffffffffffffff1614156118485760003390508073ffffffffffffffffffffffffffffffffffffffff166108fc60046000898152602001908152602001600020600101549081150290604051600060405180830381858888f19350505050158015611841573d6000803e3d6000fd5b5050611923565b6004600086815260200190815260200160002060000160009054906101000a900473ffffffffffffffffffffffffffffffffffffffff1673ffffffffffffffffffffffffffffffffffffffff1663a9059cbb3360046000898152602001908152602001600020600101546040518363ffffffff1660e01b81526004016118cf929190612fd3565b602060405180830381600087803b1580156118e957600080fd5b505af11580156118fd573d6000803e3d6000fd5b505050506040513d601f19601f8201168201806040525081019061192191906129db565b505b61192c85611f83565b5050505050565b60006001905060005b6004600085815260200190815260200160002060020180549050811015611a21578473ffffffffffffffffffffffffffffffffffffffff166004600086815260200190815260200160002060020182815481106119c2577f4e487b7100000000000000000000000000000000000000000000000000000000600052603260045260246000fd5b9060005260206000200160009054906101000a900473ffffffffffffffffffffffffffffffffffffffff1673ffffffffffffffffffffffffffffffffffffffff161415611a0e57600091505b8080611a19906134bc565b91505061193c565b5083600460008581526020019081526020016000206002018381548110611a71577f4e487b7100000000000000000000000000000000000000000000000000000000600052603260045260246000fd5b9060005260206000200160006101000a81548173ffffffffffffffffffffffffffffffffffffffff021916908373ffffffffffffffffffffffffffffffffffffffff16021790555060006001905060005b6004600086815260200190815260200160002060020180549050811015611ba7578673ffffffffffffffffffffffffffffffffffffffff16600460008781526020019081526020016000206002018281548110611b48577f4e487b7100000000000000000000000000000000000000000000000000000000600052603260045260246000fd5b9060005260206000200160009054906101000a900473ffffffffffffffffffffffffffffffffffffffff1673ffffffffffffffffffffffffffffffffffffffff161415611b9457600091505b8080611b9f906134bc565b915050611ac2565b508115611c055760016000808773ffffffffffffffffffffffffffffffffffffffff1673ffffffffffffffffffffffffffffffffffffffff1681526020019081526020016000206000828254611bfd9190613321565b925050819055505b8015611c625760016000808873ffffffffffffffffffffffffffffffffffffffff1673ffffffffffffffffffffffffffffffffffffffff1681526020019081526020016000206000828254611c5a9190613377565b925050819055505b505050505050565b60008467ffffffffffffffff811115611cac577f4e487b7100000000000000000000000000000000000000000000000000000000600052604160045260246000fd5b604051908082528060200260200182016040528015611cda5781602001602082028036833780820191505090505b50905060005b85811015611d6f5788828281518110611d22577f4e487b7100000000000000000000000000000000000000000000000000000000600052603260045260246000fd5b602002602001019073ffffffffffffffffffffffffffffffffffffffff16908173ffffffffffffffffffffffffffffffffffffffff16815250508080611d67906134bc565b915050611ce0565b506040518060c001604052808873ffffffffffffffffffffffffffffffffffffffff1681526020018781526020018281526020018581526020018473ffffffffffffffffffffffffffffffffffffffff1681526020018381525060046000600554815260200190815260200160002060008201518160000160006101000a81548173ffffffffffffffffffffffffffffffffffffffff021916908373ffffffffffffffffffffffffffffffffffffffff160217905550602082015181600101556040820151816002019080519060200190611e4b929190612532565b506060820151816003019080519060200190611e689291906125bc565b5060808201518160040160006101000a81548173ffffffffffffffffffffffffffffffffffffffff021916908373ffffffffffffffffffffffffffffffffffffffff16021790555060a0820151816005019080519060200190611ecc929190612642565b5090505060016000808a73ffffffffffffffffffffffffffffffffffffffff1673ffffffffffffffffffffffffffffffffffffffff1681526020019081526020016000206000828254611f1f9190613321565b925050819055507f0ce3610e89a4bb9ec9359763f99110ed52a4abaea0b62028a1637e242ca2768b88600554604051611f59929190612fd3565b60405180910390a160056000815480929190611f74906134bc565b91905055505050505050505050565b60005b6004600083815260200190815260200160002060020180549050811015612430576000600460008481526020019081526020016000206002018281548110611ff7577f4e487b7100000000000000000000000000000000000000000000000000000000600052603260045260246000fd5b9060005260206000200160009054906101000a900473ffffffffffffffffffffffffffffffffffffffff169050600060036000858152602001908152602001600020600084815260200190815260200160002060009054906101000a900473ffffffffffffffffffffffffffffffffffffffff169050600073ffffffffffffffffffffffffffffffffffffffff168273ffffffffffffffffffffffffffffffffffffffff16146122785760016000808473ffffffffffffffffffffffffffffffffffffffff1673ffffffffffffffffffffffffffffffffffffffff16815260200190815260200160002060008282546120f09190613377565b9250508190555060008390505b6004600086815260200190815260200160002060020180549050811015612276578273ffffffffffffffffffffffffffffffffffffffff16600460008781526020019081526020016000206002018281548110612183577f4e487b7100000000000000000000000000000000000000000000000000000000600052603260045260246000fd5b9060005260206000200160009054906101000a900473ffffffffffffffffffffffffffffffffffffffff1673ffffffffffffffffffffffffffffffffffffffff16141561226357600060046000878152602001908152602001600020600201828154811061221a577f4e487b7100000000000000000000000000000000000000000000000000000000600052603260045260246000fd5b9060005260206000200160006101000a81548173ffffffffffffffffffffffffffffffffffffffff021916908373ffffffffffffffffffffffffffffffffffffffff1602179055505b808061226e906134bc565b9150506120fd565b505b600073ffffffffffffffffffffffffffffffffffffffff168173ffffffffffffffffffffffffffffffffffffffff161461241b5760018060008373ffffffffffffffffffffffffffffffffffffffff1673ffffffffffffffffffffffffffffffffffffffff16815260200190815260200160002060008282546122fb9190613377565b9250508190555060008390505b6004600086815260200190815260200160002060020180549050811015612419578173ffffffffffffffffffffffffffffffffffffffff1660036000878152602001908152602001600020600083815260200190815260200160002060009054906101000a900473ffffffffffffffffffffffffffffffffffffffff1673ffffffffffffffffffffffffffffffffffffffff16141561240657600060036000878152602001908152602001600020600083815260200190815260200160002060006101000a81548173ffffffffffffffffffffffffffffffffffffffff021916908373ffffffffffffffffffffffffffffffffffffffff1602179055505b8080612411906134bc565b915050612308565b505b50508080612428906134bc565b915050611f86565b5060046000828152602001908152602001600020600080820160006101000a81549073ffffffffffffffffffffffffffffffffffffffff0219169055600182016000905560028201600061248491906126c8565b60038201600061249491906126e9565b6004820160006101000a81549073ffffffffffffffffffffffffffffffffffffffff02191690556005820160006124cb9190612729565b505050565b6040518060c00160405280600073ffffffffffffffffffffffffffffffffffffffff168152602001600081526020016060815260200160608152602001600073ffffffffffffffffffffffffffffffffffffffff168152602001606081525090565b8280548282559060005260206000209081019282156125ab579160200282015b828111156125aa5782518260006101000a81548173ffffffffffffffffffffffffffffffffffffffff021916908373ffffffffffffffffffffffffffffffffffffffff16021790555091602001919060010190612552565b5b5090506125b89190612769565b5090565b8280546125c890613459565b90600052602060002090601f0160209004810192826125ea5760008555612631565b82601f1061260357805160ff1916838001178555612631565b82800160010185558215612631579182015b82811115612630578251825591602001919060010190612615565b5b50905061263e9190612769565b5090565b82805461264e90613459565b90600052602060002090601f01602090048101928261267057600085556126b7565b82601f1061268957805160ff19168380011785556126b7565b828001600101855582156126b7579182015b828111156126b657825182559160200191906001019061269b565b5b5090506126c49190612769565b5090565b50805460008255906000526020600020908101906126e69190612769565b50565b5080546126f590613459565b6000825580601f106127075750612726565b601f0160209004906000526020600020908101906127259190612769565b5b50565b50805461273590613459565b6000825580601f106127475750612766565b601f0160209004906000526020600020908101906127659190612769565b5b50565b5b8082111561278257600081600090555060010161276a565b5090565b6000612799612794846131cd565b6131a8565b9050828152602081018484840111156127b157600080fd5b6127bc848285613417565b509392505050565b60006127d76127d2846131fe565b6131a8565b9050828152602081018484840111156127ef57600080fd5b6127fa848285613417565b509392505050565b600081359050612811816136bc565b92915050565b600081519050612826816136d3565b92915050565b600082601f83011261283d57600080fd5b813561284d848260208601612786565b91505092915050565b600082601f83011261286757600080fd5b81356128778482602086016127c4565b91505092915050565b60008135905061288f816136ea565b92915050565b6000815190506128a4816136ea565b92915050565b6000602082840312156128bc57600080fd5b60006128ca84828501612802565b91505092915050565b6000806000606084860312156128e857600080fd5b60006128f686828701612802565b935050602061290786828701612880565b925050604061291886828701612880565b9150509250925092565b60008060008060008060c0878903121561293b57600080fd5b600061294989828a01612802565b965050602061295a89828a01612880565b955050604061296b89828a01612880565b945050606087013567ffffffffffffffff81111561298857600080fd5b61299489828a01612856565b93505060806129a589828a01612802565b92505060a087013567ffffffffffffffff8111156129c257600080fd5b6129ce89828a0161282c565b9150509295509295509295565b6000602082840312156129ed57600080fd5b60006129fb84828501612817565b91505092915050565b600060208284031215612a1657600080fd5b6000612a2484828501612880565b91505092915050565b600060208284031215612a3f57600080fd5b6000612a4d84828501612895565b91505092915050565b60008060008060808587031215612a6c57600080fd5b6000612a7a87828801612880565b945050602085013567ffffffffffffffff811115612a9757600080fd5b612aa387828801612856565b9350506040612ab487828801612802565b925050606085013567ffffffffffffffff811115612ad157600080fd5b612add8782880161282c565b91505092959194509250565b60008060408385031215612afc57600080fd5b6000612b0a85828601612880565b9250506020612b1b85828601612880565b9150509250929050565b6000612b318383612b55565b60208301905092915050565b6000612b498383612f55565b60208301905092915050565b612b5e816133ab565b82525050565b612b6d816133ab565b82525050565b6000612b7e82613264565b612b8881856132aa565b9350612b938361322f565b8060005b83811015612bc4578151612bab8882612b25565b9750612bb683613290565b925050600181019050612b97565b5085935050505092915050565b6000612bdc82613264565b612be681856132bb565b9350612bf18361322f565b8060005b83811015612c22578151612c098882612b25565b9750612c1483613290565b925050600181019050612bf5565b5085935050505092915050565b6000612c3a8261326f565b612c4481856132cc565b9350612c4f8361323f565b8060005b83811015612c80578151612c678882612b3d565b9750612c728361329d565b925050600181019050612c53565b5085935050505092915050565b6000612c988261327a565b612ca281856132dd565b9350612cb2818560208601613426565b612cbb81613592565b840191505092915050565b6000612cd18261327a565b612cdb81856132ee565b9350612ceb818560208601613426565b612cf481613592565b840191505092915050565b60008154612d0c81613459565b612d1681866132ee565b94506001821660008114612d315760018114612d4357612d76565b60ff1983168652602086019350612d76565b612d4c8561324f565b60005b83811015612d6e57815481890152600182019150602081019050612d4f565b808801955050505b50505092915050565b612d88816133f3565b82525050565b612d97816133f3565b82525050565b6000612da882613285565b612db281856132ff565b9350612dc2818560208601613426565b612dcb81613592565b840191505092915050565b6000612de182613285565b612deb8185613310565b9350612dfb818560208601613426565b612e0481613592565b840191505092915050565b6000612e1c602083613310565b9150612e27826135a3565b602082019050919050565b6000612e3f601d83613310565b9150612e4a826135cc565b602082019050919050565b6000612e62602783613310565b9150612e6d826135f5565b604082019050919050565b6000612e85602a83613310565b9150612e9082613644565b604082019050919050565b6000612ea8601d83613310565b9150612eb382613693565b602082019050919050565b600060c083016000830151612ed66000860182612b55565b506020830151612ee96020860182612f55565b5060408301518482036040860152612f018282612b73565b91505060608301518482036060860152612f1b8282612d9d565b9150506080830151612f306080860182612d7f565b5060a083015184820360a0860152612f488282612c8d565b9150508091505092915050565b612f5e816133e9565b82525050565b612f6d816133e9565b82525050565b6000604082019050612f886000830185612b64565b612f956020830184612b64565b9392505050565b6000606082019050612fb16000830186612b64565b612fbe6020830185612b64565b612fcb6040830184612f64565b949350505050565b6000604082019050612fe86000830185612b64565b612ff56020830184612f64565b9392505050565b600060a0820190506130116000830188612b64565b61301e6020830187612f64565b81810360408301526130308186612dd6565b905061303f6060830185612d8e565b81810360808301526130518184612cc6565b90509695505050505050565b600060208201905081810360008301526130778184612bd1565b905092915050565b600060608201905081810360008301526130998186612bd1565b90506130a86020830185612f64565b81810360408301526130ba8184612cff565b9050949350505050565b600060208201905081810360008301526130de8184612c2f565b905092915050565b600060208201905081810360008301526130ff81612e0f565b9050919050565b6000602082019050818103600083015261311f81612e32565b9050919050565b6000602082019050818103600083015261313f81612e55565b9050919050565b6000602082019050818103600083015261315f81612e78565b9050919050565b6000602082019050818103600083015261317f81612e9b565b9050919050565b600060208201905081810360008301526131a08184612ebe565b905092915050565b60006131b26131c3565b90506131be828261348b565b919050565b6000604051905090565b600067ffffffffffffffff8211156131e8576131e7613563565b5b6131f182613592565b9050602081019050919050565b600067ffffffffffffffff82111561321957613218613563565b5b61322282613592565b9050602081019050919050565b6000819050602082019050919050565b6000819050602082019050919050565b60008190508160005260206000209050919050565b600081519050919050565b600081519050919050565b600081519050919050565b600081519050919050565b6000602082019050919050565b6000602082019050919050565b600082825260208201905092915050565b600082825260208201905092915050565b600082825260208201905092915050565b600082825260208201905092915050565b600082825260208201905092915050565b600082825260208201905092915050565b600082825260208201905092915050565b600061332c826133e9565b9150613337836133e9565b9250827fffffffffffffffffffffffffffffffffffffffffffffffffffffffffffffffff0382111561336c5761336b613505565b5b828201905092915050565b6000613382826133e9565b915061338d836133e9565b9250828210156133a05761339f613505565b5b828203905092915050565b60006133b6826133c9565b9050919050565b60008115159050919050565b600073ffffffffffffffffffffffffffffffffffffffff82169050919050565b6000819050919050565b60006133fe82613405565b9050919050565b6000613410826133c9565b9050919050565b82818337600083830152505050565b60005b83811015613444578082015181840152602081019050613429565b83811115613453576000848401525b50505050565b6000600282049050600182168061347157607f821691505b6020821081141561348557613484613534565b5b50919050565b61349482613592565b810181811067ffffffffffffffff821117156134b3576134b2613563565b5b80604052505050565b60006134c7826133e9565b91507fffffffffffffffffffffffffffffffffffffffffffffffffffffffffffffffff8214156134fa576134f9613505565b5b600182019050919050565b7f4e487b7100000000000000000000000000000000000000000000000000000000600052601160045260246000fd5b7f4e487b7100000000000000000000000000000000000000000000000000000000600052602260045260246000fd5b7f4e487b7100000000000000000000000000000000000000000000000000000000600052604160045260246000fd5b6000601f19601f8301169050919050565b7f4f776e657273686970206372697465726961206e6f742066756c66696c6c6564600082015250565b7f496e73756666696369656e7420617070726f76656420616d6f756e742e000000600082015250565b7f596f752068617665206e6f74206265656e20617070726f76656420746f20747260008201527f616e736665722e00000000000000000000000000000000000000000000000000602082015250565b7f456666656374697665206f776e657273686970206372697465726961206e6f7460008201527f2066756c66696c6c656400000000000000000000000000000000000000000000602082015250565b7f4c69717569646174696f6e206372697465726961206e6f74206d65742e000000600082015250565b6136c5816133ab565b81146136d057600080fd5b50565b6136dc816133bd565b81146136e757600080fd5b50565b6136f3816133e9565b81146136fe57600080fd5b5056fea264697066735822122032ecd3a1a326e75353f5a7e40bc37dc2c2e4c0956f5f2c193dc7f20c33c3a6a864736f6c63430008030033",
  "immutableReferences": {},
  "source": "// SPDX-License-Identifier: UNLICENSED\r\npragma solidity ^0.8.3;\r\n\r\nimport \"@openzeppelin/contracts/token/ERC20/extensions/IERC20Metadata.sol\"; \r\nimport \"@openzeppelin/contracts/token/ERC20/IERC20.sol\"; \r\n\r\nimport \"./ILiquidationCheck.sol\"; \r\n\r\ncontract Collaterize {\r\n\r\n    event Created(address from, uint256 id);\r\n    event TransferKey(address from, address to, uint256 id);\r\n    event Liquidated(address by, uint256 id);\r\n\r\n    struct Collateral {\r\n        address token; \r\n        uint256 amount;\r\n        address[] accounts;\r\n        string uri;\r\n        ILiquidationCheck liquidation;\r\n        bytes args;\r\n    }\r\n\r\n    mapping(address => uint256) private _ownedBalance; \r\n    mapping(address => uint256) private _delegateBalance; \r\n    mapping(uint256 => mapping(uint256=>address)) private _collateralApprovals; \r\n    mapping(uint256 => mapping(uint256=>address)) private _collateralDelegates; \r\n    mapping(uint256 => Collateral) public _collaterals;\r\n\r\n    uint256 private _counter;\r\n\r\n    constructor() {\r\n    }\r\n\r\n    modifier isOwner(address caller, uint256 id, uint256 index) {\r\n        require(_collaterals[id].accounts[index] == caller, \"Ownership criteria not fulfilled\");\r\n        _;\r\n    }\r\n\r\n    modifier isEffectiveOwner(address caller, uint256 id, uint256 index) {\r\n        require((_collateralDelegates[id][index] == address(0) && _collaterals[id].accounts[index] == caller) || _collateralDelegates[id][index] == caller, \"Effective ownership criteria not fulfilled\");\r\n        _;\r\n    }\r\n\r\n\r\n    function createCollateralERC20(address token, uint256 amount, uint256 accounts, string memory uri, address liquidation, bytes memory args) external {\r\n        IERC20 tokenContract = IERC20(token);\r\n        require(tokenContract.allowance(msg.sender, address(this)) >= amount, \"Insufficient approved amount.\");\r\n        tokenContract.transferFrom(msg.sender, address(this), amount); \r\n        _create(msg.sender, token, amount, accounts, uri, liquidation, args);\r\n    }\r\n\r\n    function createCollateralETH(uint256 accounts, string memory uri, address liquidation, bytes memory args) external payable {\r\n        _create(msg.sender, address(0), msg.value, accounts, uri, liquidation, args);\r\n    }\r\n\r\n    function getOwnedCollaterals(address account) external view returns(uint256[] memory) {\r\n        uint256[] memory idList = new uint256[](_ownedBalance[account]); \r\n        uint256 counter = 0;\r\n        for (uint i = 0; i<_counter; i++) {\r\n            for (uint j = 0; j < _collaterals[i].accounts.length; j++) {\r\n                if (_collaterals[i].accounts[j] == account) {\r\n                    idList[counter++] = i;\r\n                    break;\r\n                } \r\n            }\r\n        }\r\n        return idList;\r\n    }\r\n\r\n    function getShadowedCollaterals(address account) external view returns(uint256[] memory) {\r\n        uint256[] memory idList = new uint256[](_delegateBalance[account]); \r\n        uint256 counter = 0;\r\n        for (uint i = 0; i<_counter; i++) {\r\n            for (uint j = 0; j < _collaterals[i].accounts.length; j++) {\r\n                if (_collateralDelegates[i][j] == account) {\r\n                    idList[counter++] = i;\r\n                    break;\r\n                } \r\n            }\r\n        }\r\n        return idList;\r\n    }\r\n\r\n    function getCollateral(uint256 id) external view returns (Collateral memory) {\r\n        return _collaterals[id];\r\n    }\r\n\r\n    function getEffectiveOwners(uint256 id) public view returns(address[] memory) {\r\n        address[] memory accounts = new address[](_collaterals[id].accounts.length); \r\n        for (uint i = 0; i < _collaterals[id].accounts.length; i++) {\r\n            if (_collateralDelegates[id][i] == address(0)) {\r\n                accounts[i] = _collaterals[id].accounts[i];\r\n            } else {\r\n                accounts[i] = _collateralDelegates[id][i];\r\n            }\r\n        }\r\n        return accounts;\r\n    }\r\n\r\n    function transfer(address to, uint256 id, uint256 index) isOwner(msg.sender, id, index) public {\r\n        _transfer(msg.sender, to, id, index);\r\n    }\r\n\r\n    function approve(address to, uint256 id, uint256 index) isOwner(msg.sender, id, index) public {\r\n        _collateralApprovals[id][index] = to;\r\n    }\r\n\r\n    function delegate(address to, uint256 id, uint256 index) isOwner(msg.sender, id, index) public {\r\n        _collateralDelegates[id][index] = to;\r\n    }\r\n\r\n    function transferFrom(address to, uint256 id, uint256 index) public {\r\n        require(_collateralApprovals[id][index] == msg.sender, \"You have not been approved to transfer.\"); \r\n        address previousOwner = _collaterals[id].accounts[index];\r\n        _transfer(previousOwner, to, id, index);\r\n    }\r\n\r\n    function liquidate(uint256 id, uint256 index) isEffectiveOwner(msg.sender, id, index) public {\r\n        require(ILiquidationCheck(_collaterals[id].liquidation)\r\n        .liquidationCheck(\r\n            getEffectiveOwners(id), \r\n            index, \r\n            _collaterals[id].args), \"Liquidation criteria not met.\");\r\n        if (_collaterals[id].token == address(0)) {\r\n            address payable recepient = payable(msg.sender);\r\n            recepient.transfer(_collaterals[id].amount);\r\n        } else {\r\n            IERC20(_collaterals[id].token).transfer(msg.sender, _collaterals[id].amount);\r\n        }\r\n        _remove(id);\r\n    }\r\n\r\n    function _transfer(address from, address to, uint256 id, uint256 index) internal {\r\n        bool gainedOwnership = true;\r\n        for (uint i = 0; i < _collaterals[id].accounts.length; i++) {\r\n            if (_collaterals[id].accounts[i] == to) {\r\n                gainedOwnership = false;\r\n            }\r\n        }\r\n        _collaterals[id].accounts[index] = to;\r\n        bool lostOwnership = true;\r\n        for (uint i = 0; i < _collaterals[id].accounts.length; i++) {\r\n            if (_collaterals[id].accounts[i] == from) {\r\n                lostOwnership = false;\r\n            }\r\n        }\r\n        if (gainedOwnership) _ownedBalance[to] += 1;\r\n        if (lostOwnership) _ownedBalance[from] -= 1;\r\n    }\r\n\r\n    function _create(address from, address token, uint256 amount, uint256 accounts, string memory uri, address liquidation, bytes memory args) internal {\r\n        address[] memory holders = new address[](accounts);\r\n        for (uint i = 0; i < accounts; i++) holders[i] = from; \r\n        _collaterals[_counter] = Collateral(\r\n            token, amount, holders, uri, ILiquidationCheck(liquidation), args\r\n        );\r\n        _ownedBalance[from] += 1;\r\n        emit Created(from, _counter);\r\n        _counter++;\r\n    }\r\n\r\n    function _remove(uint256 id) internal {\r\n        for (uint i = 0; i < _collaterals[id].accounts.length; i++) {\r\n            address owner = _collaterals[id].accounts[i];\r\n            address shadowedAddress = _collateralDelegates[id][i]; \r\n            if (owner != address(0)) {\r\n                _ownedBalance[owner] -= 1;\r\n                for (uint j = i; j < _collaterals[id].accounts.length; j++) {\r\n                    if (_collaterals[id].accounts[j] == owner) {\r\n                        _collaterals[id].accounts[j] = address(0); \r\n                    }\r\n                }\r\n            }\r\n            if (shadowedAddress != address(0)) {\r\n                _delegateBalance[shadowedAddress] -= 1;\r\n                for (uint j = i; j < _collaterals[id].accounts.length; j++) {\r\n                    if (_collateralDelegates[id][j] == shadowedAddress) {\r\n                        _collateralDelegates[id][j] = address(0); \r\n                    }\r\n                }\r\n            }\r\n           \r\n        }\r\n        delete _collaterals[id]; \r\n    }\r\n\r\n\r\n}",
  "sourcePath": "C:/Users/Kuan/Documents/GitHub/collaterize/contracts/Collaterize.sol",
  "compiler": {
    "name": "solc",
    "version": "0.8.3+commit.8d00100c.Emscripten.clang"
  },
  "schemaVersion": "3.3.4",
  "updatedAt": "2021-06-27T03:30:04.953Z",
  "networkType": "ethereum",
  "devdoc": {
    "kind": "dev",
    "methods": {},
    "version": 1
  },
  "userdoc": {
    "kind": "user",
    "methods": {},
    "version": 1
  }
}