{
  "contractName": "CountLiquidationCheck",
  "abi": [
    {
      "inputs": [],
      "stateMutability": "nonpayable",
      "type": "constructor"
    },
    {
      "inputs": [
        {
          "internalType": "address[]",
          "name": "accounts",
          "type": "address[]"
        },
        {
          "internalType": "uint256",
          "name": "index",
          "type": "uint256"
        },
        {
          "internalType": "bytes",
          "name": "args",
          "type": "bytes"
        }
      ],
      "name": "liquidationCheck",
      "outputs": [
        {
          "internalType": "bool",
          "name": "",
          "type": "bool"
        }
      ],
      "stateMutability": "view",
      "type": "function",
      "constant": true
    }
  ],
  "bytecode": "0x608060405234801561001057600080fd5b50610861806100206000396000f3fe608060405234801561001057600080fd5b506004361061002b5760003560e01c80630ff648f814610030575b600080fd5b61004a60048036038101906100459190610330565b610060565b60405161005791906103be565b60405180910390f35b60008060005b83518110156101145760018161007c919061045b565b8451610088919061067c565b60086100949190610622565b60026100a09190610504565b8482815181106100d9577f4e487b7100000000000000000000000000000000000000000000000000000000600052603260045260246000fd5b602001015160f81c60f81b60f81c60ff166100f49190610622565b826100ff919061045b565b9150808061010c90610738565b915050610066565b506000805b86518110156101f85786868151811061015b577f4e487b7100000000000000000000000000000000000000000000000000000000600052603260045260246000fd5b602002602001015173ffffffffffffffffffffffffffffffffffffffff168782815181106101b2577f4e487b7100000000000000000000000000000000000000000000000000000000600052603260045260246000fd5b602002602001015173ffffffffffffffffffffffffffffffffffffffff1614156101e55781806101e190610738565b9250505b80806101f090610738565b915050610119565b5081811015925050509392505050565b600061021b610216846103fe565b6103d9565b9050808382526020820190508285602086028201111561023a57600080fd5b60005b8581101561026a578161025088826102b2565b84526020840193506020830192505060018101905061023d565b5050509392505050565b60006102876102828461042a565b6103d9565b90508281526020810184848401111561029f57600080fd5b6102aa8482856106f8565b509392505050565b6000813590506102c1816107fd565b92915050565b600082601f8301126102d857600080fd5b81356102e8848260208601610208565b91505092915050565b600082601f83011261030257600080fd5b8135610312848260208601610274565b91505092915050565b60008135905061032a81610814565b92915050565b60008060006060848603121561034557600080fd5b600084013567ffffffffffffffff81111561035f57600080fd5b61036b868287016102c7565b935050602061037c8682870161031b565b925050604084013567ffffffffffffffff81111561039957600080fd5b6103a5868287016102f1565b9150509250925092565b6103b8816106c2565b82525050565b60006020820190506103d360008301846103af565b92915050565b60006103e36103f4565b90506103ef8282610707565b919050565b6000604051905090565b600067ffffffffffffffff821115610419576104186107b0565b5b602082029050602081019050919050565b600067ffffffffffffffff821115610445576104446107b0565b5b61044e826107df565b9050602081019050919050565b6000610466826106ee565b9150610471836106ee565b9250827fffffffffffffffffffffffffffffffffffffffffffffffffffffffffffffffff038211156104a6576104a5610781565b5b828201905092915050565b6000808291508390505b60018511156104fb578086048111156104d7576104d6610781565b5b60018516156104e65780820291505b80810290506104f4856107f0565b94506104bb565b94509492505050565b600061050f826106ee565b915061051a836106ee565b92506105477fffffffffffffffffffffffffffffffffffffffffffffffffffffffffffffffff848461054f565b905092915050565b60008261055f576001905061061b565b8161056d576000905061061b565b8160018114610583576002811461058d576105bc565b600191505061061b565b60ff84111561059f5761059e610781565b5b8360020a9150848211156105b6576105b5610781565b5b5061061b565b5060208310610133831016604e8410600b84101617156105f15782820a9050838111156105ec576105eb610781565b5b61061b565b6105fe84848460016104b1565b9250905081840481111561061557610614610781565b5b81810290505b9392505050565b600061062d826106ee565b9150610638836106ee565b9250817fffffffffffffffffffffffffffffffffffffffffffffffffffffffffffffffff048311821515161561067157610670610781565b5b828202905092915050565b6000610687826106ee565b9150610692836106ee565b9250828210156106a5576106a4610781565b5b828203905092915050565b60006106bb826106ce565b9050919050565b60008115159050919050565b600073ffffffffffffffffffffffffffffffffffffffff82169050919050565b6000819050919050565b82818337600083830152505050565b610710826107df565b810181811067ffffffffffffffff8211171561072f5761072e6107b0565b5b80604052505050565b6000610743826106ee565b91507fffffffffffffffffffffffffffffffffffffffffffffffffffffffffffffffff82141561077657610775610781565b5b600182019050919050565b7f4e487b7100000000000000000000000000000000000000000000000000000000600052601160045260246000fd5b7f4e487b7100000000000000000000000000000000000000000000000000000000600052604160045260246000fd5b6000601f19601f8301169050919050565b60008160011c9050919050565b610806816106b0565b811461081157600080fd5b50565b61081d816106ee565b811461082857600080fd5b5056fea2646970667358221220fdc50613fde00f3ca5c1c9b96ea0716c055c7cad8d7019dc2d927ad46d0e791464736f6c63430008030033",
  "immutableReferences": {},
  "source": "pragma solidity ^0.8.3; \r\n\r\nimport \"./Keylink.sol\"; \r\nimport \"./ILiquidationCheck.sol\";\r\n\r\ncontract CountLiquidationCheck is ILiquidationCheck {\r\n\r\n    \r\n    constructor() ILiquidationCheck() {}\r\n\r\n    function liquidationCheck(address[] memory accounts, uint256 index, bytes memory args) \r\n    external \r\n    view \r\n    override \r\n    returns(bool) {\r\n        uint256 threshold;\r\n        for(uint i=0;i<args.length;i++){\r\n            threshold = threshold + uint(uint8(args[i]))*(2**(8*(args.length-(i+1))));\r\n        }\r\n        \r\n        uint256 count = 0;\r\n        for (uint i = 0; i < accounts.length; i++) {\r\n            if (accounts[i] == accounts[index]) count++;\r\n        }\r\n        return count >= threshold;\r\n    }\r\n\r\n\r\n}",
  "sourcePath": "C:/Users/Kuan/Documents/GitHub/collaterize/contracts/CountLiquidationCheck.sol",
  "compiler": {
    "name": "solc",
    "version": "0.8.3+commit.8d00100c.Emscripten.clang"
  },
  "schemaVersion": "3.3.4",
  "updatedAt": "2021-07-02T03:30:07.530Z",
  "networkType": "ethereum",
  "devdoc": {
    "kind": "dev",
    "methods": {},
    "version": 1
  },
  "userdoc": {
    "kind": "user",
    "methods": {},
    "version": 1
  }
}