{
  "contractName": "Keylink",
  "abi": [
    {
      "inputs": [],
      "stateMutability": "nonpayable",
      "type": "constructor"
    },
    {
      "anonymous": false,
      "inputs": [
        {
          "indexed": false,
          "internalType": "address",
          "name": "from",
          "type": "address"
        },
        {
          "indexed": false,
          "internalType": "uint256",
          "name": "id",
          "type": "uint256"
        }
      ],
      "name": "Created",
      "type": "event"
    },
    {
      "anonymous": false,
      "inputs": [
        {
          "indexed": false,
          "internalType": "address",
          "name": "by",
          "type": "address"
        },
        {
          "indexed": false,
          "internalType": "uint256",
          "name": "id",
          "type": "uint256"
        }
      ],
      "name": "Liquidated",
      "type": "event"
    },
    {
      "anonymous": false,
      "inputs": [
        {
          "indexed": false,
          "internalType": "address",
          "name": "from",
          "type": "address"
        },
        {
          "indexed": false,
          "internalType": "address",
          "name": "to",
          "type": "address"
        },
        {
          "indexed": false,
          "internalType": "uint256",
          "name": "id",
          "type": "uint256"
        }
      ],
      "name": "TransferKey",
      "type": "event"
    },
    {
      "inputs": [
        {
          "internalType": "uint256",
          "name": "",
          "type": "uint256"
        }
      ],
      "name": "_collaterals",
      "outputs": [
        {
          "internalType": "address",
          "name": "token",
          "type": "address"
        },
        {
          "internalType": "uint256",
          "name": "amount",
          "type": "uint256"
        },
        {
          "internalType": "string",
          "name": "uri",
          "type": "string"
        },
        {
          "internalType": "contract ILiquidationCheck",
          "name": "liquidation",
          "type": "address"
        },
        {
          "internalType": "bytes",
          "name": "args",
          "type": "bytes"
        }
      ],
      "stateMutability": "view",
      "type": "function",
      "constant": true
    },
    {
      "inputs": [
        {
          "internalType": "uint256",
          "name": "id",
          "type": "uint256"
        },
        {
          "internalType": "uint256",
          "name": "index",
          "type": "uint256"
        }
      ],
      "name": "ownerOf",
      "outputs": [
        {
          "internalType": "address",
          "name": "",
          "type": "address"
        }
      ],
      "stateMutability": "view",
      "type": "function",
      "constant": true
    },
    {
      "inputs": [
        {
          "internalType": "address",
          "name": "token",
          "type": "address"
        },
        {
          "internalType": "uint256",
          "name": "amount",
          "type": "uint256"
        },
        {
          "internalType": "uint256",
          "name": "accounts",
          "type": "uint256"
        },
        {
          "internalType": "string",
          "name": "uri",
          "type": "string"
        },
        {
          "internalType": "address",
          "name": "liquidation",
          "type": "address"
        },
        {
          "internalType": "bytes",
          "name": "args",
          "type": "bytes"
        }
      ],
      "name": "createCollateralERC20",
      "outputs": [],
      "stateMutability": "nonpayable",
      "type": "function"
    },
    {
      "inputs": [
        {
          "internalType": "uint256",
          "name": "accounts",
          "type": "uint256"
        },
        {
          "internalType": "string",
          "name": "uri",
          "type": "string"
        },
        {
          "internalType": "address",
          "name": "liquidation",
          "type": "address"
        },
        {
          "internalType": "bytes",
          "name": "args",
          "type": "bytes"
        }
      ],
      "name": "createCollateralETH",
      "outputs": [],
      "stateMutability": "payable",
      "type": "function",
      "payable": true
    },
    {
      "inputs": [
        {
          "internalType": "address",
          "name": "account",
          "type": "address"
        }
      ],
      "name": "getOwnedCollaterals",
      "outputs": [
        {
          "internalType": "uint256[]",
          "name": "",
          "type": "uint256[]"
        }
      ],
      "stateMutability": "view",
      "type": "function",
      "constant": true
    },
    {
      "inputs": [
        {
          "internalType": "address",
          "name": "account",
          "type": "address"
        }
      ],
      "name": "getDelegatedCollaterals",
      "outputs": [
        {
          "internalType": "uint256[]",
          "name": "",
          "type": "uint256[]"
        }
      ],
      "stateMutability": "view",
      "type": "function",
      "constant": true
    },
    {
      "inputs": [
        {
          "internalType": "uint256",
          "name": "id",
          "type": "uint256"
        }
      ],
      "name": "getCollateral",
      "outputs": [
        {
          "components": [
            {
              "internalType": "address",
              "name": "token",
              "type": "address"
            },
            {
              "internalType": "uint256",
              "name": "amount",
              "type": "uint256"
            },
            {
              "internalType": "address[]",
              "name": "accounts",
              "type": "address[]"
            },
            {
              "internalType": "string",
              "name": "uri",
              "type": "string"
            },
            {
              "internalType": "contract ILiquidationCheck",
              "name": "liquidation",
              "type": "address"
            },
            {
              "internalType": "bytes",
              "name": "args",
              "type": "bytes"
            }
          ],
          "internalType": "struct Keylink.Collateral",
          "name": "",
          "type": "tuple"
        }
      ],
      "stateMutability": "view",
      "type": "function",
      "constant": true
    },
    {
      "inputs": [
        {
          "internalType": "uint256",
          "name": "id",
          "type": "uint256"
        }
      ],
      "name": "getEffectiveOwners",
      "outputs": [
        {
          "internalType": "address[]",
          "name": "",
          "type": "address[]"
        }
      ],
      "stateMutability": "view",
      "type": "function",
      "constant": true
    },
    {
      "inputs": [
        {
          "internalType": "uint256",
          "name": "id",
          "type": "uint256"
        },
        {
          "internalType": "uint256",
          "name": "index",
          "type": "uint256"
        }
      ],
      "name": "getEffectiveOwner",
      "outputs": [
        {
          "internalType": "address",
          "name": "",
          "type": "address"
        }
      ],
      "stateMutability": "view",
      "type": "function",
      "constant": true
    },
    {
      "inputs": [
        {
          "internalType": "address",
          "name": "to",
          "type": "address"
        },
        {
          "internalType": "uint256",
          "name": "id",
          "type": "uint256"
        },
        {
          "internalType": "uint256",
          "name": "index",
          "type": "uint256"
        }
      ],
      "name": "transfer",
      "outputs": [],
      "stateMutability": "nonpayable",
      "type": "function"
    },
    {
      "inputs": [
        {
          "internalType": "address",
          "name": "to",
          "type": "address"
        },
        {
          "internalType": "uint256",
          "name": "id",
          "type": "uint256"
        },
        {
          "internalType": "uint256",
          "name": "index",
          "type": "uint256"
        }
      ],
      "name": "approve",
      "outputs": [],
      "stateMutability": "nonpayable",
      "type": "function"
    },
    {
      "inputs": [
        {
          "internalType": "address",
          "name": "to",
          "type": "address"
        },
        {
          "internalType": "uint256",
          "name": "id",
          "type": "uint256"
        },
        {
          "internalType": "uint256",
          "name": "index",
          "type": "uint256"
        }
      ],
      "name": "delegate",
      "outputs": [],
      "stateMutability": "nonpayable",
      "type": "function"
    },
    {
      "inputs": [
        {
          "internalType": "address",
          "name": "to",
          "type": "address"
        },
        {
          "internalType": "uint256",
          "name": "id",
          "type": "uint256"
        },
        {
          "internalType": "uint256",
          "name": "index",
          "type": "uint256"
        }
      ],
      "name": "transferFrom",
      "outputs": [],
      "stateMutability": "nonpayable",
      "type": "function"
    },
    {
      "inputs": [
        {
          "internalType": "uint256",
          "name": "id",
          "type": "uint256"
        },
        {
          "internalType": "uint256",
          "name": "index",
          "type": "uint256"
        }
      ],
      "name": "liquidate",
      "outputs": [],
      "stateMutability": "nonpayable",
      "type": "function"
    },
    {
      "inputs": [
        {
          "internalType": "address",
          "name": "holder",
          "type": "address"
        }
      ],
      "name": "_callDelegationCheck",
      "outputs": [
        {
          "internalType": "bool",
          "name": "",
          "type": "bool"
        }
      ],
      "stateMutability": "nonpayable",
      "type": "function"
    }
  ],
  "bytecode": "0x608060405234801561001057600080fd5b50613a88806100206000396000f3fe6080604052600436106100e85760003560e01c8063546768161161008a57806377dbbd761161005957806377dbbd761461031b57806388ed33b114610344578063d296d1f114610385578063d9dad80d146103ae576100e8565b80635467681614610248578063547aa02d1461028557806358c71bc0146102c25780636bd64ee4146102ff576100e8565b806328742140116100c657806328742140146101685780632a62a490146101a55780633fb19110146101e2578063426a84931461021f576100e8565b80630185921e146100ed578063095bcdb6146101165780630eed2f131461013f575b600080fd5b3480156100f957600080fd5b50610114600480360381019061010f9190612b4a565b6103eb565b005b34801561012257600080fd5b5061013d60048036038101906101389190612b4a565b61053f565b005b34801561014b57600080fd5b5061016660048036038101906101619190612b99565b61063c565b005b34801561017457600080fd5b5061018f600480360381019061018a9190612af8565b6107b6565b60405161019c9190613388565b60405180910390f35b3480156101b157600080fd5b506101cc60048036038101906101c79190612c7b565b6109d0565b6040516101d99190613485565b60405180910390f35b3480156101ee57600080fd5b5061020960048036038101906102049190612af8565b610c65565b60405161021691906133aa565b60405180910390f35b34801561022b57600080fd5b5061024660048036038101906102419190612b4a565b610d49565b005b34801561025457600080fd5b5061026f600480360381019061026a9190612c7b565b610e9d565b60405161027c9190613321565b60405180910390f35b34801561029157600080fd5b506102ac60048036038101906102a79190612af8565b610fe9565b6040516102b99190613388565b60405180910390f35b3480156102ce57600080fd5b506102e960048036038101906102e49190612d60565b6111d0565b6040516102f6919061321c565b60405180910390f35b61031960048036038101906103149190612ccd565b6113c4565b005b34801561032757600080fd5b50610342600480360381019061033d9190612b4a565b6113da565b005b34801561035057600080fd5b5061036b60048036038101906103669190612c7b565b61151b565b60405161037c9594939291906132c0565b60405180910390f35b34801561039157600080fd5b506103ac60048036038101906103a79190612d60565b6116a1565b005b3480156103ba57600080fd5b506103d560048036038101906103d09190612d60565b6119f8565b6040516103e2919061321c565b60405180910390f35b3382828273ffffffffffffffffffffffffffffffffffffffff16600460008481526020019081526020016000206002018281548110610453577f4e487b7100000000000000000000000000000000000000000000000000000000600052603260045260246000fd5b9060005260206000200160009054906101000a900473ffffffffffffffffffffffffffffffffffffffff1673ffffffffffffffffffffffffffffffffffffffff16146104d4576040517f08c379a00000000000000000000000000000000000000000000000000000000081526004016104cb906133e5565b60405180910390fd5b8560036000878152602001908152602001600020600086815260200190815260200160002060006101000a81548173ffffffffffffffffffffffffffffffffffffffff021916908373ffffffffffffffffffffffffffffffffffffffff160217905550505050505050565b3382828273ffffffffffffffffffffffffffffffffffffffff166004600084815260200190815260200160002060020182815481106105a7577f4e487b7100000000000000000000000000000000000000000000000000000000600052603260045260246000fd5b9060005260206000200160009054906101000a900473ffffffffffffffffffffffffffffffffffffffff1673ffffffffffffffffffffffffffffffffffffffff1614610628576040517f08c379a000000000000000000000000000000000000000000000000000000000815260040161061f906133e5565b60405180910390fd5b61063433878787611a7b565b505050505050565b6000869050858173ffffffffffffffffffffffffffffffffffffffff1663dd62ed3e33306040518363ffffffff1660e01b815260040161067d929190613237565b60206040518083038186803b15801561069557600080fd5b505afa1580156106a9573d6000803e3d6000fd5b505050506040513d601f19601f820116820180604052508101906106cd9190612ca4565b101561070e576040517f08c379a000000000000000000000000000000000000000000000000000000000815260040161070590613405565b60405180910390fd5b8073ffffffffffffffffffffffffffffffffffffffff166323b872dd3330896040518463ffffffff1660e01b815260040161074b93929190613260565b602060405180830381600087803b15801561076557600080fd5b505af1158015610779573d6000803e3d6000fd5b505050506040513d601f19601f8201168201806040525081019061079d9190612c52565b506107ad33888888888888611ea3565b50505050505050565b606060008060008473ffffffffffffffffffffffffffffffffffffffff1673ffffffffffffffffffffffffffffffffffffffff1681526020019081526020016000205467ffffffffffffffff811115610838577f4e487b7100000000000000000000000000000000000000000000000000000000600052604160045260246000fd5b6040519080825280602002602001820160405280156108665781602001602082028036833780820191505090505b5090506000805b6006548110156109c55760005b60046000838152602001908152602001600020600201805490508110156109b1578573ffffffffffffffffffffffffffffffffffffffff16600460008481526020019081526020016000206002018281548110610900577f4e487b7100000000000000000000000000000000000000000000000000000000600052603260045260246000fd5b9060005260206000200160009054906101000a900473ffffffffffffffffffffffffffffffffffffffff1673ffffffffffffffffffffffffffffffffffffffff16141561099e5781848480610954906137e4565b95508151811061098d577f4e487b7100000000000000000000000000000000000000000000000000000000600052603260045260246000fd5b6020026020010181815250506109b1565b80806109a9906137e4565b91505061087a565b5080806109bd906137e4565b91505061086d565b508192505050919050565b6109d8612709565b600460008381526020019081526020016000206040518060c00160405290816000820160009054906101000a900473ffffffffffffffffffffffffffffffffffffffff1673ffffffffffffffffffffffffffffffffffffffff1673ffffffffffffffffffffffffffffffffffffffff1681526020016001820154815260200160028201805480602002602001604051908101604052809291908181526020018280548015610adb57602002820191906000526020600020905b8160009054906101000a900473ffffffffffffffffffffffffffffffffffffffff1673ffffffffffffffffffffffffffffffffffffffff1681526020019060010190808311610a91575b50505050508152602001600382018054610af490613781565b80601f0160208091040260200160405190810160405280929190818152602001828054610b2090613781565b8015610b6d5780601f10610b4257610100808354040283529160200191610b6d565b820191906000526020600020905b815481529060010190602001808311610b5057829003601f168201915b505050505081526020016004820160009054906101000a900473ffffffffffffffffffffffffffffffffffffffff1673ffffffffffffffffffffffffffffffffffffffff1673ffffffffffffffffffffffffffffffffffffffff168152602001600582018054610bdc90613781565b80601f0160208091040260200160405190810160405280929190818152602001828054610c0890613781565b8015610c555780601f10610c2a57610100808354040283529160200191610c55565b820191906000526020600020905b815481529060010190602001808311610c3857829003601f168201915b5050505050815250509050919050565b60008060006040516024016040516020818303038152906040527f185ed831000000000000000000000000000000000000000000000000000000007bffffffffffffffffffffffffffffffffffffffffffffffffffffffff19166020820180517bffffffffffffffffffffffffffffffffffffffffffffffffffffffff838183161783525050505090506000808251602084016000885af1915081610d3f576040517f08c379a0000000000000000000000000000000000000000000000000000000008152600401610d36906133c5565b60405180910390fd5b8192505050919050565b3382828273ffffffffffffffffffffffffffffffffffffffff16600460008481526020019081526020016000206002018281548110610db1577f4e487b7100000000000000000000000000000000000000000000000000000000600052603260045260246000fd5b9060005260206000200160009054906101000a900473ffffffffffffffffffffffffffffffffffffffff1673ffffffffffffffffffffffffffffffffffffffff1614610e32576040517f08c379a0000000000000000000000000000000000000000000000000000000008152600401610e29906133e5565b60405180910390fd5b8560026000878152602001908152602001600020600086815260200190815260200160002060006101000a81548173ffffffffffffffffffffffffffffffffffffffff021916908373ffffffffffffffffffffffffffffffffffffffff160217905550505050505050565b60606000600460008481526020019081526020016000206002018054905067ffffffffffffffff811115610efa577f4e487b7100000000000000000000000000000000000000000000000000000000600052604160045260246000fd5b604051908082528060200260200182016040528015610f285781602001602082028036833780820191505090505b50905060005b6004600085815260200190815260200160002060020180549050811015610fdf57610f5984826111d0565b828281518110610f92577f4e487b7100000000000000000000000000000000000000000000000000000000600052603260045260246000fd5b602002602001019073ffffffffffffffffffffffffffffffffffffffff16908173ffffffffffffffffffffffffffffffffffffffff16815250508080610fd7906137e4565b915050610f2e565b5080915050919050565b60606000600160008473ffffffffffffffffffffffffffffffffffffffff1673ffffffffffffffffffffffffffffffffffffffff1681526020019081526020016000205467ffffffffffffffff81111561106c577f4e487b7100000000000000000000000000000000000000000000000000000000600052604160045260246000fd5b60405190808252806020026020018201604052801561109a5781602001602082028036833780820191505090505b5090506000805b6006548110156111c55760005b60046000838152602001908152602001600020600201805490508110156111b1578573ffffffffffffffffffffffffffffffffffffffff1660036000848152602001908152602001600020600083815260200190815260200160002060009054906101000a900473ffffffffffffffffffffffffffffffffffffffff1673ffffffffffffffffffffffffffffffffffffffff16141561119e5781848480611154906137e4565b95508151811061118d577f4e487b7100000000000000000000000000000000000000000000000000000000600052603260045260246000fd5b6020026020010181815250506111b1565b80806111a9906137e4565b9150506110ae565b5080806111bd906137e4565b9150506110a1565b508192505050919050565b600080600460008581526020019081526020016000206002018381548110611221577f4e487b7100000000000000000000000000000000000000000000000000000000600052603260045260246000fd5b9060005260206000200160009054906101000a900473ffffffffffffffffffffffffffffffffffffffff1690506000600560008373ffffffffffffffffffffffffffffffffffffffff1673ffffffffffffffffffffffffffffffffffffffff16815260200190815260200160002060009054906101000a900460ff166112eb5760036000868152602001908152602001600020600085815260200190815260200160002060009054906101000a900473ffffffffffffffffffffffffffffffffffffffff16611377565b8173ffffffffffffffffffffffffffffffffffffffff1663788232a086866040518363ffffffff1660e01b81526004016113269291906134a7565b60206040518083038186803b15801561133e57600080fd5b505afa158015611352573d6000803e3d6000fd5b505050506040513d601f19601f820116820180604052508101906113769190612b21565b5b9050600073ffffffffffffffffffffffffffffffffffffffff168173ffffffffffffffffffffffffffffffffffffffff1614156113b85781925050506113be565b80925050505b92915050565b6113d43360003487878787611ea3565b50505050565b3373ffffffffffffffffffffffffffffffffffffffff1660026000848152602001908152602001600020600083815260200190815260200160002060009054906101000a900473ffffffffffffffffffffffffffffffffffffffff1673ffffffffffffffffffffffffffffffffffffffff161461148c576040517f08c379a000000000000000000000000000000000000000000000000000000000815260040161148390613425565b60405180910390fd5b60006004600084815260200190815260200160002060020182815481106114dc577f4e487b7100000000000000000000000000000000000000000000000000000000600052603260045260246000fd5b9060005260206000200160009054906101000a900473ffffffffffffffffffffffffffffffffffffffff16905061151581858585611a7b565b50505050565b60046020528060005260406000206000915090508060000160009054906101000a900473ffffffffffffffffffffffffffffffffffffffff169080600101549080600301805461156a90613781565b80601f016020809104026020016040519081016040528092919081815260200182805461159690613781565b80156115e35780601f106115b8576101008083540402835291602001916115e3565b820191906000526020600020905b8154815290600101906020018083116115c657829003601f168201915b5050505050908060040160009054906101000a900473ffffffffffffffffffffffffffffffffffffffff169080600501805461161e90613781565b80601f016020809104026020016040519081016040528092919081815260200182805461164a90613781565b80156116975780601f1061166c57610100808354040283529160200191611697565b820191906000526020600020905b81548152906001019060200180831161167a57829003601f168201915b5050505050905085565b3382828273ffffffffffffffffffffffffffffffffffffffff166116c583836111d0565b73ffffffffffffffffffffffffffffffffffffffff161461171b576040517f08c379a000000000000000000000000000000000000000000000000000000000815260040161171290613445565b60405180910390fd5b6004600086815260200190815260200160002060040160009054906101000a900473ffffffffffffffffffffffffffffffffffffffff1673ffffffffffffffffffffffffffffffffffffffff16630ff648f861177687610e9d565b86600460008a81526020019081526020016000206005016040518463ffffffff1660e01b81526004016117ab93929190613343565b60206040518083038186803b1580156117c357600080fd5b505afa1580156117d7573d6000803e3d6000fd5b505050506040513d601f19601f820116820180604052508101906117fb9190612c52565b61183a576040517f08c379a000000000000000000000000000000000000000000000000000000000815260040161183190613465565b60405180910390fd5b600073ffffffffffffffffffffffffffffffffffffffff166004600087815260200190815260200160002060000160009054906101000a900473ffffffffffffffffffffffffffffffffffffffff1673ffffffffffffffffffffffffffffffffffffffff16141561190d5760003390508073ffffffffffffffffffffffffffffffffffffffff166108fc60046000898152602001908152602001600020600101549081150290604051600060405180830381858888f19350505050158015611906573d6000803e3d6000fd5b50506119e8565b6004600086815260200190815260200160002060000160009054906101000a900473ffffffffffffffffffffffffffffffffffffffff1673ffffffffffffffffffffffffffffffffffffffff1663a9059cbb3360046000898152602001908152602001600020600101546040518363ffffffff1660e01b8152600401611994929190613297565b602060405180830381600087803b1580156119ae57600080fd5b505af11580156119c2573d6000803e3d6000fd5b505050506040513d601f19601f820116820180604052508101906119e69190612c52565b505b6119f1856121bc565b5050505050565b6000600460008481526020019081526020016000206002018281548110611a48577f4e487b7100000000000000000000000000000000000000000000000000000000600052603260045260246000fd5b9060005260206000200160009054906101000a900473ffffffffffffffffffffffffffffffffffffffff16905092915050565b611a8483610c65565b600560008573ffffffffffffffffffffffffffffffffffffffff1673ffffffffffffffffffffffffffffffffffffffff16815260200190815260200160002060006101000a81548160ff02191690831515021790555060006001905060005b6004600085815260200190815260200160002060020180549050811015611bc8578473ffffffffffffffffffffffffffffffffffffffff16600460008681526020019081526020016000206002018281548110611b69577f4e487b7100000000000000000000000000000000000000000000000000000000600052603260045260246000fd5b9060005260206000200160009054906101000a900473ffffffffffffffffffffffffffffffffffffffff1673ffffffffffffffffffffffffffffffffffffffff161415611bb557600091505b8080611bc0906137e4565b915050611ae3565b5083600460008581526020019081526020016000206002018381548110611c18577f4e487b7100000000000000000000000000000000000000000000000000000000600052603260045260246000fd5b9060005260206000200160006101000a81548173ffffffffffffffffffffffffffffffffffffffff021916908373ffffffffffffffffffffffffffffffffffffffff16021790555060006001905060005b6004600086815260200190815260200160002060020180549050811015611d4e578673ffffffffffffffffffffffffffffffffffffffff16600460008781526020019081526020016000206002018281548110611cef577f4e487b7100000000000000000000000000000000000000000000000000000000600052603260045260246000fd5b9060005260206000200160009054906101000a900473ffffffffffffffffffffffffffffffffffffffff1673ffffffffffffffffffffffffffffffffffffffff161415611d3b57600091505b8080611d46906137e4565b915050611c69565b508115611dac5760016000808773ffffffffffffffffffffffffffffffffffffffff1673ffffffffffffffffffffffffffffffffffffffff1681526020019081526020016000206000828254611da49190613649565b925050819055505b8015611e095760016000808873ffffffffffffffffffffffffffffffffffffffff1673ffffffffffffffffffffffffffffffffffffffff1681526020019081526020016000206000828254611e01919061369f565b925050819055505b600073ffffffffffffffffffffffffffffffffffffffff1660026000868152602001908152602001600020600085815260200190815260200160002060009054906101000a90505050600073ffffffffffffffffffffffffffffffffffffffff1660036000868152602001908152602001600020600085815260200190815260200160002060009054906101000a90505050505050505050565b60008467ffffffffffffffff811115611ee5577f4e487b7100000000000000000000000000000000000000000000000000000000600052604160045260246000fd5b604051908082528060200260200182016040528015611f135781602001602082028036833780820191505090505b50905060005b85811015611fa85788828281518110611f5b577f4e487b7100000000000000000000000000000000000000000000000000000000600052603260045260246000fd5b602002602001019073ffffffffffffffffffffffffffffffffffffffff16908173ffffffffffffffffffffffffffffffffffffffff16815250508080611fa0906137e4565b915050611f19565b506040518060c001604052808873ffffffffffffffffffffffffffffffffffffffff1681526020018781526020018281526020018581526020018473ffffffffffffffffffffffffffffffffffffffff1681526020018381525060046000600654815260200190815260200160002060008201518160000160006101000a81548173ffffffffffffffffffffffffffffffffffffffff021916908373ffffffffffffffffffffffffffffffffffffffff16021790555060208201518160010155604082015181600201908051906020019061208492919061276b565b5060608201518160030190805190602001906120a19291906127f5565b5060808201518160040160006101000a81548173ffffffffffffffffffffffffffffffffffffffff021916908373ffffffffffffffffffffffffffffffffffffffff16021790555060a082015181600501908051906020019061210592919061287b565b5090505060016000808a73ffffffffffffffffffffffffffffffffffffffff1673ffffffffffffffffffffffffffffffffffffffff16815260200190815260200160002060008282546121589190613649565b925050819055507f0ce3610e89a4bb9ec9359763f99110ed52a4abaea0b62028a1637e242ca2768b88600654604051612192929190613297565b60405180910390a1600660008154809291906121ad906137e4565b91905055505050505050505050565b60005b6004600083815260200190815260200160002060020180549050811015612669576000600460008481526020019081526020016000206002018281548110612230577f4e487b7100000000000000000000000000000000000000000000000000000000600052603260045260246000fd5b9060005260206000200160009054906101000a900473ffffffffffffffffffffffffffffffffffffffff169050600060036000858152602001908152602001600020600084815260200190815260200160002060009054906101000a900473ffffffffffffffffffffffffffffffffffffffff169050600073ffffffffffffffffffffffffffffffffffffffff168273ffffffffffffffffffffffffffffffffffffffff16146124b15760016000808473ffffffffffffffffffffffffffffffffffffffff1673ffffffffffffffffffffffffffffffffffffffff1681526020019081526020016000206000828254612329919061369f565b9250508190555060008390505b60046000868152602001908152602001600020600201805490508110156124af578273ffffffffffffffffffffffffffffffffffffffff166004600087815260200190815260200160002060020182815481106123bc577f4e487b7100000000000000000000000000000000000000000000000000000000600052603260045260246000fd5b9060005260206000200160009054906101000a900473ffffffffffffffffffffffffffffffffffffffff1673ffffffffffffffffffffffffffffffffffffffff16141561249c576000600460008781526020019081526020016000206002018281548110612453577f4e487b7100000000000000000000000000000000000000000000000000000000600052603260045260246000fd5b9060005260206000200160006101000a81548173ffffffffffffffffffffffffffffffffffffffff021916908373ffffffffffffffffffffffffffffffffffffffff1602179055505b80806124a7906137e4565b915050612336565b505b600073ffffffffffffffffffffffffffffffffffffffff168173ffffffffffffffffffffffffffffffffffffffff16146126545760018060008373ffffffffffffffffffffffffffffffffffffffff1673ffffffffffffffffffffffffffffffffffffffff1681526020019081526020016000206000828254612534919061369f565b9250508190555060008390505b6004600086815260200190815260200160002060020180549050811015612652578173ffffffffffffffffffffffffffffffffffffffff1660036000878152602001908152602001600020600083815260200190815260200160002060009054906101000a900473ffffffffffffffffffffffffffffffffffffffff1673ffffffffffffffffffffffffffffffffffffffff16141561263f57600060036000878152602001908152602001600020600083815260200190815260200160002060006101000a81548173ffffffffffffffffffffffffffffffffffffffff021916908373ffffffffffffffffffffffffffffffffffffffff1602179055505b808061264a906137e4565b915050612541565b505b50508080612661906137e4565b9150506121bf565b5060046000828152602001908152602001600020600080820160006101000a81549073ffffffffffffffffffffffffffffffffffffffff021916905560018201600090556002820160006126bd9190612901565b6003820160006126cd9190612922565b6004820160006101000a81549073ffffffffffffffffffffffffffffffffffffffff02191690556005820160006127049190612962565b505050565b6040518060c00160405280600073ffffffffffffffffffffffffffffffffffffffff168152602001600081526020016060815260200160608152602001600073ffffffffffffffffffffffffffffffffffffffff168152602001606081525090565b8280548282559060005260206000209081019282156127e4579160200282015b828111156127e35782518260006101000a81548173ffffffffffffffffffffffffffffffffffffffff021916908373ffffffffffffffffffffffffffffffffffffffff1602179055509160200191906001019061278b565b5b5090506127f191906129a2565b5090565b82805461280190613781565b90600052602060002090601f016020900481019282612823576000855561286a565b82601f1061283c57805160ff191683800117855561286a565b8280016001018555821561286a579182015b8281111561286957825182559160200191906001019061284e565b5b50905061287791906129a2565b5090565b82805461288790613781565b90600052602060002090601f0160209004810192826128a957600085556128f0565b82601f106128c257805160ff19168380011785556128f0565b828001600101855582156128f0579182015b828111156128ef5782518255916020019190600101906128d4565b5b5090506128fd91906129a2565b5090565b508054600082559060005260206000209081019061291f91906129a2565b50565b50805461292e90613781565b6000825580601f10612940575061295f565b601f01602090049060005260206000209081019061295e91906129a2565b5b50565b50805461296e90613781565b6000825580601f10612980575061299f565b601f01602090049060005260206000209081019061299e91906129a2565b5b50565b5b808211156129bb5760008160009055506001016129a3565b5090565b60006129d26129cd846134f5565b6134d0565b9050828152602081018484840111156129ea57600080fd5b6129f584828561373f565b509392505050565b6000612a10612a0b84613526565b6134d0565b905082815260208101848484011115612a2857600080fd5b612a3384828561373f565b509392505050565b600081359050612a4a81613a0d565b92915050565b600081519050612a5f81613a0d565b92915050565b600081519050612a7481613a24565b92915050565b600082601f830112612a8b57600080fd5b8135612a9b8482602086016129bf565b91505092915050565b600082601f830112612ab557600080fd5b8135612ac58482602086016129fd565b91505092915050565b600081359050612add81613a3b565b92915050565b600081519050612af281613a3b565b92915050565b600060208284031215612b0a57600080fd5b6000612b1884828501612a3b565b91505092915050565b600060208284031215612b3357600080fd5b6000612b4184828501612a50565b91505092915050565b600080600060608486031215612b5f57600080fd5b6000612b6d86828701612a3b565b9350506020612b7e86828701612ace565b9250506040612b8f86828701612ace565b9150509250925092565b60008060008060008060c08789031215612bb257600080fd5b6000612bc089828a01612a3b565b9650506020612bd189828a01612ace565b9550506040612be289828a01612ace565b945050606087013567ffffffffffffffff811115612bff57600080fd5b612c0b89828a01612aa4565b9350506080612c1c89828a01612a3b565b92505060a087013567ffffffffffffffff811115612c3957600080fd5b612c4589828a01612a7a565b9150509295509295509295565b600060208284031215612c6457600080fd5b6000612c7284828501612a65565b91505092915050565b600060208284031215612c8d57600080fd5b6000612c9b84828501612ace565b91505092915050565b600060208284031215612cb657600080fd5b6000612cc484828501612ae3565b91505092915050565b60008060008060808587031215612ce357600080fd5b6000612cf187828801612ace565b945050602085013567ffffffffffffffff811115612d0e57600080fd5b612d1a87828801612aa4565b9350506040612d2b87828801612a3b565b925050606085013567ffffffffffffffff811115612d4857600080fd5b612d5487828801612a7a565b91505092959194509250565b60008060408385031215612d7357600080fd5b6000612d8185828601612ace565b9250506020612d9285828601612ace565b9150509250929050565b6000612da88383612dcc565b60208301905092915050565b6000612dc083836131fe565b60208301905092915050565b612dd5816136d3565b82525050565b612de4816136d3565b82525050565b6000612df58261358c565b612dff81856135d2565b9350612e0a83613557565b8060005b83811015612e3b578151612e228882612d9c565b9750612e2d836135b8565b925050600181019050612e0e565b5085935050505092915050565b6000612e538261358c565b612e5d81856135e3565b9350612e6883613557565b8060005b83811015612e99578151612e808882612d9c565b9750612e8b836135b8565b925050600181019050612e6c565b5085935050505092915050565b6000612eb182613597565b612ebb81856135f4565b9350612ec683613567565b8060005b83811015612ef7578151612ede8882612db4565b9750612ee9836135c5565b925050600181019050612eca565b5085935050505092915050565b612f0d816136e5565b82525050565b6000612f1e826135a2565b612f288185613605565b9350612f3881856020860161374e565b612f41816138ba565b840191505092915050565b6000612f57826135a2565b612f618185613616565b9350612f7181856020860161374e565b612f7a816138ba565b840191505092915050565b60008154612f9281613781565b612f9c8186613616565b94506001821660008114612fb75760018114612fc957612ffc565b60ff1983168652602086019350612ffc565b612fd285613577565b60005b83811015612ff457815481890152600182019150602081019050612fd5565b808801955050505b50505092915050565b61300e8161371b565b82525050565b61301d8161371b565b82525050565b600061302e826135ad565b6130388185613627565b935061304881856020860161374e565b613051816138ba565b840191505092915050565b6000613067826135ad565b6130718185613638565b935061308181856020860161374e565b61308a816138ba565b840191505092915050565b60006130a2601683613638565b91506130ad826138cb565b602082019050919050565b60006130c5602083613638565b91506130d0826138f4565b602082019050919050565b60006130e8601d83613638565b91506130f38261391d565b602082019050919050565b600061310b602783613638565b915061311682613946565b604082019050919050565b600061312e602a83613638565b915061313982613995565b604082019050919050565b6000613151601d83613638565b915061315c826139e4565b602082019050919050565b600060c08301600083015161317f6000860182612dcc565b50602083015161319260208601826131fe565b50604083015184820360408601526131aa8282612dea565b915050606083015184820360608601526131c48282613023565b91505060808301516131d96080860182613005565b5060a083015184820360a08601526131f18282612f13565b9150508091505092915050565b61320781613711565b82525050565b61321681613711565b82525050565b60006020820190506132316000830184612ddb565b92915050565b600060408201905061324c6000830185612ddb565b6132596020830184612ddb565b9392505050565b60006060820190506132756000830186612ddb565b6132826020830185612ddb565b61328f604083018461320d565b949350505050565b60006040820190506132ac6000830185612ddb565b6132b9602083018461320d565b9392505050565b600060a0820190506132d56000830188612ddb565b6132e2602083018761320d565b81810360408301526132f4818661305c565b90506133036060830185613014565b81810360808301526133158184612f4c565b90509695505050505050565b6000602082019050818103600083015261333b8184612e48565b905092915050565b6000606082019050818103600083015261335d8186612e48565b905061336c602083018561320d565b818103604083015261337e8184612f85565b9050949350505050565b600060208201905081810360008301526133a28184612ea6565b905092915050565b60006020820190506133bf6000830184612f04565b92915050565b600060208201905081810360008301526133de81613095565b9050919050565b600060208201905081810360008301526133fe816130b8565b9050919050565b6000602082019050818103600083015261341e816130db565b9050919050565b6000602082019050818103600083015261343e816130fe565b9050919050565b6000602082019050818103600083015261345e81613121565b9050919050565b6000602082019050818103600083015261347e81613144565b9050919050565b6000602082019050818103600083015261349f8184613167565b905092915050565b60006040820190506134bc600083018561320d565b6134c9602083018461320d565b9392505050565b60006134da6134eb565b90506134e682826137b3565b919050565b6000604051905090565b600067ffffffffffffffff8211156135105761350f61388b565b5b613519826138ba565b9050602081019050919050565b600067ffffffffffffffff8211156135415761354061388b565b5b61354a826138ba565b9050602081019050919050565b6000819050602082019050919050565b6000819050602082019050919050565b60008190508160005260206000209050919050565b600081519050919050565b600081519050919050565b600081519050919050565b600081519050919050565b6000602082019050919050565b6000602082019050919050565b600082825260208201905092915050565b600082825260208201905092915050565b600082825260208201905092915050565b600082825260208201905092915050565b600082825260208201905092915050565b600082825260208201905092915050565b600082825260208201905092915050565b600061365482613711565b915061365f83613711565b9250827fffffffffffffffffffffffffffffffffffffffffffffffffffffffffffffffff038211156136945761369361382d565b5b828201905092915050565b60006136aa82613711565b91506136b583613711565b9250828210156136c8576136c761382d565b5b828203905092915050565b60006136de826136f1565b9050919050565b60008115159050919050565b600073ffffffffffffffffffffffffffffffffffffffff82169050919050565b6000819050919050565b60006137268261372d565b9050919050565b6000613738826136f1565b9050919050565b82818337600083830152505050565b60005b8381101561376c578082015181840152602081019050613751565b8381111561377b576000848401525b50505050565b6000600282049050600182168061379957607f821691505b602082108114156137ad576137ac61385c565b5b50919050565b6137bc826138ba565b810181811067ffffffffffffffff821117156137db576137da61388b565b5b80604052505050565b60006137ef82613711565b91507fffffffffffffffffffffffffffffffffffffffffffffffffffffffffffffffff8214156138225761382161382d565b5b600182019050919050565b7f4e487b7100000000000000000000000000000000000000000000000000000000600052601160045260246000fd5b7f4e487b7100000000000000000000000000000000000000000000000000000000600052602260045260246000fd5b7f4e487b7100000000000000000000000000000000000000000000000000000000600052604160045260246000fd5b6000601f19601f8301169050919050565b7f64656c65676174696f6e206368636b206661696c656400000000000000000000600082015250565b7f4f776e657273686970206372697465726961206e6f742066756c66696c6c6564600082015250565b7f496e73756666696369656e7420617070726f76656420616d6f756e742e000000600082015250565b7f596f752068617665206e6f74206265656e20617070726f76656420746f20747260008201527f616e736665722e00000000000000000000000000000000000000000000000000602082015250565b7f456666656374697665206f776e657273686970206372697465726961206e6f7460008201527f2066756c66696c6c656400000000000000000000000000000000000000000000602082015250565b7f4c69717569646174696f6e206372697465726961206e6f74206d65742e000000600082015250565b613a16816136d3565b8114613a2157600080fd5b50565b613a2d816136e5565b8114613a3857600080fd5b50565b613a4481613711565b8114613a4f57600080fd5b5056fea2646970667358221220a3cd11fb8790f9bb0983577dde8d1918b32cc42aff0ff72c8f51ce487f67bc4d64736f6c63430008030033",
  "immutableReferences": {},
  "source": "// SPDX-License-Identifier: UNLICENSED\r\n// Jin Hong Kuan 2021 Copyrighted\r\npragma solidity ^0.8.3;\r\n\r\nimport \"@openzeppelin/contracts/token/ERC20/extensions/IERC20Metadata.sol\"; \r\nimport \"@openzeppelin/contracts/token/ERC20/IERC20.sol\"; \r\n\r\nimport \"./ILiquidationCheck.sol\"; \r\nimport \"./IDelegator.sol\"; \r\n\r\n\r\ncontract Keylink {\r\n\r\n    event Created(address from, uint256 id);\r\n    event TransferKey(address from, address to, uint256 id);\r\n    event Liquidated(address by, uint256 id);\r\n\r\n    struct Collateral {\r\n        address token; \r\n        uint256 amount;\r\n        address[] accounts;\r\n        string uri;\r\n        ILiquidationCheck liquidation;\r\n        bytes args;\r\n    }\r\n\r\n    mapping(address => uint256) private _ownedBalance; \r\n    mapping(address => uint256) private _delegateBalance; \r\n    mapping(uint256 => mapping(uint256=>address)) private _collateralApprovals; \r\n    mapping(uint256 => mapping(uint256=>address)) private _collateralDelegates; \r\n    mapping(uint256 => Collateral) public _collaterals;\r\n    mapping(address => bool) _isDelegator; \r\n\r\n    uint256 private _counter;\r\n\r\n    constructor() {\r\n    }\r\n\r\n    modifier isOwner(address caller, uint256 id, uint256 index) {\r\n        require(_collaterals[id].accounts[index] == caller, \"Ownership criteria not fulfilled\");\r\n        _;\r\n    }\r\n\r\n    modifier isEffectiveOwner(address caller, uint256 id, uint256 index) {\r\n        require(getEffectiveOwner(id, index) == caller, \"Effective ownership criteria not fulfilled\");\r\n        _;\r\n    }\r\n\r\n    function ownerOf(uint256 id, uint256 index) view external returns(address) {\r\n        return _collaterals[id].accounts[index];\r\n    }\r\n\r\n\r\n    function createCollateralERC20(address token, uint256 amount, uint256 accounts, string memory uri, address liquidation, bytes memory args) external {\r\n        IERC20 tokenContract = IERC20(token);\r\n        require(tokenContract.allowance(msg.sender, address(this)) >= amount, \"Insufficient approved amount.\");\r\n        tokenContract.transferFrom(msg.sender, address(this), amount); \r\n        _create(msg.sender, token, amount, accounts, uri, liquidation, args);\r\n    }\r\n\r\n    function createCollateralETH(uint256 accounts, string memory uri, address liquidation, bytes memory args) external payable {\r\n        _create(msg.sender, address(0), msg.value, accounts, uri, liquidation, args);\r\n    }\r\n\r\n    function getOwnedCollaterals(address account) external view returns(uint256[] memory) {\r\n        uint256[] memory idList = new uint256[](_ownedBalance[account]); \r\n        uint256 counter = 0;\r\n        for (uint i = 0; i<_counter; i++) {\r\n            for (uint j = 0; j < _collaterals[i].accounts.length; j++) {\r\n                if (_collaterals[i].accounts[j] == account) {\r\n                    idList[counter++] = i;\r\n                    break;\r\n                } \r\n            }\r\n        }\r\n        return idList;\r\n    }\r\n\r\n    function getDelegatedCollaterals(address account) external view returns(uint256[] memory) {\r\n        uint256[] memory idList = new uint256[](_delegateBalance[account]); \r\n        uint256 counter = 0;\r\n        for (uint i = 0; i<_counter; i++) {\r\n            for (uint j = 0; j < _collaterals[i].accounts.length; j++) {\r\n                if (_collateralDelegates[i][j] == account) {\r\n                    idList[counter++] = i;\r\n                    break;\r\n                } \r\n            }\r\n        }\r\n        return idList;\r\n    }\r\n\r\n    function getCollateral(uint256 id) external view returns (Collateral memory) {\r\n        return _collaterals[id];\r\n    }\r\n\r\n    function getEffectiveOwners(uint256 id) public view returns(address[] memory) {\r\n        address[] memory accounts = new address[](_collaterals[id].accounts.length); \r\n        for (uint i = 0; i < _collaterals[id].accounts.length; i++) {\r\n            accounts[i] = getEffectiveOwner(id, i);\r\n        }\r\n        return accounts;\r\n    }\r\n\r\n    function getEffectiveOwner(uint256 id, uint256 index) public view returns(address) {\r\n        address owner = _collaterals[id].accounts[index];\r\n        address delegatedTo = _isDelegator[owner] ? IDelegator(owner).delegatedTo(id, index) : _collateralDelegates[id][index]; \r\n        if (delegatedTo == address(0)) {\r\n            return owner;\r\n        } else {\r\n            return delegatedTo;\r\n        }\r\n    }\r\n\r\n    function transfer(address to, uint256 id, uint256 index) isOwner(msg.sender, id, index) public {\r\n        _transfer(msg.sender, to, id, index);\r\n    }\r\n\r\n    function approve(address to, uint256 id, uint256 index) isOwner(msg.sender, id, index) public {\r\n        _collateralApprovals[id][index] = to;\r\n    }\r\n\r\n    function delegate(address to, uint256 id, uint256 index) isOwner(msg.sender, id, index) public {\r\n        _collateralDelegates[id][index] = to;\r\n    }\r\n\r\n    function transferFrom(address to, uint256 id, uint256 index) public {\r\n        require(_collateralApprovals[id][index] == msg.sender, \"You have not been approved to transfer.\"); \r\n        address previousOwner = _collaterals[id].accounts[index];\r\n        _transfer(previousOwner, to, id, index);\r\n    }\r\n\r\n    function liquidate(uint256 id, uint256 index) isEffectiveOwner(msg.sender, id, index) public {\r\n        require(ILiquidationCheck(_collaterals[id].liquidation)\r\n        .liquidationCheck(\r\n            getEffectiveOwners(id), \r\n            index, \r\n            _collaterals[id].args), \"Liquidation criteria not met.\");\r\n        if (_collaterals[id].token == address(0)) {\r\n            address payable recepient = payable(msg.sender);\r\n            recepient.transfer(_collaterals[id].amount);\r\n        } else {\r\n            IERC20(_collaterals[id].token).transfer(msg.sender, _collaterals[id].amount);\r\n        }\r\n        _remove(id);\r\n    }\r\n\r\n    function _transfer(address from, address to, uint256 id, uint256 index) internal {\r\n        _isDelegator[to] = _callDelegationCheck(to);\r\n        \r\n        bool gainedOwnership = true;\r\n        for (uint i = 0; i < _collaterals[id].accounts.length; i++) {\r\n            if (_collaterals[id].accounts[i] == to) {\r\n                gainedOwnership = false;\r\n            }\r\n        }\r\n        _collaterals[id].accounts[index] = to;\r\n        bool lostOwnership = true;\r\n        for (uint i = 0; i < _collaterals[id].accounts.length; i++) {\r\n            if (_collaterals[id].accounts[i] == from) {\r\n                lostOwnership = false;\r\n            }\r\n        }\r\n        if (gainedOwnership) _ownedBalance[to] += 1;\r\n        if (lostOwnership) _ownedBalance[from] -= 1;\r\n\r\n        _collateralApprovals[id][index] == address(0);\r\n        _collateralDelegates[id][index] == address(0);\r\n    }\r\n\r\n    function _create(address from, address token, uint256 amount, uint256 accounts, string memory uri, address liquidation, bytes memory args) internal {\r\n        address[] memory holders = new address[](accounts);\r\n        for (uint i = 0; i < accounts; i++) holders[i] = from; \r\n        _collaterals[_counter] = Collateral(\r\n            token, amount, holders, uri, ILiquidationCheck(liquidation), args\r\n        );\r\n        _ownedBalance[from] += 1;\r\n        emit Created(from, _counter);\r\n        _counter++;\r\n    }\r\n\r\n    function _remove(uint256 id) internal {\r\n        for (uint i = 0; i < _collaterals[id].accounts.length; i++) {\r\n            address owner = _collaterals[id].accounts[i];\r\n            address shadowedAddress = _collateralDelegates[id][i]; \r\n            if (owner != address(0)) {\r\n                _ownedBalance[owner] -= 1;\r\n                for (uint j = i; j < _collaterals[id].accounts.length; j++) {\r\n                    if (_collaterals[id].accounts[j] == owner) {\r\n                        _collaterals[id].accounts[j] = address(0); \r\n                    }\r\n                }\r\n            }\r\n            if (shadowedAddress != address(0)) {\r\n                _delegateBalance[shadowedAddress] -= 1;\r\n                for (uint j = i; j < _collaterals[id].accounts.length; j++) {\r\n                    if (_collateralDelegates[id][j] == shadowedAddress) {\r\n                        _collateralDelegates[id][j] = address(0); \r\n                    }\r\n                }\r\n            }\r\n           \r\n        }\r\n        delete _collaterals[id]; \r\n    }\r\n\r\n    function _callDelegationCheck(address holder) public returns (bool) {\r\n\r\n        bool success;\r\n        bytes memory data = abi.encodeWithSignature(\"isDelegator()\");\r\n\r\n        assembly {\r\n            success := call(\r\n                gas(),            // gas remaining\r\n                holder,         // destination address\r\n                0,              // no ether\r\n                add(data, 32),  // input buffer (starts after the first 32 bytes in the `data` array)\r\n                mload(data),    // input length (loaded from the first 32 bytes in the `data` array)\r\n                0,              // output buffer\r\n                0               // output length\r\n            )\r\n        }\r\n\r\n        require(success, \"delegation chck failed\");\r\n\r\n        return success;\r\n    }\r\n\r\n\r\n}",
  "sourcePath": "C:/Users/Kuan/Documents/GitHub/collaterize/contracts/Keylink.sol",
  "compiler": {
    "name": "solc",
    "version": "0.8.3+commit.8d00100c.Emscripten.clang"
  },
  "schemaVersion": "3.3.4",
  "updatedAt": "2021-07-10T01:21:33.444Z",
  "networkType": "ethereum",
  "devdoc": {
    "kind": "dev",
    "methods": {},
    "version": 1
  },
  "userdoc": {
    "kind": "user",
    "methods": {},
    "version": 1
  }
}