{
  "contractName": "KeylinqProxy",
  "abi": [
    {
      "inputs": [],
      "stateMutability": "nonpayable",
      "type": "constructor"
    },
    {
      "stateMutability": "payable",
      "type": "fallback",
      "payable": true
    },
    {
      "inputs": [],
      "name": "admin",
      "outputs": [
        {
          "internalType": "address",
          "name": "adm",
          "type": "address"
        }
      ],
      "stateMutability": "view",
      "type": "function",
      "constant": true
    },
    {
      "inputs": [],
      "name": "implementation",
      "outputs": [
        {
          "internalType": "address",
          "name": "impl",
          "type": "address"
        }
      ],
      "stateMutability": "view",
      "type": "function",
      "constant": true
    },
    {
      "inputs": [
        {
          "internalType": "address",
          "name": "newImplementation",
          "type": "address"
        }
      ],
      "name": "upgrade",
      "outputs": [],
      "stateMutability": "nonpayable",
      "type": "function"
    }
  ],
  "bytecode": "0x608060405234801561001057600080fd5b5060007fb53127684a568b3173ae13b9f8a6016e243e63b6e8ee1178d6a717850b5d610360001b90506000339050808255505061036a806100526000396000f3fe6080604052600436106100385760003560e01c80630900f010146100815780635c60da1b146100aa578063f851a440146100d557610039565b5b7f360894a13ba1a3210667c828492db98dca3e2076cc3735a920a3ca505d382bbc543660008037600080366000845af43d6000803e806000811461007c573d6000f35b600080fd5b34801561008d57600080fd5b506100a860048036038101906100a3919061021b565b610100565b005b3480156100b657600080fd5b506100bf6101a4565b6040516100cc9190610276565b60405180910390f35b3480156100e157600080fd5b506100ea6101d5565b6040516100f79190610276565b60405180910390f35b6101086101d5565b73ffffffffffffffffffffffffffffffffffffffff163373ffffffffffffffffffffffffffffffffffffffff1614610175576040517f08c379a000000000000000000000000000000000000000000000000000000000815260040161016c90610291565b60405180910390fd5b60007f360894a13ba1a3210667c828492db98dca3e2076cc3735a920a3ca505d382bbc60001b90508181555050565b6000807f360894a13ba1a3210667c828492db98dca3e2076cc3735a920a3ca505d382bbc60001b9050805491505090565b6000807fb53127684a568b3173ae13b9f8a6016e243e63b6e8ee1178d6a717850b5d610360001b9050805491505090565b6000813590506102158161031d565b92915050565b60006020828403121561022d57600080fd5b600061023b84828501610206565b91505092915050565b61024d816102c2565b82525050565b6000610260600a836102b1565b915061026b826102f4565b602082019050919050565b600060208201905061028b6000830184610244565b92915050565b600060208201905081810360008301526102aa81610253565b9050919050565b600082825260208201905092915050565b60006102cd826102d4565b9050919050565b600073ffffffffffffffffffffffffffffffffffffffff82169050919050565b7f61646d696e206f6e6c7900000000000000000000000000000000000000000000600082015250565b610326816102c2565b811461033157600080fd5b5056fea2646970667358221220b152039bddbd79baa6f18f22e2f20b10d5cb49564eb9e5ad94292c14620886d264736f6c63430008030033",
  "immutableReferences": {},
  "source": "pragma solidity ^0.8.3;\r\n\r\ncontract KeylinqProxy {\r\n    bytes32 private constant _ADMIN_SLOT = 0xb53127684a568b3173ae13b9f8a6016e243e63b6e8ee1178d6a717850b5d6103;\r\n    bytes32 private constant _IMPLEMENTATION_SLOT = 0x360894a13ba1a3210667c828492db98dca3e2076cc3735a920a3ca505d382bbc;\r\n\r\n    constructor() {\r\n        bytes32 slot = _ADMIN_SLOT;\r\n        address _admin = msg.sender; \r\n        assembly {\r\n            sstore(slot, _admin)\r\n        }\r\n    }\r\n\r\n    function admin() public view returns (address adm) {\r\n        bytes32 slot = _ADMIN_SLOT;\r\n        assembly {\r\n            adm := sload(slot)\r\n        }\r\n    }\r\n\r\n    function implementation() public view returns (address impl) {\r\n        bytes32 slot = _IMPLEMENTATION_SLOT;\r\n        assembly {\r\n            impl := sload(slot)\r\n        }\r\n    }\r\n\r\n    function upgrade(address newImplementation) external {\r\n        require(msg.sender == admin(), 'admin only');\r\n        bytes32 slot = _IMPLEMENTATION_SLOT;\r\n        assembly {\r\n            sstore(slot, newImplementation)\r\n        }\r\n    }\r\n\r\n    fallback() external payable {\r\n        assembly {\r\n            let _target := sload(_IMPLEMENTATION_SLOT)\r\n            calldatacopy(0x0, 0x0, calldatasize())\r\n            let result := delegatecall(gas(), _target, 0x0, calldatasize(), 0x0, 0)\r\n            returndatacopy(0x0, 0x0, returndatasize())\r\n            switch result case 0 {revert(0,0)} default {return (0, returndatasize())}\r\n        }\r\n    }\r\n}",
  "sourcePath": "C:/Users/Kuan/Documents/GitHub/collaterize/contracts/KeylinqProxy.sol",
  "compiler": {
    "name": "solc",
    "version": "0.8.3+commit.8d00100c.Emscripten.clang"
  },
  "schemaVersion": "3.3.4",
  "updatedAt": "2021-07-15T23:16:37.718Z",
  "networkType": "ethereum",
  "devdoc": {
    "kind": "dev",
    "methods": {},
    "version": 1
  },
  "userdoc": {
    "kind": "user",
    "methods": {},
    "version": 1
  }
}