{
  "contractName": "KeylinkDelegator",
  "abi": [
    {
      "inputs": [
        {
          "internalType": "address",
          "name": "keylink_",
          "type": "address"
        }
      ],
      "stateMutability": "nonpayable",
      "type": "constructor"
    },
    {
      "inputs": [],
      "name": "isDelegator",
      "outputs": [
        {
          "internalType": "bool",
          "name": "",
          "type": "bool"
        }
      ],
      "stateMutability": "pure",
      "type": "function",
      "constant": true
    },
    {
      "inputs": [
        {
          "internalType": "uint256",
          "name": "id",
          "type": "uint256"
        },
        {
          "internalType": "uint256",
          "name": "index",
          "type": "uint256"
        },
        {
          "internalType": "enum KeylinkDelegator.Mode",
          "name": "_mode",
          "type": "uint8"
        },
        {
          "internalType": "bool",
          "name": "_needApproval",
          "type": "bool"
        },
        {
          "internalType": "bytes",
          "name": "_args",
          "type": "bytes"
        }
      ],
      "name": "entrust",
      "outputs": [],
      "stateMutability": "nonpayable",
      "type": "function"
    },
    {
      "inputs": [
        {
          "internalType": "uint256",
          "name": "id",
          "type": "uint256"
        }
      ],
      "name": "acquire",
      "outputs": [],
      "stateMutability": "payable",
      "type": "function",
      "payable": true
    },
    {
      "inputs": [
        {
          "internalType": "uint256",
          "name": "id",
          "type": "uint256"
        },
        {
          "internalType": "uint256",
          "name": "index",
          "type": "uint256"
        }
      ],
      "name": "delegatedTo",
      "outputs": [
        {
          "internalType": "address",
          "name": "",
          "type": "address"
        }
      ],
      "stateMutability": "view",
      "type": "function",
      "constant": true
    }
  ],
  "bytecode": "0x608060405260006008553480156200001657600080fd5b5060405162001de238038062001de283398181016040528101906200003c91906200009a565b806000806101000a81548173ffffffffffffffffffffffffffffffffffffffff021916908373ffffffffffffffffffffffffffffffffffffffff1602179055505062000114565b6000815190506200009481620000fa565b92915050565b600060208284031215620000ad57600080fd5b6000620000bd8482850162000083565b91505092915050565b6000620000d382620000da565b9050919050565b600073ffffffffffffffffffffffffffffffffffffffff82169050919050565b6200010581620000c6565b81146200011157600080fd5b50565b611cbe80620001246000396000f3fe60806040526004361061003f5760003560e01c8063185ed8311461004457806320360f0a1461006f57806320889d3b14610098578063788232a0146100b4575b600080fd5b34801561005057600080fd5b506100596100f1565b60405161006691906116dc565b60405180910390f35b34801561007b57600080fd5b5061009660048036038101906100919190611463565b6100fa565b005b6100b260048036038101906100ad91906113d5565b610873565b005b3480156100c057600080fd5b506100db60048036038101906100d69190611427565b610bc6565b6040516100e8919061162a565b60405180910390f35b60006001905090565b3373ffffffffffffffffffffffffffffffffffffffff1660008054906101000a900473ffffffffffffffffffffffffffffffffffffffff1673ffffffffffffffffffffffffffffffffffffffff1663d9dad80d87876040518363ffffffff1660e01b815260040161016c9291906117d9565b60206040518083038186803b15801561018457600080fd5b505afa158015610198573d6000803e3d6000fd5b505050506040513d601f19601f820116820180604052508101906101bc9190611383565b73ffffffffffffffffffffffffffffffffffffffff16146101dc57600080fd5b60006002811115610216577f4e487b7100000000000000000000000000000000000000000000000000000000600052602160045260246000fd5b83600281111561024f577f4e487b7100000000000000000000000000000000000000000000000000000000600052602160045260246000fd5b1415610290576040517f08c379a000000000000000000000000000000000000000000000000000000000815260040161028790611759565b60405180910390fd5b60008054906101000a900473ffffffffffffffffffffffffffffffffffffffff1673ffffffffffffffffffffffffffffffffffffffff166377dbbd763087876040518463ffffffff1660e01b81526004016102ed939291906116a5565b600060405180830381600087803b15801561030757600080fd5b505af115801561031b573d6000803e3d6000fd5b505050506000604051806060016040528060348152602001611c5560349139905060016002811115610376577f4e487b7100000000000000000000000000000000000000000000000000000000600052602160045260246000fd5b8460028111156103af577f4e487b7100000000000000000000000000000000000000000000000000000000600052602160045260246000fd5b14156104aa57603482511481906103fc576040517f08c379a00000000000000000000000000000000000000000000000000000000081526004016103f391906116f7565b60405180910390fd5b5060006014830151905060405180604001604052808273ffffffffffffffffffffffffffffffffffffffff168152602001610438856014610c3d565b81525060026000600854815260200190815260200160002060008201518160000160006101000a81548173ffffffffffffffffffffffffffffffffffffffff021916908373ffffffffffffffffffffffffffffffffffffffff160217905550602082015181600101559050505061061c565b6002808111156104e3577f4e487b7100000000000000000000000000000000000000000000000000000000600052602160045260246000fd5b84600281111561051c577f4e487b7100000000000000000000000000000000000000000000000000000000600052602160045260246000fd5b141561061b5760208251148190610569576040517f08c379a000000000000000000000000000000000000000000000000000000000815260040161056091906116f7565b60405180910390fd5b506040518060600160405280610580846000610c3d565b815260200160008152602001600073ffffffffffffffffffffffffffffffffffffffff16815250600360006008548152602001908152602001600020600082015181600001556020820151816001015560408201518160020160006101000a81548173ffffffffffffffffffffffffffffffffffffffff021916908373ffffffffffffffffffffffffffffffffffffffff1602179055509050505b5b8360016000600854815260200190815260200160002060006101000a81548160ff0219169083600281111561067a577f4e487b7100000000000000000000000000000000000000000000000000000000600052602160045260246000fd5b02179055503360056000600854815260200190815260200160002060006101000a81548173ffffffffffffffffffffffffffffffffffffffff021916908373ffffffffffffffffffffffffffffffffffffffff160217905550600267ffffffffffffffff811115610714577f4e487b7100000000000000000000000000000000000000000000000000000000600052604160045260246000fd5b6040519080825280602002602001820160405280156107425781602001602082028036833780820191505090505b50600460006008548152602001908152602001600020908051906020019061076b929190611233565b50856004600060085481526020019081526020016000206000815481106107bb577f4e487b7100000000000000000000000000000000000000000000000000000000600052603260045260246000fd5b906000526020600020018190555084600460006008548152602001908152602001600020600181548110610818577f4e487b7100000000000000000000000000000000000000000000000000000000600052603260045260246000fd5b90600052602060002001819055508260076000600854815260200190815260200160002060006101000a81548160ff02191690831515021790555060086000815480929190610866906119b9565b9190505550505050505050565b6007600082815260200190815260200160002060009054906101000a900460ff1680156108ff57503373ffffffffffffffffffffffffffffffffffffffff166006600083815260200190815260200160002060009054906101000a900473ffffffffffffffffffffffffffffffffffffffff1673ffffffffffffffffffffffffffffffffffffffff1614155b61093e576040517f08c379a000000000000000000000000000000000000000000000000000000000815260040161093590611739565b60405180910390fd5b60016002811115610978577f4e487b7100000000000000000000000000000000000000000000000000000000600052602160045260246000fd5b6001600083815260200190815260200160002060009054906101000a900460ff1660028111156109d1577f4e487b7100000000000000000000000000000000000000000000000000000000600052602160045260246000fd5b1415610b20576109e081610ca4565b60008054906101000a900473ffffffffffffffffffffffffffffffffffffffff1673ffffffffffffffffffffffffffffffffffffffff1663095bcdb63360046000858152602001908152602001600020600081548110610a69577f4e487b7100000000000000000000000000000000000000000000000000000000600052603260045260246000fd5b906000526020600020015460046000868152602001908152602001600020600181548110610ac0577f4e487b7100000000000000000000000000000000000000000000000000000000600052603260045260246000fd5b90600052602060002001546040518463ffffffff1660e01b8152600401610ae9939291906116a5565b600060405180830381600087803b158015610b0357600080fd5b505af1158015610b17573d6000803e3d6000fd5b50505050610bc3565b600280811115610b59577f4e487b7100000000000000000000000000000000000000000000000000000000600052602160045260246000fd5b6001600083815260200190815260200160002060009054906101000a900460ff166002811115610bb2577f4e487b7100000000000000000000000000000000000000000000000000000000600052602160045260246000fd5b1415610bc257610bc181610fa4565b5b5b50565b600080610bd384846110fd565b90506003600082815260200190815260200160002060010154421115610bfc5730915050610c37565b6003600085815260200190815260200160002060020160009054906101000a900473ffffffffffffffffffffffffffffffffffffffff169150505b92915050565b6000602082610c4c9190611874565b83511015610c8f576040517f08c379a0000000000000000000000000000000000000000000000000000000008152600401610c8690611779565b60405180910390fd5b60008260208501015190508091505092915050565b600073ffffffffffffffffffffffffffffffffffffffff166002600083815260200190815260200160002060000160009054906101000a900473ffffffffffffffffffffffffffffffffffffffff1673ffffffffffffffffffffffffffffffffffffffff161415610ddb576002600082815260200190815260200160002060010154341015610d68576040517f08c379a0000000000000000000000000000000000000000000000000000000008152600401610d5f90611719565b60405180910390fd5b60003390508073ffffffffffffffffffffffffffffffffffffffff166108fc600260008581526020019081526020016000206001015434610da991906118ca565b9081150290604051600060405180830381858888f19350505050158015610dd4573d6000803e3d6000fd5b5050610fa1565b60006002600083815260200190815260200160002060000160009054906101000a900473ffffffffffffffffffffffffffffffffffffffff16905060026000838152602001908152602001600020600101548173ffffffffffffffffffffffffffffffffffffffff1663dd62ed3e33306040518363ffffffff1660e01b8152600401610e68929190611645565b60206040518083038186803b158015610e8057600080fd5b505afa158015610e94573d6000803e3d6000fd5b505050506040513d601f19601f82011682018060405250810190610eb891906113fe565b1015610ef9576040517f08c379a0000000000000000000000000000000000000000000000000000000008152600401610ef090611719565b60405180910390fd5b8073ffffffffffffffffffffffffffffffffffffffff166323b872dd333060026000878152602001908152602001600020600101546040518463ffffffff1660e01b8152600401610f4c9392919061166e565b602060405180830381600087803b158015610f6657600080fd5b505af1158015610f7a573d6000803e3d6000fd5b505050506040513d601f19601f82011682018060405250810190610f9e91906113ac565b50505b50565b600073ffffffffffffffffffffffffffffffffffffffff166003600083815260200190815260200160002060020160009054906101000a900473ffffffffffffffffffffffffffffffffffffffff1673ffffffffffffffffffffffffffffffffffffffff16148061102a5750426003600083815260200190815260200160002060010154105b611069576040517f08c379a000000000000000000000000000000000000000000000000000000000815260040161106090611799565b60405180910390fd5b336003600083815260200190815260200160002060020160006101000a81548173ffffffffffffffffffffffffffffffffffffffff021916908373ffffffffffffffffffffffffffffffffffffffff1602179055506003600082815260200190815260200160002060000154426110e09190611874565b600360008381526020019081526020016000206001018190555050565b600080600090505b6008548110156111ea57836004600083815260200190815260200160002060008154811061115c577f4e487b7100000000000000000000000000000000000000000000000000000000600052603260045260246000fd5b90600052602060002001541480156111c9575082600460008381526020019081526020016000206001815481106111bc577f4e487b7100000000000000000000000000000000000000000000000000000000600052603260045260246000fd5b9060005260206000200154145b156111d7578091505061122d565b80806111e2906119b9565b915050611105565b50600061122c576040517f08c379a0000000000000000000000000000000000000000000000000000000008152600401611223906117b9565b60405180910390fd5b5b92915050565b82805482825590600052602060002090810192821561126f579160200282015b8281111561126e578251825591602001919060010190611253565b5b50905061127c9190611280565b5090565b5b80821115611299576000816000905550600101611281565b5090565b60006112b06112ab84611827565b611802565b9050828152602081018484840111156112c857600080fd5b6112d3848285611946565b509392505050565b6000815190506112ea81611bff565b92915050565b6000813590506112ff81611c16565b92915050565b60008151905061131481611c16565b92915050565b600082601f83011261132b57600080fd5b813561133b84826020860161129d565b91505092915050565b60008135905061135381611c2d565b92915050565b60008135905061136881611c3d565b92915050565b60008151905061137d81611c3d565b92915050565b60006020828403121561139557600080fd5b60006113a3848285016112db565b91505092915050565b6000602082840312156113be57600080fd5b60006113cc84828501611305565b91505092915050565b6000602082840312156113e757600080fd5b60006113f584828501611359565b91505092915050565b60006020828403121561141057600080fd5b600061141e8482850161136e565b91505092915050565b6000806040838503121561143a57600080fd5b600061144885828601611359565b925050602061145985828601611359565b9150509250929050565b600080600080600060a0868803121561147b57600080fd5b600061148988828901611359565b955050602061149a88828901611359565b94505060406114ab88828901611344565b93505060606114bc888289016112f0565b925050608086013567ffffffffffffffff8111156114d957600080fd5b6114e58882890161131a565b9150509295509295909350565b6114fb816118fe565b82525050565b61150a81611910565b82525050565b600061151b82611858565b6115258185611863565b9350611535818560208601611955565b61153e81611a60565b840191505092915050565b6000611556602a83611863565b915061156182611a71565b604082019050919050565b6000611579603c83611863565b915061158482611ac0565b604082019050919050565b600061159c601a83611863565b91506115a782611b0f565b602082019050919050565b60006115bf601583611863565b91506115ca82611b38565b602082019050919050565b60006115e2604283611863565b91506115ed82611b61565b606082019050919050565b6000611605601183611863565b915061161082611bd6565b602082019050919050565b6116248161193c565b82525050565b600060208201905061163f60008301846114f2565b92915050565b600060408201905061165a60008301856114f2565b61166760208301846114f2565b9392505050565b600060608201905061168360008301866114f2565b61169060208301856114f2565b61169d604083018461161b565b949350505050565b60006060820190506116ba60008301866114f2565b6116c7602083018561161b565b6116d4604083018461161b565b949350505050565b60006020820190506116f16000830184611501565b92915050565b600060208201905081810360008301526117118184611510565b905092915050565b6000602082019050818103600083015261173281611549565b9050919050565b600060208201905081810360008301526117528161156c565b9050919050565b600060208201905081810360008301526117728161158f565b9050919050565b60006020820190508181036000830152611792816115b2565b9050919050565b600060208201905081810360008301526117b2816115d5565b9050919050565b600060208201905081810360008301526117d2816115f8565b9050919050565b60006040820190506117ee600083018561161b565b6117fb602083018461161b565b9392505050565b600061180c61181d565b90506118188282611988565b919050565b6000604051905090565b600067ffffffffffffffff82111561184257611841611a31565b5b61184b82611a60565b9050602081019050919050565b600081519050919050565b600082825260208201905092915050565b600061187f8261193c565b915061188a8361193c565b9250827fffffffffffffffffffffffffffffffffffffffffffffffffffffffffffffffff038211156118bf576118be611a02565b5b828201905092915050565b60006118d58261193c565b91506118e08361193c565b9250828210156118f3576118f2611a02565b5b828203905092915050565b60006119098261191c565b9050919050565b60008115159050919050565b600073ffffffffffffffffffffffffffffffffffffffff82169050919050565b6000819050919050565b82818337600083830152505050565b60005b83811015611973578082015181840152602081019050611958565b83811115611982576000848401525b50505050565b61199182611a60565b810181811067ffffffffffffffff821117156119b0576119af611a31565b5b80604052505050565b60006119c48261193c565b91507fffffffffffffffffffffffffffffffffffffffffffffffffffffffffffffffff8214156119f7576119f6611a02565b5b600182019050919050565b7f4e487b7100000000000000000000000000000000000000000000000000000000600052601160045260246000fd5b7f4e487b7100000000000000000000000000000000000000000000000000000000600052604160045260246000fd5b6000601f19601f8301169050919050565b7f4b657944656c656761746f723a20496e73756666696369656e74206465706f7360008201527f6974207061796d656e7400000000000000000000000000000000000000000000602082015250565b7f4b657944656c656761746f723a20596f752068617665206e6f74206265656e2060008201527f617070726f76656420746f20616371756972652074686973206b657900000000602082015250565b7f4b657944656c656761746f723a20496e76616c6964206d6f6465000000000000600082015250565b7f746f55696e743235365f6f75744f66426f756e64730000000000000000000000600082015250565b7f4b657944656c656761746f723a204b657920756e617661696c61626c652c206360008201527f757272656e746c792064656c65676174656420746f20616e6f7468657220757360208201527f6572000000000000000000000000000000000000000000000000000000000000604082015250565b7f4e6f6e2d6578697374656e742070616972000000000000000000000000000000600082015250565b611c08816118fe565b8114611c1357600080fd5b50565b611c1f81611910565b8114611c2a57600080fd5b50565b60038110611c3a57600080fd5b50565b611c468161193c565b8114611c5157600080fd5b5056fe4b657944656c656761746f723a20537570706c69656420617267756d656e747320646f6573206e6f74206d61746368206d6f6465a2646970667358221220ae2955e946d3c1e1e51404ae394a59f2383fd87bcdc6e845cbb677621ef046ae64736f6c63430008030033",
  "immutableReferences": {},
  "source": "// SPDX-License-Identifier: Unlicensed\r\n// Jin Hong Kuan 2021 Copyrighted\r\npragma solidity ^0.8.0;\r\n\r\nimport \"../Keylink.sol\"; \r\nimport \"../ILiquidationCheck.sol\";\r\nimport \"../IDelegator.sol\";\r\nimport \"../libraries/BytesLib.sol\"; \r\nimport \"@openzeppelin/contracts/token/ERC20/IERC20.sol\"; \r\n\r\ncontract KeylinkDelegator is IDelegator {\r\n\r\n    enum Mode {\r\n        none,\r\n        payToClaim,\r\n        timedDelegatedKey \r\n    }\r\n\r\n    struct payToClaim {\r\n        address token;\r\n        uint256 amount;\r\n    }\r\n\r\n    struct timedDelegatedKey {\r\n        uint256 validDuration;\r\n        uint256 expiryBlock;\r\n        address delegatedTo;\r\n    }\r\n\r\n    Keylink _keylink; \r\n    mapping(uint256 => Mode) private _modes;\r\n    mapping(uint256 => payToClaim) private _payToClaims;\r\n    mapping(uint256 => timedDelegatedKey) private _timedDelegatedKeys;\r\n    mapping(uint256 => uint256[]) private _keys;\r\n    mapping(uint256 => address) private _owners;\r\n    mapping(uint256 => address) private _approvals;\r\n    mapping(uint256 => bool) private _needApprovals;\r\n\r\n\r\n    uint256 private _counter = 0;\r\n\r\n    constructor(address keylink_) {\r\n        _keylink = Keylink(keylink_);\r\n    }\r\n\r\n    function isDelegator() external override pure returns(bool) {\r\n        return true;\r\n    }\r\n\r\n    function entrust(uint256 id, uint256 index, Mode _mode, bool _needApproval, bytes memory _args) external {\r\n        require(_keylink.ownerOf(id, index) == msg.sender);\r\n        require(_mode != Mode.none, \"KeyDelegator: Invalid mode\");\r\n        _keylink.transferFrom(address(this), id, index);\r\n        string memory argsInvalid = \"KeyDelegator: Supplied arguments does not match mode\";\r\n        if (_mode == Mode.payToClaim) {\r\n            require(_args.length == 52, argsInvalid); \r\n            address token; \r\n            assembly {\r\n                token := mload(add(_args, 20))\r\n            }\r\n            _payToClaims[_counter] = payToClaim(token, BytesLib.toUint256(_args, 20));\r\n        } else if (_mode == Mode.timedDelegatedKey) {\r\n            require(_args.length == 32, argsInvalid); \r\n            _timedDelegatedKeys[_counter] = timedDelegatedKey(BytesLib.toUint256(_args, 0), 0, address(0));\r\n        }\r\n        _modes[_counter] = _mode;\r\n        _owners[_counter] = msg.sender;\r\n        _keys[_counter] = new uint256[](2); \r\n        _keys[_counter][0] = id;\r\n        _keys[_counter][1] = index; \r\n        _needApprovals[_counter] = _needApproval;\r\n        _counter++;\r\n\r\n    }\r\n\r\n    function acquire(uint256 id) payable external {\r\n        require (_needApprovals[id] && (_approvals[id] != msg.sender), \"KeyDelegator: You have not been approved to acquire this key\");\r\n        if (_modes[id] == Mode.payToClaim) {\r\n            _payToClaimPayment(id);\r\n            _keylink.transfer(msg.sender, _keys[id][0], _keys[id][1]);\r\n        } else if (_modes[id] == Mode.timedDelegatedKey) {\r\n            _delegateTimedKey(id);\r\n        }\r\n    }\r\n\r\n    function delegatedTo(uint256 id, uint256 index) external view override returns(address) {\r\n        uint256 i = _search(id, index);\r\n        if (block.timestamp > _timedDelegatedKeys[i].expiryBlock) {\r\n            return address(this); \r\n        } else {\r\n            return _timedDelegatedKeys[id].delegatedTo;\r\n        }\r\n    }\r\n    \r\n\r\n    function _search(uint256 id, uint256 index) internal view returns(uint256 ret) {\r\n        for (uint i = 0; i < _counter; i++) {\r\n            if (_keys[i][0] == id && _keys[i][1] == index) {\r\n                return i;\r\n            }\r\n        }\r\n        require(false, \"Non-existent pair\");\r\n    }\r\n\r\n    \r\n    function _payToClaimPayment(uint256 id) internal {\r\n        if (_payToClaims[id].token == address(0)) {\r\n            require(msg.value >= _payToClaims[id].amount, \"KeyDelegator: Insufficient deposit payment\");\r\n            address payable sender = payable(msg.sender);\r\n            sender.transfer(msg.value - _payToClaims[id].amount);\r\n        } else {\r\n            IERC20 token = IERC20(_payToClaims[id].token);\r\n            require(token.allowance(msg.sender, address(this)) >= _payToClaims[id].amount, \"KeyDelegator: Insufficient deposit payment\");\r\n            token.transferFrom(msg.sender, address(this), _payToClaims[id].amount);\r\n        } \r\n    }\r\n\r\n    function _delegateTimedKey(uint256 id) internal {\r\n        require(_timedDelegatedKeys[id].delegatedTo == address(0) || _timedDelegatedKeys[id].expiryBlock < block.timestamp, \"KeyDelegator: Key unavailable, currently delegated to another user\");\r\n        _timedDelegatedKeys[id].delegatedTo = msg.sender; \r\n        _timedDelegatedKeys[id].expiryBlock = block.timestamp + _timedDelegatedKeys[id].validDuration;\r\n    }\r\n\r\n    \r\n\r\n}",
  "sourcePath": "C:/Users/Kuan/Documents/GitHub/collaterize/contracts/periphery/KeylinkDelegator.sol",
  "compiler": {
    "name": "solc",
    "version": "0.8.3+commit.8d00100c.Emscripten.clang"
  },
  "schemaVersion": "3.3.4",
  "updatedAt": "2021-07-10T01:21:33.463Z",
  "networkType": "ethereum",
  "devdoc": {
    "kind": "dev",
    "methods": {},
    "version": 1
  },
  "userdoc": {
    "kind": "user",
    "methods": {},
    "version": 1
  }
}