{
  "contractName": "KeyReservation",
  "abi": [
    {
      "inputs": [
        {
          "internalType": "address",
          "name": "keylinq_",
          "type": "address"
        }
      ],
      "stateMutability": "nonpayable",
      "type": "constructor"
    },
    {
      "anonymous": false,
      "inputs": [
        {
          "indexed": false,
          "internalType": "address",
          "name": "owner",
          "type": "address"
        },
        {
          "indexed": false,
          "internalType": "uint256",
          "name": "id",
          "type": "uint256"
        }
      ],
      "name": "Entrusted",
      "type": "event"
    },
    {
      "anonymous": false,
      "inputs": [
        {
          "indexed": false,
          "internalType": "address",
          "name": "claimant",
          "type": "address"
        },
        {
          "indexed": false,
          "internalType": "uint256",
          "name": "id",
          "type": "uint256"
        }
      ],
      "name": "Returned",
      "type": "event"
    },
    {
      "inputs": [],
      "name": "isDelegator",
      "outputs": [
        {
          "internalType": "bool",
          "name": "",
          "type": "bool"
        }
      ],
      "stateMutability": "pure",
      "type": "function"
    },
    {
      "inputs": [
        {
          "internalType": "uint256",
          "name": "id",
          "type": "uint256"
        },
        {
          "internalType": "uint256",
          "name": "index",
          "type": "uint256"
        },
        {
          "internalType": "bytes",
          "name": "_args",
          "type": "bytes"
        }
      ],
      "name": "entrust",
      "outputs": [],
      "stateMutability": "nonpayable",
      "type": "function"
    },
    {
      "inputs": [
        {
          "internalType": "uint256",
          "name": "id",
          "type": "uint256"
        }
      ],
      "name": "reserve",
      "outputs": [],
      "stateMutability": "payable",
      "type": "function"
    },
    {
      "inputs": [
        {
          "internalType": "uint256",
          "name": "id",
          "type": "uint256"
        }
      ],
      "name": "returnKey",
      "outputs": [],
      "stateMutability": "nonpayable",
      "type": "function"
    },
    {
      "inputs": [
        {
          "internalType": "uint256",
          "name": "id",
          "type": "uint256"
        },
        {
          "internalType": "uint256",
          "name": "index",
          "type": "uint256"
        }
      ],
      "name": "delegatedTo",
      "outputs": [
        {
          "internalType": "address",
          "name": "",
          "type": "address"
        }
      ],
      "stateMutability": "view",
      "type": "function"
    },
    {
      "inputs": [
        {
          "internalType": "uint256",
          "name": "id",
          "type": "uint256"
        }
      ],
      "name": "_handleReturn",
      "outputs": [],
      "stateMutability": "nonpayable",
      "type": "function"
    }
  ],
  "bytecode": "0x608060405260006005553480156200001657600080fd5b5060405162001d4e38038062001d4e83398181016040528101906200003c91906200009a565b806000806101000a81548173ffffffffffffffffffffffffffffffffffffffff021916908373ffffffffffffffffffffffffffffffffffffffff1602179055505062000114565b6000815190506200009481620000fa565b92915050565b600060208284031215620000ad57600080fd5b6000620000bd8482850162000083565b91505092915050565b6000620000d382620000da565b9050919050565b600073ffffffffffffffffffffffffffffffffffffffff82169050919050565b6200010581620000c6565b81146200011157600080fd5b50565b611c2a80620001246000396000f3fe6080604052600436106100555760003560e01c8063185ed8311461005a5780632fc8ba4e146100855780636fac770a146100ae578063788232a0146100d7578063819b25ba14610114578063a8a8e43e14610130575b600080fd5b34801561006657600080fd5b5061006f610159565b60405161007c9190611657565b60405180910390f35b34801561009157600080fd5b506100ac60048036038101906100a79190611365565b610162565b005b3480156100ba57600080fd5b506100d560048036038101906100d091906113f3565b610466565b005b3480156100e357600080fd5b506100fe60048036038101906100f991906113b7565b610951565b60405161010b919061157c565b60405180910390f35b61012e60048036038101906101299190611365565b6109c8565b005b34801561013c57600080fd5b5061015760048036038101906101529190611365565b610a7e565b005b60006001905090565b600073ffffffffffffffffffffffffffffffffffffffff166001600083815260200190815260200160002060000160009054906101000a900473ffffffffffffffffffffffffffffffffffffffff1673ffffffffffffffffffffffffffffffffffffffff16141561026b5760006001600083815260200190815260200160002060040160009054906101000a900473ffffffffffffffffffffffffffffffffffffffff1690508073ffffffffffffffffffffffffffffffffffffffff166108fc60016000858152602001908152602001600020600101549081150290604051600060405180830381858888f19350505050158015610264573d6000803e3d6000fd5b5050610382565b60006001600083815260200190815260200160002060000160009054906101000a900473ffffffffffffffffffffffffffffffffffffffff1690508073ffffffffffffffffffffffffffffffffffffffff1663a9059cbb6001600085815260200190815260200160002060040160009054906101000a900473ffffffffffffffffffffffffffffffffffffffff1660016000868152602001908152602001600020600101546040518363ffffffff1660e01b815260040161032d9291906115f7565b602060405180830381600087803b15801561034757600080fd5b505af115801561035b573d6000803e3d6000fd5b505050506040513d601f19601f8201168201806040525081019061037f919061133c565b50505b7fdd81098bbc043431d4a440ca8823673fd1129893ab79f9838df4cf3d5e3812596001600083815260200190815260200160002060040160009054906101000a900473ffffffffffffffffffffffffffffffffffffffff16826040516103e99291906115f7565b60405180910390a16000600160008381526020019081526020016000206003018190555060006001600083815260200190815260200160002060040160006101000a81548173ffffffffffffffffffffffffffffffffffffffff021916908373ffffffffffffffffffffffffffffffffffffffff16021790555050565b3373ffffffffffffffffffffffffffffffffffffffff1660008054906101000a900473ffffffffffffffffffffffffffffffffffffffff1673ffffffffffffffffffffffffffffffffffffffff1663d9dad80d85856040518363ffffffff1660e01b81526004016104d8929190611752565b60206040518083038186803b1580156104f057600080fd5b505afa158015610504573d6000803e3d6000fd5b505050506040513d601f19601f820116820180604052508101906105289190611313565b73ffffffffffffffffffffffffffffffffffffffff161461054857600080fd5b60008054906101000a900473ffffffffffffffffffffffffffffffffffffffff1673ffffffffffffffffffffffffffffffffffffffff166377dbbd763085856040518463ffffffff1660e01b81526004016105a593929190611620565b600060405180830381600087803b1580156105bf57600080fd5b505af11580156105d3573d6000803e3d6000fd5b50505050605481511461061b576040517f08c379a0000000000000000000000000000000000000000000000000000000008152600401610612906116b2565b60405180910390fd5b6000601482015190506040518060a001604052808273ffffffffffffffffffffffffffffffffffffffff168152602001610656846014610b2e565b8152602001610666846034610b2e565b815260200160008152602001600073ffffffffffffffffffffffffffffffffffffffff1681525060016000600554815260200190815260200160002060008201518160000160006101000a81548173ffffffffffffffffffffffffffffffffffffffff021916908373ffffffffffffffffffffffffffffffffffffffff16021790555060208201518160010155604082015181600201556060820151816003015560808201518160040160006101000a81548173ffffffffffffffffffffffffffffffffffffffff021916908373ffffffffffffffffffffffffffffffffffffffff1602179055509050503360036000600554815260200190815260200160002060006101000a81548173ffffffffffffffffffffffffffffffffffffffff021916908373ffffffffffffffffffffffffffffffffffffffff160217905550600267ffffffffffffffff8111156107e6577f4e487b7100000000000000000000000000000000000000000000000000000000600052604160045260246000fd5b6040519080825280602002602001820160405280156108145781602001602082028036833780820191505090505b50600260006005548152602001908152602001600020908051906020019061083d9291906111ed565b508360026000600554815260200190815260200160002060008154811061088d577f4e487b7100000000000000000000000000000000000000000000000000000000600052603260045260246000fd5b9060005260206000200181905550826002600060055481526020019081526020016000206001815481106108ea577f4e487b7100000000000000000000000000000000000000000000000000000000600052603260045260246000fd5b90600052602060002001819055507f6dbd579be2c57edc2b08c40782481428cb8211016de34814d0c75db06cb307483360055460405161092b9291906115f7565b60405180910390a160056000815480929190610946906118f4565b919050555050505050565b60008061095e8484610b95565b9050600160008281526020019081526020016000206003015442111561098757309150506109c2565b6001600085815260200190815260200160002060040160009054906101000a900473ffffffffffffffffffffffffffffffffffffffff169150505b92915050565b3373ffffffffffffffffffffffffffffffffffffffff166004600083815260200190815260200160002060009054906101000a900473ffffffffffffffffffffffffffffffffffffffff1673ffffffffffffffffffffffffffffffffffffffff1614610a69576040517f08c379a0000000000000000000000000000000000000000000000000000000008152600401610a6090611692565b60405180910390fd5b610a7281610ccb565b610a7b81611020565b50565b3373ffffffffffffffffffffffffffffffffffffffff166001600083815260200190815260200160002060040160009054906101000a900473ffffffffffffffffffffffffffffffffffffffff1673ffffffffffffffffffffffffffffffffffffffff1614610b22576040517f08c379a0000000000000000000000000000000000000000000000000000000008152600401610b1990611712565b60405180910390fd5b610b2b81610162565b50565b6000602082610b3d91906117e2565b83511015610b80576040517f08c379a0000000000000000000000000000000000000000000000000000000008152600401610b77906116d2565b60405180910390fd5b60008260208501015190508091505092915050565b600080600090505b600554811015610c82578360026000838152602001908152602001600020600081548110610bf4577f4e487b7100000000000000000000000000000000000000000000000000000000600052603260045260246000fd5b9060005260206000200154148015610c6157508260026000838152602001908152602001600020600181548110610c54577f4e487b7100000000000000000000000000000000000000000000000000000000600052603260045260246000fd5b9060005260206000200154145b15610c6f5780915050610cc5565b8080610c7a906118f4565b915050610b9d565b506000610cc4576040517f08c379a0000000000000000000000000000000000000000000000000000000008152600401610cbb90611732565b60405180910390fd5b5b92915050565b600073ffffffffffffffffffffffffffffffffffffffff166001600083815260200190815260200160002060000160009054906101000a900473ffffffffffffffffffffffffffffffffffffffff1673ffffffffffffffffffffffffffffffffffffffff161415610e02576001600082815260200190815260200160002060010154341015610d8f576040517f08c379a0000000000000000000000000000000000000000000000000000000008152600401610d8690611672565b60405180910390fd5b60003390508073ffffffffffffffffffffffffffffffffffffffff166108fc600160008581526020019081526020016000206001015434610dd09190611838565b9081150290604051600060405180830381858888f19350505050158015610dfb573d6000803e3d6000fd5b5050610fc8565b60006001600083815260200190815260200160002060000160009054906101000a900473ffffffffffffffffffffffffffffffffffffffff16905060016000838152602001908152602001600020600101548173ffffffffffffffffffffffffffffffffffffffff1663dd62ed3e33306040518363ffffffff1660e01b8152600401610e8f929190611597565b60206040518083038186803b158015610ea757600080fd5b505afa158015610ebb573d6000803e3d6000fd5b505050506040513d601f19601f82011682018060405250810190610edf919061138e565b1015610f20576040517f08c379a0000000000000000000000000000000000000000000000000000000008152600401610f1790611672565b60405180910390fd5b8073ffffffffffffffffffffffffffffffffffffffff166323b872dd333060016000878152602001908152602001600020600101546040518463ffffffff1660e01b8152600401610f73939291906115c0565b602060405180830381600087803b158015610f8d57600080fd5b505af1158015610fa1573d6000803e3d6000fd5b505050506040513d601f19601f82011682018060405250810190610fc5919061133c565b50505b336001600083815260200190815260200160002060040160006101000a81548173ffffffffffffffffffffffffffffffffffffffff021916908373ffffffffffffffffffffffffffffffffffffffff16021790555050565b600073ffffffffffffffffffffffffffffffffffffffff166001600083815260200190815260200160002060040160009054906101000a900473ffffffffffffffffffffffffffffffffffffffff1673ffffffffffffffffffffffffffffffffffffffff1614806110a65750426001600083815260200190815260200160002060030154105b6110e5576040517f08c379a00000000000000000000000000000000000000000000000000000000081526004016110dc906116f2565b60405180910390fd5b600073ffffffffffffffffffffffffffffffffffffffff166001600083815260200190815260200160002060040160009054906101000a900473ffffffffffffffffffffffffffffffffffffffff1673ffffffffffffffffffffffffffffffffffffffff16146111595761115881610162565b5b336001600083815260200190815260200160002060040160006101000a81548173ffffffffffffffffffffffffffffffffffffffff021916908373ffffffffffffffffffffffffffffffffffffffff1602179055506001600082815260200190815260200160002060020154426111d091906117e2565b600160008381526020019081526020016000206003018190555050565b828054828255906000526020600020908101928215611229579160200282015b8281111561122857825182559160200191906001019061120d565b5b509050611236919061123a565b5090565b5b8082111561125357600081600090555060010161123b565b5090565b600061126a611265846117a0565b61177b565b90508281526020810184848401111561128257600080fd5b61128d8482856118b4565b509392505050565b6000815190506112a481611baf565b92915050565b6000815190506112b981611bc6565b92915050565b600082601f8301126112d057600080fd5b81356112e0848260208601611257565b91505092915050565b6000813590506112f881611bdd565b92915050565b60008151905061130d81611bdd565b92915050565b60006020828403121561132557600080fd5b600061133384828501611295565b91505092915050565b60006020828403121561134e57600080fd5b600061135c848285016112aa565b91505092915050565b60006020828403121561137757600080fd5b6000611385848285016112e9565b91505092915050565b6000602082840312156113a057600080fd5b60006113ae848285016112fe565b91505092915050565b600080604083850312156113ca57600080fd5b60006113d8858286016112e9565b92505060206113e9858286016112e9565b9150509250929050565b60008060006060848603121561140857600080fd5b6000611416868287016112e9565b9350506020611427868287016112e9565b925050604084013567ffffffffffffffff81111561144457600080fd5b611450868287016112bf565b9150509250925092565b6114638161186c565b82525050565b6114728161187e565b82525050565b6000611485602a836117d1565b9150611490826119ac565b604082019050919050565b60006114a8603c836117d1565b91506114b3826119fb565b604082019050919050565b60006114cb6034836117d1565b91506114d682611a4a565b604082019050919050565b60006114ee6015836117d1565b91506114f982611a99565b602082019050919050565b60006115116042836117d1565b915061151c82611ac2565b606082019050919050565b60006115346032836117d1565b915061153f82611b37565b604082019050919050565b60006115576011836117d1565b915061156282611b86565b602082019050919050565b611576816118aa565b82525050565b6000602082019050611591600083018461145a565b92915050565b60006040820190506115ac600083018561145a565b6115b9602083018461145a565b9392505050565b60006060820190506115d5600083018661145a565b6115e2602083018561145a565b6115ef604083018461156d565b949350505050565b600060408201905061160c600083018561145a565b611619602083018461156d565b9392505050565b6000606082019050611635600083018661145a565b611642602083018561156d565b61164f604083018461156d565b949350505050565b600060208201905061166c6000830184611469565b92915050565b6000602082019050818103600083015261168b81611478565b9050919050565b600060208201905081810360008301526116ab8161149b565b9050919050565b600060208201905081810360008301526116cb816114be565b9050919050565b600060208201905081810360008301526116eb816114e1565b9050919050565b6000602082019050818103600083015261170b81611504565b9050919050565b6000602082019050818103600083015261172b81611527565b9050919050565b6000602082019050818103600083015261174b8161154a565b9050919050565b6000604082019050611767600083018561156d565b611774602083018461156d565b9392505050565b6000611785611796565b905061179182826118c3565b919050565b6000604051905090565b600067ffffffffffffffff8211156117bb576117ba61196c565b5b6117c48261199b565b9050602081019050919050565b600082825260208201905092915050565b60006117ed826118aa565b91506117f8836118aa565b9250827fffffffffffffffffffffffffffffffffffffffffffffffffffffffffffffffff0382111561182d5761182c61193d565b5b828201905092915050565b6000611843826118aa565b915061184e836118aa565b9250828210156118615761186061193d565b5b828203905092915050565b60006118778261188a565b9050919050565b60008115159050919050565b600073ffffffffffffffffffffffffffffffffffffffff82169050919050565b6000819050919050565b82818337600083830152505050565b6118cc8261199b565b810181811067ffffffffffffffff821117156118eb576118ea61196c565b5b80604052505050565b60006118ff826118aa565b91507fffffffffffffffffffffffffffffffffffffffffffffffffffffffffffffffff8214156119325761193161193d565b5b600182019050919050565b7f4e487b7100000000000000000000000000000000000000000000000000000000600052601160045260246000fd5b7f4e487b7100000000000000000000000000000000000000000000000000000000600052604160045260246000fd5b6000601f19601f8301169050919050565b7f4b657944656c656761746f723a20496e73756666696369656e74206465706f7360008201527f6974207061796d656e7400000000000000000000000000000000000000000000602082015250565b7f4b657944656c656761746f723a20596f752068617665206e6f74206265656e2060008201527f617070726f76656420746f20616371756972652074686973206b657900000000602082015250565b7f4b657944656c656761746f723a20537570706c69656420617267756d656e747360008201527f20646f6573206e6f74206d61746368206d6f6465000000000000000000000000602082015250565b7f746f55696e743235365f6f75744f66426f756e64730000000000000000000000600082015250565b7f4b657944656c656761746f723a204b657920756e617661696c61626c652c206360008201527f757272656e746c792064656c65676174656420746f20616e6f7468657220757360208201527f6572000000000000000000000000000000000000000000000000000000000000604082015250565b7f4b657944656c656761746f723a20546869732063616e206f6e6c79206265206360008201527f616c6c656420627920636c61696d616e742e0000000000000000000000000000602082015250565b7f4e6f6e2d6578697374656e742070616972000000000000000000000000000000600082015250565b611bb88161186c565b8114611bc357600080fd5b50565b611bcf8161187e565b8114611bda57600080fd5b50565b611be6816118aa565b8114611bf157600080fd5b5056fea2646970667358221220228815e5042e775c0023c7352f59b0ef0c37b7312722c847df108cafa44fc5b964736f6c63430008030033",
  "immutableReferences": {},
  "source": "// SPDX-License-Identifier: Unlicensed\r\n// Jin Hong Kuan 2021 Copyrighted\r\npragma solidity ^0.8.0;\r\n\r\nimport \"../Keylinq.sol\"; \r\nimport \"../ILiquidationCheck.sol\";\r\nimport \"../IDelegator.sol\";\r\nimport \"../libraries/BytesLib.sol\"; \r\nimport \"@openzeppelin/contracts/token/ERC20/IERC20.sol\"; \r\n\r\ncontract KeyReservation is IDelegator {\r\n\r\n    struct Record {\r\n        address token;\r\n        uint256 depositAmount;\r\n        uint256 validDuration;\r\n        uint256 expiryBlock;\r\n        address delegatedTo;\r\n    }\r\n\r\n    event Entrusted(address owner, uint256 id);\r\n    event Returned(address claimant, uint256 id);\r\n\r\n    Keylinq _keylinq; \r\n    mapping(uint256 => Record) private _records;\r\n    mapping(uint256 => uint256[]) private _keys;\r\n    mapping(uint256 => address) private _owners;\r\n    mapping(uint256 => address) private _approvals;\r\n\r\n    uint256 private _counter = 0;\r\n\r\n    constructor(address keylinq_) {\r\n        _keylinq = Keylinq(keylinq_);\r\n    }\r\n\r\n    function isDelegator() external override pure returns(bool) {\r\n        return true;\r\n    }\r\n\r\n    function entrust(uint256 id, uint256 index, bytes memory _args) external {\r\n        require(_keylinq.ownerOf(id, index) == msg.sender);\r\n        _keylinq.transferFrom(address(this), id, index);\r\n        require(_args.length == 84, \"KeyDelegator: Supplied arguments does not match mode\"); \r\n        address token; \r\n        assembly {\r\n            token := mload(add(_args, 20))\r\n        }\r\n        _records[_counter] = Record(token, BytesLib.toUint256(_args, 20), BytesLib.toUint256(_args, 52), 0, address(0));\r\n        _owners[_counter] = msg.sender;\r\n        _keys[_counter] = new uint256[](2); \r\n        _keys[_counter][0] = id;\r\n        _keys[_counter][1] = index; \r\n\r\n        emit Entrusted(msg.sender, _counter);\r\n        _counter++;\r\n\r\n    }\r\n\r\n    function reserve(uint256 id) payable external {\r\n        require (_approvals[id] == msg.sender, \"KeyDelegator: You have not been approved to acquire this key\");\r\n        _handlePayment(id);\r\n        _delegateKey(id);\r\n    }\r\n\r\n    function returnKey(uint256 id) public {\r\n        require(_records[id].delegatedTo == msg.sender, \"KeyDelegator: This can only be called by claimant.\");\r\n        _handleReturn(id);\r\n    }\r\n\r\n    function delegatedTo(uint256 id, uint256 index) external view override returns(address) {\r\n        uint256 i = _search(id, index);\r\n        if (block.timestamp > _records[i].expiryBlock) {\r\n            return address(this); \r\n        } else {\r\n            return _records[id].delegatedTo;\r\n        }\r\n    }\r\n\r\n    function _search(uint256 id, uint256 index) internal view returns(uint256 ret) {\r\n        for (uint i = 0; i < _counter; i++) {\r\n            if (_keys[i][0] == id && _keys[i][1] == index) {\r\n                return i;\r\n            }\r\n        }\r\n        require(false, \"Non-existent pair\");\r\n    }\r\n\r\n    \r\n    function _handlePayment(uint256 id) internal {\r\n        if (_records[id].token == address(0)) {\r\n            require(msg.value >= _records[id].depositAmount, \"KeyDelegator: Insufficient deposit payment\");\r\n            address payable sender = payable(msg.sender);\r\n            sender.transfer(msg.value - _records[id].depositAmount);\r\n        } else {\r\n            IERC20 token = IERC20(_records[id].token);\r\n            require(token.allowance(msg.sender, address(this)) >= _records[id].depositAmount, \"KeyDelegator: Insufficient deposit payment\");\r\n            token.transferFrom(msg.sender, address(this), _records[id].depositAmount);\r\n        } \r\n        _records[id].delegatedTo = msg.sender; \r\n    }\r\n\r\n    function _handleReturn(uint256 id) public {\r\n        if (_records[id].token == address(0)) {\r\n            address payable returnTo = payable(_records[id].delegatedTo);\r\n            returnTo.transfer(_records[id].depositAmount);\r\n        } else {\r\n            IERC20 token = IERC20(_records[id].token);\r\n            token.transfer(_records[id].delegatedTo, _records[id].depositAmount);\r\n        }\r\n        emit Returned(_records[id].delegatedTo, id);\r\n        _records[id].expiryBlock = 0;\r\n        _records[id].delegatedTo = address(0);        \r\n    }\r\n\r\n\r\n    function _delegateKey(uint256 id) internal {\r\n        require(_records[id].delegatedTo == address(0) || _records[id].expiryBlock < block.timestamp, \"KeyDelegator: Key unavailable, currently delegated to another user\");\r\n        // Return deposit if previous claimant hasn't requested return\r\n        if (_records[id].delegatedTo != address(0)) {\r\n            _handleReturn(id);\r\n        }\r\n        _records[id].delegatedTo = msg.sender; \r\n        _records[id].expiryBlock = block.timestamp + _records[id].validDuration;\r\n    }\r\n\r\n    function _erase(uint256 id) internal {\r\n        _owners[id] = address(0);\r\n        _keys[id][0] = 0;\r\n        _keys[id][1] = 0;\r\n        delete _records[id];\r\n        delete _records[id];\r\n        _approvals[id] = address(0);\r\n    }\r\n\r\n    \r\n\r\n}",
  "sourcePath": "C:/Users/Kuan/Documents/GitHub/collaterize/contracts/periphery/KeyReservation.sol",
  "compiler": {
    "name": "solc",
    "version": "0.8.3+commit.8d00100c.Emscripten.clang"
  },
  "schemaVersion": "3.3.4",
  "updatedAt": "2021-07-15T20:16:20.234Z",
  "devdoc": {
    "kind": "dev",
    "methods": {},
    "version": 1
  },
  "userdoc": {
    "kind": "user",
    "methods": {},
    "version": 1
  }
}