{
  "contractName": "TimeLiquidationCheck",
  "abi": [
    {
      "inputs": [],
      "stateMutability": "nonpayable",
      "type": "constructor"
    },
    {
      "inputs": [
        {
          "internalType": "address",
          "name": "creator",
          "type": "address"
        },
        {
          "internalType": "address",
          "name": "owner",
          "type": "address"
        },
        {
          "internalType": "bytes",
          "name": "args",
          "type": "bytes"
        }
      ],
      "name": "liquidationCheck",
      "outputs": [
        {
          "internalType": "bool",
          "name": "",
          "type": "bool"
        }
      ],
      "stateMutability": "view",
      "type": "function",
      "constant": true
    },
    {
      "inputs": [
        {
          "internalType": "address",
          "name": "creator",
          "type": "address"
        },
        {
          "internalType": "address",
          "name": "owner",
          "type": "address"
        },
        {
          "internalType": "bytes",
          "name": "args",
          "type": "bytes"
        }
      ],
      "name": "toString",
      "outputs": [
        {
          "internalType": "string",
          "name": "",
          "type": "string"
        }
      ],
      "stateMutability": "pure",
      "type": "function",
      "constant": true
    }
  ],
  "bytecode": "0x608060405234801561001057600080fd5b506108b9806100206000396000f3fe608060405234801561001057600080fd5b50600436106100365760003560e01c80630a49c6f81461003b578063c1637f851461006b575b600080fd5b61005560048036038101906100509190610342565b61009b565b60405161006291906104b0565b60405180910390f35b61008560048036038101906100809190610342565b6100d8565b6040516100929190610495565b60405180910390f35b60606000602083015190506100af816100f0565b6040516020016100bf9190610468565b6040516020818303038152906040529150509392505050565b60008060208301519050804210159150509392505050565b60606000821415610138576040518060400160405280600181526020017f300000000000000000000000000000000000000000000000000000000000000081525090506102c0565b600082905060005b6000821461016a5780806101539061070d565b915050600a826101639190610586565b9150610140565b60008167ffffffffffffffff8111156101ac577f4e487b7100000000000000000000000000000000000000000000000000000000600052604160045260246000fd5b6040519080825280601f01601f1916602001820160405280156101de5781602001600182028036833780820191505090505b50905060008290505b600086146102b8576001816101fc9190610611565b90506000600a808861020e9190610586565b61021891906105b7565b876102239190610611565b603061022f919061054f565b905060008160f81b905080848481518110610273577f4e487b7100000000000000000000000000000000000000000000000000000000600052603260045260246000fd5b60200101907effffffffffffffffffffffffffffffffffffffffffffffffffffffffffffff1916908160001a905350600a886102af9190610586565b975050506101e7565b819450505050505b919050565b60006102d86102d3846104f7565b6104d2565b9050828152602081018484840111156102f057600080fd5b6102fb84828561069a565b509392505050565b6000813590506103128161086c565b92915050565b600082601f83011261032957600080fd5b81356103398482602086016102c5565b91505092915050565b60008060006060848603121561035757600080fd5b600061036586828701610303565b935050602061037686828701610303565b925050604084013567ffffffffffffffff81111561039357600080fd5b61039f86828701610318565b9150509250925092565b6103b281610657565b82525050565b60006103c382610528565b6103cd8185610533565b93506103dd8185602086016106a9565b6103e6816107e3565b840191505092915050565b60006103fc82610528565b6104068185610544565b93506104168185602086016106a9565b80840191505092915050565b600061042f602183610544565b915061043a826107f4565b602182019050919050565b6000610452601283610544565b915061045d82610843565b601282019050919050565b600061047382610422565b915061047f82846103f1565b915061048a82610445565b915081905092915050565b60006020820190506104aa60008301846103a9565b92915050565b600060208201905081810360008301526104ca81846103b8565b905092915050565b60006104dc6104ed565b90506104e882826106dc565b919050565b6000604051905090565b600067ffffffffffffffff821115610512576105116107b4565b5b61051b826107e3565b9050602081019050919050565b600081519050919050565b600082825260208201905092915050565b600081905092915050565b600061055a8261068d565b91506105658361068d565b92508260ff0382111561057b5761057a610756565b5b828201905092915050565b600061059182610683565b915061059c83610683565b9250826105ac576105ab610785565b5b828204905092915050565b60006105c282610683565b91506105cd83610683565b9250817fffffffffffffffffffffffffffffffffffffffffffffffffffffffffffffffff048311821515161561060657610605610756565b5b828202905092915050565b600061061c82610683565b915061062783610683565b92508282101561063a57610639610756565b5b828203905092915050565b600061065082610663565b9050919050565b60008115159050919050565b600073ffffffffffffffffffffffffffffffffffffffff82169050919050565b6000819050919050565b600060ff82169050919050565b82818337600083830152505050565b60005b838110156106c75780820151818401526020810190506106ac565b838111156106d6576000848401525b50505050565b6106e5826107e3565b810181811067ffffffffffffffff82111715610704576107036107b4565b5b80604052505050565b600061071882610683565b91507fffffffffffffffffffffffffffffffffffffffffffffffffffffffffffffffff82141561074b5761074a610756565b5b600182019050919050565b7f4e487b7100000000000000000000000000000000000000000000000000000000600052601160045260246000fd5b7f4e487b7100000000000000000000000000000000000000000000000000000000600052601260045260246000fd5b7f4e487b7100000000000000000000000000000000000000000000000000000000600052604160045260246000fd5b6000601f19601f8301169050919050565b7f43616e206265206c697175696461746564206279206f776e657220616674657260008201527f2000000000000000000000000000000000000000000000000000000000000000602082015250565b7f207365636f6e647320706f737420313937300000000000000000000000000000600082015250565b61087581610645565b811461088057600080fd5b5056fea26469706673582212201bcb3aaa01600ba4f9a0d716c904842ced9848cb73319b3cbb5d861d7ad8347664736f6c63430008030033",
  "immutableReferences": {},
  "source": "pragma solidity ^0.8.3; \r\n\r\nimport \"./ILiquidationCheck.sol\"; \r\n\r\ncontract TimeLiquidationCheck is ILiquidationCheck {\r\n\r\n    constructor() ILiquidationCheck() {}\r\n\r\n    function liquidationCheck(address creator, address owner, bytes memory args) \r\n    external \r\n    view \r\n    override \r\n    returns(bool) {\r\n        uint256 timeStamp;\r\n        assembly {\r\n            timeStamp := mload(add(args, 32))\r\n        }\r\n        return (block.timestamp >= timeStamp);\r\n    }\r\n\r\n    function toString(address creator, address owner, bytes memory args) \r\n    external \r\n    pure\r\n    override\r\n    returns(string memory) {\r\n        uint256 timeStamp;\r\n        assembly {\r\n            timeStamp := mload(add(args, 32))\r\n        }\r\n        return string(abi.encodePacked(\"Can be liquidated by owner after \", uint2str(timeStamp), \" seconds post 1970\")); \r\n    }\r\n\r\n    function uint2str(uint _i) internal pure returns (string memory _uintAsString) {\r\n        if (_i == 0) {\r\n            return \"0\";\r\n        }\r\n        uint j = _i;\r\n        uint len;\r\n        while (j != 0) {\r\n            len++;\r\n            j /= 10;\r\n        }\r\n        bytes memory bstr = new bytes(len);\r\n        uint k = len;\r\n        while (_i != 0) {\r\n            k = k-1;\r\n            uint8 temp = (48 + uint8(_i - _i / 10 * 10));\r\n            bytes1 b1 = bytes1(temp);\r\n            bstr[k] = b1;\r\n            _i /= 10;\r\n        }\r\n        return string(bstr);\r\n    }\r\n}",
  "sourcePath": "C:/Users/Kuan/Documents/GitHub/collaterize/contracts/TimeLiquidationCheck.sol",
  "compiler": {
    "name": "solc",
    "version": "0.8.3+commit.8d00100c.Emscripten.clang"
  },
  "schemaVersion": "3.3.4",
  "updatedAt": "2021-06-20T07:54:30.237Z",
  "networkType": "ethereum",
  "devdoc": {
    "kind": "dev",
    "methods": {},
    "version": 1
  },
  "userdoc": {
    "kind": "user",
    "methods": {},
    "version": 1
  }
}