{
  "contractName": "TimeLiquidationCheck",
  "abi": [
    {
      "inputs": [],
      "stateMutability": "nonpayable",
      "type": "constructor"
    },
    {
      "inputs": [
        {
          "internalType": "address[]",
          "name": "accounts",
          "type": "address[]"
        },
        {
          "internalType": "uint256",
          "name": "index",
          "type": "uint256"
        },
        {
          "internalType": "bytes",
          "name": "args",
          "type": "bytes"
        }
      ],
      "name": "liquidationCheck",
      "outputs": [
        {
          "internalType": "bool",
          "name": "",
          "type": "bool"
        }
      ],
      "stateMutability": "view",
      "type": "function"
    }
  ],
  "bytecode": "0x608060405234801561001057600080fd5b50610901806100206000396000f3fe608060405234801561001057600080fd5b506004361061002b5760003560e01c80630ff648f814610030575b600080fd5b61004a600480360381019061004591906103d0565b610060565b604051610057919061045e565b60405180910390f35b60008060005b83518110156101145760018161007c91906104fb565b8451610088919061071c565b600861009491906106c2565b60026100a091906105a4565b8482815181106100d9577f4e487b7100000000000000000000000000000000000000000000000000000000600052603260045260246000fd5b602001015160f81c60f81b60f81c60ff166100f491906106c2565b826100ff91906104fb565b9150808061010c906107d8565b915050610066565b508460008151811061014f577f4e487b7100000000000000000000000000000000000000000000000000000000600052603260045260246000fd5b602002602001015173ffffffffffffffffffffffffffffffffffffffff16856000815181106101a7577f4e487b7100000000000000000000000000000000000000000000000000000000600052603260045260246000fd5b602002602001015173ffffffffffffffffffffffffffffffffffffffff16148061027e575084600181518110610206577f4e487b7100000000000000000000000000000000000000000000000000000000600052603260045260246000fd5b602002602001015173ffffffffffffffffffffffffffffffffffffffff168560018151811061025e577f4e487b7100000000000000000000000000000000000000000000000000000000600052603260045260246000fd5b602002602001015173ffffffffffffffffffffffffffffffffffffffff16145b1561028d5760009150506102a1565b60018414801561029d5750804210155b9150505b9392505050565b60006102bb6102b68461049e565b610479565b905080838252602082019050828560208602820111156102da57600080fd5b60005b8581101561030a57816102f08882610352565b8452602084019350602083019250506001810190506102dd565b5050509392505050565b6000610327610322846104ca565b610479565b90508281526020810184848401111561033f57600080fd5b61034a848285610798565b509392505050565b6000813590506103618161089d565b92915050565b600082601f83011261037857600080fd5b81356103888482602086016102a8565b91505092915050565b600082601f8301126103a257600080fd5b81356103b2848260208601610314565b91505092915050565b6000813590506103ca816108b4565b92915050565b6000806000606084860312156103e557600080fd5b600084013567ffffffffffffffff8111156103ff57600080fd5b61040b86828701610367565b935050602061041c868287016103bb565b925050604084013567ffffffffffffffff81111561043957600080fd5b61044586828701610391565b9150509250925092565b61045881610762565b82525050565b6000602082019050610473600083018461044f565b92915050565b6000610483610494565b905061048f82826107a7565b919050565b6000604051905090565b600067ffffffffffffffff8211156104b9576104b8610850565b5b602082029050602081019050919050565b600067ffffffffffffffff8211156104e5576104e4610850565b5b6104ee8261087f565b9050602081019050919050565b60006105068261078e565b91506105118361078e565b9250827fffffffffffffffffffffffffffffffffffffffffffffffffffffffffffffffff0382111561054657610545610821565b5b828201905092915050565b6000808291508390505b600185111561059b5780860481111561057757610576610821565b5b60018516156105865780820291505b808102905061059485610890565b945061055b565b94509492505050565b60006105af8261078e565b91506105ba8361078e565b92506105e77fffffffffffffffffffffffffffffffffffffffffffffffffffffffffffffffff84846105ef565b905092915050565b6000826105ff57600190506106bb565b8161060d57600090506106bb565b8160018114610623576002811461062d5761065c565b60019150506106bb565b60ff84111561063f5761063e610821565b5b8360020a91508482111561065657610655610821565b5b506106bb565b5060208310610133831016604e8410600b84101617156106915782820a90508381111561068c5761068b610821565b5b6106bb565b61069e8484846001610551565b925090508184048111156106b5576106b4610821565b5b81810290505b9392505050565b60006106cd8261078e565b91506106d88361078e565b9250817fffffffffffffffffffffffffffffffffffffffffffffffffffffffffffffffff048311821515161561071157610710610821565b5b828202905092915050565b60006107278261078e565b91506107328361078e565b92508282101561074557610744610821565b5b828203905092915050565b600061075b8261076e565b9050919050565b60008115159050919050565b600073ffffffffffffffffffffffffffffffffffffffff82169050919050565b6000819050919050565b82818337600083830152505050565b6107b08261087f565b810181811067ffffffffffffffff821117156107cf576107ce610850565b5b80604052505050565b60006107e38261078e565b91507fffffffffffffffffffffffffffffffffffffffffffffffffffffffffffffffff82141561081657610815610821565b5b600182019050919050565b7f4e487b7100000000000000000000000000000000000000000000000000000000600052601160045260246000fd5b7f4e487b7100000000000000000000000000000000000000000000000000000000600052604160045260246000fd5b6000601f19601f8301169050919050565b60008160011c9050919050565b6108a681610750565b81146108b157600080fd5b50565b6108bd8161078e565b81146108c857600080fd5b5056fea2646970667358221220231c3dd9613ece5dcce706db778f76b8a8b357abac3b45cba8e5fc723f1f3d9f64736f6c63430008030033",
  "immutableReferences": {},
  "source": "pragma solidity ^0.8.3; \r\n\r\nimport \"./ILiquidationCheck.sol\"; \r\n\r\ncontract TimeLiquidationCheck is ILiquidationCheck {\r\n\r\n    constructor() ILiquidationCheck() {}\r\n\r\n    function liquidationCheck(address[] memory accounts, uint256 index, bytes memory args) \r\n    external \r\n    view \r\n    override \r\n    returns(bool) {\r\n        uint256 timeStamp;\r\n        for(uint i=0;i<args.length;i++){\r\n            timeStamp = timeStamp + uint(uint8(args[i]))*(2**(8*(args.length-(i+1))));\r\n        }\r\n        if (accounts[0] == accounts[0] || accounts[1] == accounts[1]) return false;\r\n        \r\n        return (index == 1 && block.timestamp >= timeStamp);\r\n    }\r\n}",
  "sourcePath": "C:/Users/Kuan/Documents/GitHub/collaterize/contracts/TimeLiquidationCheck.sol",
  "compiler": {
    "name": "solc",
    "version": "0.8.3+commit.8d00100c.Emscripten.clang"
  },
  "schemaVersion": "3.3.4",
  "updatedAt": "2021-06-27T01:35:13.215Z",
  "devdoc": {
    "kind": "dev",
    "methods": {},
    "version": 1
  },
  "userdoc": {
    "kind": "user",
    "methods": {},
    "version": 1
  }
}